{
  "_format": "hh-sol-artifact-1",
  "contractName": "MedicineNFT",
  "sourceName": "blockchain/contracts/medicine.sol",
  "abi": [
    {
      "inputs": [],
      "stateMutability": "nonpayable",
      "type": "constructor"
    },
    {
      "inputs": [
        {
          "internalType": "address",
          "name": "sender",
          "type": "address"
        },
        {
          "internalType": "uint256",
          "name": "tokenId",
          "type": "uint256"
        },
        {
          "internalType": "address",
          "name": "owner",
          "type": "address"
        }
      ],
      "name": "ERC721IncorrectOwner",
      "type": "error"
    },
    {
      "inputs": [
        {
          "internalType": "address",
          "name": "operator",
          "type": "address"
        },
        {
          "internalType": "uint256",
          "name": "tokenId",
          "type": "uint256"
        }
      ],
      "name": "ERC721InsufficientApproval",
      "type": "error"
    },
    {
      "inputs": [
        {
          "internalType": "address",
          "name": "approver",
          "type": "address"
        }
      ],
      "name": "ERC721InvalidApprover",
      "type": "error"
    },
    {
      "inputs": [
        {
          "internalType": "address",
          "name": "operator",
          "type": "address"
        }
      ],
      "name": "ERC721InvalidOperator",
      "type": "error"
    },
    {
      "inputs": [
        {
          "internalType": "address",
          "name": "owner",
          "type": "address"
        }
      ],
      "name": "ERC721InvalidOwner",
      "type": "error"
    },
    {
      "inputs": [
        {
          "internalType": "address",
          "name": "receiver",
          "type": "address"
        }
      ],
      "name": "ERC721InvalidReceiver",
      "type": "error"
    },
    {
      "inputs": [
        {
          "internalType": "address",
          "name": "sender",
          "type": "address"
        }
      ],
      "name": "ERC721InvalidSender",
      "type": "error"
    },
    {
      "inputs": [
        {
          "internalType": "uint256",
          "name": "tokenId",
          "type": "uint256"
        }
      ],
      "name": "ERC721NonexistentToken",
      "type": "error"
    },
    {
      "anonymous": false,
      "inputs": [
        {
          "indexed": true,
          "internalType": "address",
          "name": "owner",
          "type": "address"
        },
        {
          "indexed": true,
          "internalType": "address",
          "name": "approved",
          "type": "address"
        },
        {
          "indexed": true,
          "internalType": "uint256",
          "name": "tokenId",
          "type": "uint256"
        }
      ],
      "name": "Approval",
      "type": "event"
    },
    {
      "anonymous": false,
      "inputs": [
        {
          "indexed": true,
          "internalType": "address",
          "name": "owner",
          "type": "address"
        },
        {
          "indexed": true,
          "internalType": "address",
          "name": "operator",
          "type": "address"
        },
        {
          "indexed": false,
          "internalType": "bool",
          "name": "approved",
          "type": "bool"
        }
      ],
      "name": "ApprovalForAll",
      "type": "event"
    },
    {
      "anonymous": false,
      "inputs": [
        {
          "indexed": false,
          "internalType": "uint256",
          "name": "_fromTokenId",
          "type": "uint256"
        },
        {
          "indexed": false,
          "internalType": "uint256",
          "name": "_toTokenId",
          "type": "uint256"
        }
      ],
      "name": "BatchMetadataUpdate",
      "type": "event"
    },
    {
      "anonymous": false,
      "inputs": [
        {
          "indexed": true,
          "internalType": "uint256",
          "name": "tokenId",
          "type": "uint256"
        },
        {
          "indexed": true,
          "internalType": "address",
          "name": "owner",
          "type": "address"
        },
        {
          "indexed": false,
          "internalType": "string",
          "name": "manufacturerId",
          "type": "string"
        },
        {
          "indexed": false,
          "internalType": "string",
          "name": "ipfsHash",
          "type": "string"
        }
      ],
      "name": "MedicineMinted",
      "type": "event"
    },
    {
      "anonymous": false,
      "inputs": [
        {
          "indexed": false,
          "internalType": "uint256",
          "name": "_tokenId",
          "type": "uint256"
        }
      ],
      "name": "MetadataUpdate",
      "type": "event"
    },
    {
      "anonymous": false,
      "inputs": [
        {
          "indexed": true,
          "internalType": "uint256",
          "name": "tokenId",
          "type": "uint256"
        },
        {
          "indexed": false,
          "internalType": "enum MedicineNFT.Status",
          "name": "newStatus",
          "type": "uint8"
        }
      ],
      "name": "StatusUpdated",
      "type": "event"
    },
    {
      "anonymous": false,
      "inputs": [
        {
          "indexed": true,
          "internalType": "address",
          "name": "from",
          "type": "address"
        },
        {
          "indexed": true,
          "internalType": "address",
          "name": "to",
          "type": "address"
        },
        {
          "indexed": true,
          "internalType": "uint256",
          "name": "tokenId",
          "type": "uint256"
        }
      ],
      "name": "Transfer",
      "type": "event"
    },
    {
      "inputs": [
        {
          "internalType": "address",
          "name": "to",
          "type": "address"
        },
        {
          "internalType": "uint256",
          "name": "tokenId",
          "type": "uint256"
        }
      ],
      "name": "approve",
      "outputs": [],
      "stateMutability": "nonpayable",
      "type": "function"
    },
    {
      "inputs": [
        {
          "internalType": "address",
          "name": "owner",
          "type": "address"
        }
      ],
      "name": "balanceOf",
      "outputs": [
        {
          "internalType": "uint256",
          "name": "",
          "type": "uint256"
        }
      ],
      "stateMutability": "view",
      "type": "function"
    },
    {
      "inputs": [
        {
          "internalType": "uint256",
          "name": "tokenId",
          "type": "uint256"
        }
      ],
      "name": "getApproved",
      "outputs": [
        {
          "internalType": "address",
          "name": "",
          "type": "address"
        }
      ],
      "stateMutability": "view",
      "type": "function"
    },
    {
      "inputs": [],
      "name": "getApprovedMedicines",
      "outputs": [
        {
          "internalType": "uint256[]",
          "name": "",
          "type": "uint256[]"
        }
      ],
      "stateMutability": "view",
      "type": "function"
    },
    {
      "inputs": [
        {
          "internalType": "address",
          "name": "_wallet",
          "type": "address"
        }
      ],
      "name": "getMedicinesByManufacturer",
      "outputs": [
        {
          "internalType": "uint256[]",
          "name": "",
          "type": "uint256[]"
        }
      ],
      "stateMutability": "view",
      "type": "function"
    },
    {
      "inputs": [],
      "name": "getPendingMedicines",
      "outputs": [
        {
          "internalType": "uint256[]",
          "name": "",
          "type": "uint256[]"
        }
      ],
      "stateMutability": "view",
      "type": "function"
    },
    {
      "inputs": [],
      "name": "getRejectedMedicines",
      "outputs": [
        {
          "internalType": "uint256[]",
          "name": "",
          "type": "uint256[]"
        }
      ],
      "stateMutability": "view",
      "type": "function"
    },
    {
      "inputs": [
        {
          "internalType": "address",
          "name": "owner",
          "type": "address"
        },
        {
          "internalType": "address",
          "name": "operator",
          "type": "address"
        }
      ],
      "name": "isApprovedForAll",
      "outputs": [
        {
          "internalType": "bool",
          "name": "",
          "type": "bool"
        }
      ],
      "stateMutability": "view",
      "type": "function"
    },
    {
      "inputs": [
        {
          "internalType": "uint256",
          "name": "",
          "type": "uint256"
        }
      ],
      "name": "medicines",
      "outputs": [
        {
          "internalType": "uint256",
          "name": "id",
          "type": "uint256"
        },
        {
          "internalType": "enum MedicineNFT.Status",
          "name": "status",
          "type": "uint8"
        },
        {
          "internalType": "string",
          "name": "manufacturerId",
          "type": "string"
        },
        {
          "internalType": "address",
          "name": "wallet",
          "type": "address"
        },
        {
          "internalType": "string",
          "name": "ipfsHash",
          "type": "string"
        }
      ],
      "stateMutability": "view",
      "type": "function"
    },
    {
      "inputs": [
        {
          "internalType": "string",
          "name": "_manufacturerId",
          "type": "string"
        },
        {
          "internalType": "string",
          "name": "_ipfsHash",
          "type": "string"
        }
      ],
      "name": "mintMedicine",
      "outputs": [
        {
          "internalType": "uint256",
          "name": "",
          "type": "uint256"
        }
      ],
      "stateMutability": "nonpayable",
      "type": "function"
    },
    {
      "inputs": [],
      "name": "name",
      "outputs": [
        {
          "internalType": "string",
          "name": "",
          "type": "string"
        }
      ],
      "stateMutability": "view",
      "type": "function"
    },
    {
      "inputs": [
        {
          "internalType": "uint256",
          "name": "tokenId",
          "type": "uint256"
        }
      ],
      "name": "ownerOf",
      "outputs": [
        {
          "internalType": "address",
          "name": "",
          "type": "address"
        }
      ],
      "stateMutability": "view",
      "type": "function"
    },
    {
      "inputs": [
        {
          "internalType": "address",
          "name": "from",
          "type": "address"
        },
        {
          "internalType": "address",
          "name": "to",
          "type": "address"
        },
        {
          "internalType": "uint256",
          "name": "tokenId",
          "type": "uint256"
        }
      ],
      "name": "safeTransferFrom",
      "outputs": [],
      "stateMutability": "nonpayable",
      "type": "function"
    },
    {
      "inputs": [
        {
          "internalType": "address",
          "name": "from",
          "type": "address"
        },
        {
          "internalType": "address",
          "name": "to",
          "type": "address"
        },
        {
          "internalType": "uint256",
          "name": "tokenId",
          "type": "uint256"
        },
        {
          "internalType": "bytes",
          "name": "data",
          "type": "bytes"
        }
      ],
      "name": "safeTransferFrom",
      "outputs": [],
      "stateMutability": "nonpayable",
      "type": "function"
    },
    {
      "inputs": [
        {
          "internalType": "address",
          "name": "operator",
          "type": "address"
        },
        {
          "internalType": "bool",
          "name": "approved",
          "type": "bool"
        }
      ],
      "name": "setApprovalForAll",
      "outputs": [],
      "stateMutability": "nonpayable",
      "type": "function"
    },
    {
      "inputs": [
        {
          "internalType": "bytes4",
          "name": "interfaceId",
          "type": "bytes4"
        }
      ],
      "name": "supportsInterface",
      "outputs": [
        {
          "internalType": "bool",
          "name": "",
          "type": "bool"
        }
      ],
      "stateMutability": "view",
      "type": "function"
    },
    {
      "inputs": [],
      "name": "symbol",
      "outputs": [
        {
          "internalType": "string",
          "name": "",
          "type": "string"
        }
      ],
      "stateMutability": "view",
      "type": "function"
    },
    {
      "inputs": [
        {
          "internalType": "uint256",
          "name": "_tokenId",
          "type": "uint256"
        }
      ],
      "name": "tokenExists",
      "outputs": [
        {
          "internalType": "bool",
          "name": "",
          "type": "bool"
        }
      ],
      "stateMutability": "view",
      "type": "function"
    },
    {
      "inputs": [
        {
          "internalType": "uint256",
          "name": "tokenId",
          "type": "uint256"
        }
      ],
      "name": "tokenURI",
      "outputs": [
        {
          "internalType": "string",
          "name": "",
          "type": "string"
        }
      ],
      "stateMutability": "view",
      "type": "function"
    },
    {
      "inputs": [
        {
          "internalType": "address",
          "name": "from",
          "type": "address"
        },
        {
          "internalType": "address",
          "name": "to",
          "type": "address"
        },
        {
          "internalType": "uint256",
          "name": "tokenId",
          "type": "uint256"
        }
      ],
      "name": "transferFrom",
      "outputs": [],
      "stateMutability": "nonpayable",
      "type": "function"
    },
    {
      "inputs": [
        {
          "internalType": "uint256",
          "name": "_tokenId",
          "type": "uint256"
        },
        {
          "internalType": "enum MedicineNFT.Status",
          "name": "_newStatus",
          "type": "uint8"
        }
      ],
      "name": "updateStatus",
      "outputs": [],
      "stateMutability": "nonpayable",
      "type": "function"
    },
    {
      "inputs": [
        {
          "internalType": "string",
          "name": "_ipfsHash",
          "type": "string"
        }
      ],
      "name": "verifyMedicineByQR",
      "outputs": [
        {
          "internalType": "bool",
          "name": "",
          "type": "bool"
        }
      ],
      "stateMutability": "view",
      "type": "function"
    }
  ],
  "bytecode": "0x60806040523480156200001157600080fd5b506040518060400160405280600b81526020017f4d65646963696e654e46540000000000000000000000000000000000000000008152506040518060400160405280600681526020017f4d45444e4654000000000000000000000000000000000000000000000000000081525081600090816200008f919062000324565b508060019081620000a1919062000324565b5050506200040b565b600081519050919050565b7f4e487b7100000000000000000000000000000000000000000000000000000000600052604160045260246000fd5b7f4e487b7100000000000000000000000000000000000000000000000000000000600052602260045260246000fd5b600060028204905060018216806200012c57607f821691505b602082108103620001425762000141620000e4565b5b50919050565b60008190508160005260206000209050919050565b60006020601f8301049050919050565b600082821b905092915050565b600060088302620001ac7fffffffffffffffffffffffffffffffffffffffffffffffffffffffffffffffff826200016d565b620001b886836200016d565b95508019841693508086168417925050509392505050565b6000819050919050565b6000819050919050565b600062000205620001ff620001f984620001d0565b620001da565b620001d0565b9050919050565b6000819050919050565b6200022183620001e4565b6200023962000230826200020c565b8484546200017a565b825550505050565b600090565b6200025062000241565b6200025d81848462000216565b505050565b5b8181101562000285576200027960008262000246565b60018101905062000263565b5050565b601f821115620002d4576200029e8162000148565b620002a9846200015d565b81016020851015620002b9578190505b620002d1620002c8856200015d565b83018262000262565b50505b505050565b600082821c905092915050565b6000620002f960001984600802620002d9565b1980831691505092915050565b6000620003148383620002e6565b9150826002028217905092915050565b6200032f82620000aa565b67ffffffffffffffff8111156200034b576200034a620000b5565b5b62000357825462000113565b6200036482828562000289565b600060209050601f8311600181146200039c576000841562000387578287015190505b62000393858262000306565b86555062000403565b601f198416620003ac8662000148565b60005b82811015620003d657848901518255600182019150602085019450602081019050620003af565b86831015620003f65784890151620003f2601f891682620002e6565b8355505b6001600288020188555050505b505050505050565b6130ff806200041b6000396000f3fe608060405234801561001057600080fd5b50600436106101415760003560e01c80636352211e116100b8578063a22cb4651161007c578063a22cb4651461039c578063a9c58434146103b8578063b88d4fde146103e8578063c85e766d14610404578063c87b56dd14610438578063e985e9c51461046857610141565b80636352211e146102d057806369294bd11461030057806370a08231146103305780637d4ba4831461036057806395d89b411461037e57610141565b80630f117e3e1161010a5780630f117e3e146102105780631b5b085d1461022e57806323b872dd1461025e5780633a1b3d311461027a57806342842e0e146102965780635a01fee0146102b257610141565b8062923f9e1461014657806301ffc9a71461017657806306fdde03146101a6578063081812fc146101c4578063095ea7b3146101f4575b600080fd5b610160600480360381019061015b919061216d565b610498565b60405161016d91906121b5565b60405180910390f35b610190600480360381019061018b9190612228565b610554565b60405161019d91906121b5565b60405180910390f35b6101ae6105b5565b6040516101bb91906122e5565b60405180910390f35b6101de60048036038101906101d9919061216d565b610647565b6040516101eb9190612348565b60405180910390f35b61020e6004803603810190610209919061238f565b610663565b005b610218610679565b604051610225919061248d565b60405180910390f35b610248600480360381019061024391906125e4565b61068a565b604051610255919061266b565b60405180910390f35b61027860048036038101906102739190612686565b6108b6565b005b610294600480360381019061028f91906126fe565b6109b8565b005b6102b060048036038101906102ab9190612686565b610a7a565b005b6102ba610a9a565b6040516102c7919061248d565b60405180910390f35b6102ea60048036038101906102e5919061216d565b610aab565b6040516102f79190612348565b60405180910390f35b61031a6004803603810190610315919061273e565b610abd565b60405161032791906121b5565b60405180910390f35b61034a60048036038101906103459190612787565b610b7a565b604051610357919061266b565b60405180910390f35b610368610c34565b604051610375919061248d565b60405180910390f35b610386610c45565b60405161039391906122e5565b60405180910390f35b6103b660048036038101906103b191906127e0565b610cd7565b005b6103d260048036038101906103cd9190612787565b610ced565b6040516103df919061248d565b60405180910390f35b61040260048036038101906103fd91906128c1565b610d84565b005b61041e6004803603810190610419919061216d565b610da9565b60405161042f9594939291906129bb565b60405180910390f35b610452600480360381019061044d919061216d565b610f1c565b60405161045f91906122e5565b60405180910390f35b610482600480360381019061047d9190612a1c565b61102f565b60405161048f91906121b5565b60405180910390f35b60003073ffffffffffffffffffffffffffffffffffffffff16636352211e836040518263ffffffff1660e01b81526004016104d3919061266b565b602060405180830381865afa92505050801561050d57506040513d601f19601f8201168201806040525081019061050a9190612a71565b60015b61051a576000905061054f565b600073ffffffffffffffffffffffffffffffffffffffff168173ffffffffffffffffffffffffffffffffffffffff1614159150505b919050565b6000634906490660e01b7bffffffffffffffffffffffffffffffffffffffffffffffffffffffff1916827bffffffffffffffffffffffffffffffffffffffffffffffffffffffff191614806105ae57506105ad826110c3565b5b9050919050565b6060600080546105c490612acd565b80601f01602080910402602001604051908101604052809291908181526020018280546105f090612acd565b801561063d5780601f106106125761010080835404028352916020019161063d565b820191906000526020600020905b81548152906001019060200180831161062057829003601f168201915b5050505050905090565b6000610652826111a5565b5061065c8261122d565b9050919050565b610675828261067061126a565b611272565b5050565b60606106856002611284565b905090565b60006007600081548092919061069f90612b2d565b9190505550600060075490506106b53382611402565b6106bf81846114fb565b6040518060a00160405280828152602001600060028111156106e4576106e3612944565b5b81526020018581526020013373ffffffffffffffffffffffffffffffffffffffff16815260200184815250600860008381526020019081526020016000206000820151816000015560208201518160010160006101000a81548160ff0219169083600281111561075757610756612944565b5b021790555060408201518160020190816107719190612d21565b5060608201518160030160006101000a81548173ffffffffffffffffffffffffffffffffffffffff021916908373ffffffffffffffffffffffffffffffffffffffff16021790555060808201518160040190816107ce9190612d21565b5090505080600a846040516107e39190612e2f565b908152602001604051809103902081905550600960003373ffffffffffffffffffffffffffffffffffffffff1673ffffffffffffffffffffffffffffffffffffffff1681526020019081526020016000208190806001815401808255809150506001900390600052602060002001600090919091909150553373ffffffffffffffffffffffffffffffffffffffff16817f5cc58fcf233a683ca30a98579036fc4bd6de2807a3e0bbaa38a7b9af39498a5a86866040516108a4929190612e46565b60405180910390a38091505092915050565b600073ffffffffffffffffffffffffffffffffffffffff168273ffffffffffffffffffffffffffffffffffffffff16036109285760006040517f64a0ae9200000000000000000000000000000000000000000000000000000000815260040161091f9190612348565b60405180910390fd5b600061093c838361093761126a565b611557565b90508373ffffffffffffffffffffffffffffffffffffffff168173ffffffffffffffffffffffffffffffffffffffff16146109b2578382826040517f64283d7b0000000000000000000000000000000000000000000000000000000081526004016109a993929190612e7d565b60405180910390fd5b50505050565b6109c182610498565b610a00576040517f08c379a00000000000000000000000000000000000000000000000000000000081526004016109f790612f00565b60405180910390fd5b806008600084815260200190815260200160002060010160006101000a81548160ff02191690836002811115610a3957610a38612944565b5b0217905550817f2da7b23ca63c1eb969eee5fae4acb98186abecf5358b0354a82a5183ebca6b2a82604051610a6e9190612f20565b60405180910390a25050565b610a9583838360405180602001604052806000815250610d84565b505050565b6060610aa66001611284565b905090565b6000610ab6826111a5565b9050919050565b600080825103610ad05760009050610b75565b6000600a83604051610ae29190612e2f565b90815260200160405180910390205490506000811480610b18575080600860008381526020019081526020016000206000015414155b15610b27576000915050610b75565b600280811115610b3a57610b39612944565b5b6008600083815260200190815260200160002060010160009054906101000a900460ff166002811115610b7057610b6f612944565b5b149150505b919050565b60008073ffffffffffffffffffffffffffffffffffffffff168273ffffffffffffffffffffffffffffffffffffffff1603610bed5760006040517f89c62b64000000000000000000000000000000000000000000000000000000008152600401610be49190612348565b60405180910390fd5b600360008373ffffffffffffffffffffffffffffffffffffffff1673ffffffffffffffffffffffffffffffffffffffff168152602001908152602001600020549050919050565b6060610c406000611284565b905090565b606060018054610c5490612acd565b80601f0160208091040260200160405190810160405280929190818152602001828054610c8090612acd565b8015610ccd5780601f10610ca257610100808354040283529160200191610ccd565b820191906000526020600020905b815481529060010190602001808311610cb057829003601f168201915b5050505050905090565b610ce9610ce261126a565b8383611771565b5050565b6060600960008373ffffffffffffffffffffffffffffffffffffffff1673ffffffffffffffffffffffffffffffffffffffff168152602001908152602001600020805480602002602001604051908101604052809291908181526020018280548015610d7857602002820191906000526020600020905b815481526020019060010190808311610d64575b50505050509050919050565b610d8f8484846108b6565b610da3610d9a61126a565b858585856118e0565b50505050565b60086020528060005260406000206000915090508060000154908060010160009054906101000a900460ff1690806002018054610de590612acd565b80601f0160208091040260200160405190810160405280929190818152602001828054610e1190612acd565b8015610e5e5780601f10610e3357610100808354040283529160200191610e5e565b820191906000526020600020905b815481529060010190602001808311610e4157829003601f168201915b5050505050908060030160009054906101000a900473ffffffffffffffffffffffffffffffffffffffff1690806004018054610e9990612acd565b80601f0160208091040260200160405190810160405280929190818152602001828054610ec590612acd565b8015610f125780601f10610ee757610100808354040283529160200191610f12565b820191906000526020600020905b815481529060010190602001808311610ef557829003601f168201915b5050505050905085565b6060610f27826111a5565b506000600660008481526020019081526020016000208054610f4890612acd565b80601f0160208091040260200160405190810160405280929190818152602001828054610f7490612acd565b8015610fc15780601f10610f9657610100808354040283529160200191610fc1565b820191906000526020600020905b815481529060010190602001808311610fa457829003601f168201915b505050505090506000610fd2611a91565b90506000815103610fe757819250505061102a565b60008251111561101c578082604051602001611004929190612f3b565b6040516020818303038152906040529250505061102a565b61102584611aa8565b925050505b919050565b6000600560008473ffffffffffffffffffffffffffffffffffffffff1673ffffffffffffffffffffffffffffffffffffffff16815260200190815260200160002060008373ffffffffffffffffffffffffffffffffffffffff1673ffffffffffffffffffffffffffffffffffffffff16815260200190815260200160002060009054906101000a900460ff16905092915050565b60007f80ac58cd000000000000000000000000000000000000000000000000000000007bffffffffffffffffffffffffffffffffffffffffffffffffffffffff1916827bffffffffffffffffffffffffffffffffffffffffffffffffffffffff1916148061118e57507f5b5e139f000000000000000000000000000000000000000000000000000000007bffffffffffffffffffffffffffffffffffffffffffffffffffffffff1916827bffffffffffffffffffffffffffffffffffffffffffffffffffffffff1916145b8061119e575061119d82611b11565b5b9050919050565b6000806111b183611b7b565b9050600073ffffffffffffffffffffffffffffffffffffffff168173ffffffffffffffffffffffffffffffffffffffff160361122457826040517f7e27328900000000000000000000000000000000000000000000000000000000815260040161121b919061266b565b60405180910390fd5b80915050919050565b60006004600083815260200190815260200160002060009054906101000a900473ffffffffffffffffffffffffffffffffffffffff169050919050565b600033905090565b61127f8383836001611bb8565b505050565b6060600080600190505b6007548111611307578360028111156112aa576112a9612944565b5b6008600083815260200190815260200160002060010160009054906101000a900460ff1660028111156112e0576112df612944565b5b036112f45781806112f090612b2d565b9250505b80806112ff90612b2d565b91505061128e565b5060008167ffffffffffffffff811115611324576113236124b9565b5b6040519080825280602002602001820160405280156113525781602001602082028036833780820191505090505b509050600080600190505b60075481116113f65785600281111561137957611378612944565b5b6008600083815260200190815260200160002060010160009054906101000a900460ff1660028111156113af576113ae612944565b5b036113e357808383815181106113c8576113c7612f5f565b5b60200260200101818152505081806113df90612b2d565b9250505b80806113ee90612b2d565b91505061135d565b50819350505050919050565b600073ffffffffffffffffffffffffffffffffffffffff168273ffffffffffffffffffffffffffffffffffffffff16036114745760006040517f64a0ae9200000000000000000000000000000000000000000000000000000000815260040161146b9190612348565b60405180910390fd5b600061148283836000611557565b9050600073ffffffffffffffffffffffffffffffffffffffff168173ffffffffffffffffffffffffffffffffffffffff16146114f65760006040517f73c6ac6e0000000000000000000000000000000000000000000000000000000081526004016114ed9190612348565b60405180910390fd5b505050565b8060066000848152602001908152602001600020908161151b9190612d21565b507ff8e1a15aba9398e019f0b49df1a4fde98ee17ae345cb5f6b5e2c27f5033e8ce78260405161154b919061266b565b60405180910390a15050565b60008061156384611b7b565b9050600073ffffffffffffffffffffffffffffffffffffffff168373ffffffffffffffffffffffffffffffffffffffff16146115a5576115a4818486611d7d565b5b600073ffffffffffffffffffffffffffffffffffffffff168173ffffffffffffffffffffffffffffffffffffffff1614611636576115e7600085600080611bb8565b6001600360008373ffffffffffffffffffffffffffffffffffffffff1673ffffffffffffffffffffffffffffffffffffffff168152602001908152602001600020600082825403925050819055505b600073ffffffffffffffffffffffffffffffffffffffff168573ffffffffffffffffffffffffffffffffffffffff16146116b9576001600360008773ffffffffffffffffffffffffffffffffffffffff1673ffffffffffffffffffffffffffffffffffffffff168152602001908152602001600020600082825401925050819055505b846002600086815260200190815260200160002060006101000a81548173ffffffffffffffffffffffffffffffffffffffff021916908373ffffffffffffffffffffffffffffffffffffffff160217905550838573ffffffffffffffffffffffffffffffffffffffff168273ffffffffffffffffffffffffffffffffffffffff167fddf252ad1be2c89b69c2b068fc378daa952ba7f163c4a11628f55a4df523b3ef60405160405180910390a4809150509392505050565b600073ffffffffffffffffffffffffffffffffffffffff168273ffffffffffffffffffffffffffffffffffffffff16036117e257816040517f5b08ba180000000000000000000000000000000000000000000000000000000081526004016117d99190612348565b60405180910390fd5b80600560008573ffffffffffffffffffffffffffffffffffffffff1673ffffffffffffffffffffffffffffffffffffffff16815260200190815260200160002060008473ffffffffffffffffffffffffffffffffffffffff1673ffffffffffffffffffffffffffffffffffffffff16815260200190815260200160002060006101000a81548160ff0219169083151502179055508173ffffffffffffffffffffffffffffffffffffffff168373ffffffffffffffffffffffffffffffffffffffff167f17307eab39ab6107e8899845ad3d59bd9653f200f220920489ca2b5937696c31836040516118d391906121b5565b60405180910390a3505050565b60008373ffffffffffffffffffffffffffffffffffffffff163b1115611a8a578273ffffffffffffffffffffffffffffffffffffffff1663150b7a02868685856040518563ffffffff1660e01b815260040161193f9493929190612fe3565b6020604051808303816000875af192505050801561197b57506040513d601f19601f820116820180604052508101906119789190613044565b60015b6119ff573d80600081146119ab576040519150601f19603f3d011682016040523d82523d6000602084013e6119b0565b606091505b5060008151036119f757836040517f64a0ae920000000000000000000000000000000000000000000000000000000081526004016119ee9190612348565b60405180910390fd5b805181602001fd5b63150b7a0260e01b7bffffffffffffffffffffffffffffffffffffffffffffffffffffffff1916817bffffffffffffffffffffffffffffffffffffffffffffffffffffffff191614611a8857836040517f64a0ae92000000000000000000000000000000000000000000000000000000008152600401611a7f9190612348565b60405180910390fd5b505b5050505050565b606060405180602001604052806000815250905090565b6060611ab3826111a5565b506000611abe611a91565b90506000815111611ade5760405180602001604052806000815250611b09565b80611ae884611e41565b604051602001611af9929190612f3b565b6040516020818303038152906040525b915050919050565b60007f01ffc9a7000000000000000000000000000000000000000000000000000000007bffffffffffffffffffffffffffffffffffffffffffffffffffffffff1916827bffffffffffffffffffffffffffffffffffffffffffffffffffffffff1916149050919050565b60006002600083815260200190815260200160002060009054906101000a900473ffffffffffffffffffffffffffffffffffffffff169050919050565b8080611bf15750600073ffffffffffffffffffffffffffffffffffffffff168273ffffffffffffffffffffffffffffffffffffffff1614155b15611d25576000611c01846111a5565b9050600073ffffffffffffffffffffffffffffffffffffffff168373ffffffffffffffffffffffffffffffffffffffff1614158015611c6c57508273ffffffffffffffffffffffffffffffffffffffff168173ffffffffffffffffffffffffffffffffffffffff1614155b8015611c7f5750611c7d818461102f565b155b15611cc157826040517fa9fbf51f000000000000000000000000000000000000000000000000000000008152600401611cb89190612348565b60405180910390fd5b8115611d2357838573ffffffffffffffffffffffffffffffffffffffff168273ffffffffffffffffffffffffffffffffffffffff167f8c5be1e5ebec7d5bd14f71427d1e84f3dd0314c0f7b2291e5b200ac8c7c3b92560405160405180910390a45b505b836004600085815260200190815260200160002060006101000a81548173ffffffffffffffffffffffffffffffffffffffff021916908373ffffffffffffffffffffffffffffffffffffffff16021790555050505050565b611d88838383611f0f565b611e3c57600073ffffffffffffffffffffffffffffffffffffffff168373ffffffffffffffffffffffffffffffffffffffff1603611dfd57806040517f7e273289000000000000000000000000000000000000000000000000000000008152600401611df4919061266b565b60405180910390fd5b81816040517f177e802f000000000000000000000000000000000000000000000000000000008152600401611e33929190613071565b60405180910390fd5b505050565b606060006001611e5084611fd0565b01905060008167ffffffffffffffff811115611e6f57611e6e6124b9565b5b6040519080825280601f01601f191660200182016040528015611ea15781602001600182028036833780820191505090505b509050600082602001820190505b600115611f04578080600190039150507f3031323334353637383961626364656600000000000000000000000000000000600a86061a8153600a8581611ef857611ef761309a565b5b04945060008503611eaf575b819350505050919050565b60008073ffffffffffffffffffffffffffffffffffffffff168373ffffffffffffffffffffffffffffffffffffffff1614158015611fc757508273ffffffffffffffffffffffffffffffffffffffff168473ffffffffffffffffffffffffffffffffffffffff161480611f885750611f87848461102f565b5b80611fc657508273ffffffffffffffffffffffffffffffffffffffff16611fae8361122d565b73ffffffffffffffffffffffffffffffffffffffff16145b5b90509392505050565b600080600090507a184f03e93ff9f4daa797ed6e38ed64bf6a1f010000000000000000831061202e577a184f03e93ff9f4daa797ed6e38ed64bf6a1f01000000000000000083816120245761202361309a565b5b0492506040810190505b6d04ee2d6d415b85acef8100000000831061206b576d04ee2d6d415b85acef810000000083816120615761206061309a565b5b0492506020810190505b662386f26fc10000831061209a57662386f26fc1000083816120905761208f61309a565b5b0492506010810190505b6305f5e10083106120c3576305f5e10083816120b9576120b861309a565b5b0492506008810190505b61271083106120e85761271083816120de576120dd61309a565b5b0492506004810190505b6064831061210b57606483816121015761210061309a565b5b0492506002810190505b600a831061211a576001810190505b80915050919050565b6000604051905090565b600080fd5b600080fd5b6000819050919050565b61214a81612137565b811461215557600080fd5b50565b60008135905061216781612141565b92915050565b6000602082840312156121835761218261212d565b5b600061219184828501612158565b91505092915050565b60008115159050919050565b6121af8161219a565b82525050565b60006020820190506121ca60008301846121a6565b92915050565b60007fffffffff0000000000000000000000000000000000000000000000000000000082169050919050565b612205816121d0565b811461221057600080fd5b50565b600081359050612222816121fc565b92915050565b60006020828403121561223e5761223d61212d565b5b600061224c84828501612213565b91505092915050565b600081519050919050565b600082825260208201905092915050565b60005b8381101561228f578082015181840152602081019050612274565b60008484015250505050565b6000601f19601f8301169050919050565b60006122b782612255565b6122c18185612260565b93506122d1818560208601612271565b6122da8161229b565b840191505092915050565b600060208201905081810360008301526122ff81846122ac565b905092915050565b600073ffffffffffffffffffffffffffffffffffffffff82169050919050565b600061233282612307565b9050919050565b61234281612327565b82525050565b600060208201905061235d6000830184612339565b92915050565b61236c81612327565b811461237757600080fd5b50565b60008135905061238981612363565b92915050565b600080604083850312156123a6576123a561212d565b5b60006123b48582860161237a565b92505060206123c585828601612158565b9150509250929050565b600081519050919050565b600082825260208201905092915050565b6000819050602082019050919050565b61240481612137565b82525050565b600061241683836123fb565b60208301905092915050565b6000602082019050919050565b600061243a826123cf565b61244481856123da565b935061244f836123eb565b8060005b83811015612480578151612467888261240a565b975061247283612422565b925050600181019050612453565b5085935050505092915050565b600060208201905081810360008301526124a7818461242f565b905092915050565b600080fd5b600080fd5b7f4e487b7100000000000000000000000000000000000000000000000000000000600052604160045260246000fd5b6124f18261229b565b810181811067ffffffffffffffff821117156125105761250f6124b9565b5b80604052505050565b6000612523612123565b905061252f82826124e8565b919050565b600067ffffffffffffffff82111561254f5761254e6124b9565b5b6125588261229b565b9050602081019050919050565b82818337600083830152505050565b600061258761258284612534565b612519565b9050828152602081018484840111156125a3576125a26124b4565b5b6125ae848285612565565b509392505050565b600082601f8301126125cb576125ca6124af565b5b81356125db848260208601612574565b91505092915050565b600080604083850312156125fb576125fa61212d565b5b600083013567ffffffffffffffff81111561261957612618612132565b5b612625858286016125b6565b925050602083013567ffffffffffffffff81111561264657612645612132565b5b612652858286016125b6565b9150509250929050565b61266581612137565b82525050565b6000602082019050612680600083018461265c565b92915050565b60008060006060848603121561269f5761269e61212d565b5b60006126ad8682870161237a565b93505060206126be8682870161237a565b92505060406126cf86828701612158565b9150509250925092565b600381106126e657600080fd5b50565b6000813590506126f8816126d9565b92915050565b600080604083850312156127155761271461212d565b5b600061272385828601612158565b9250506020612734858286016126e9565b9150509250929050565b6000602082840312156127545761275361212d565b5b600082013567ffffffffffffffff81111561277257612771612132565b5b61277e848285016125b6565b91505092915050565b60006020828403121561279d5761279c61212d565b5b60006127ab8482850161237a565b91505092915050565b6127bd8161219a565b81146127c857600080fd5b50565b6000813590506127da816127b4565b92915050565b600080604083850312156127f7576127f661212d565b5b60006128058582860161237a565b9250506020612816858286016127cb565b9150509250929050565b600067ffffffffffffffff82111561283b5761283a6124b9565b5b6128448261229b565b9050602081019050919050565b600061286461285f84612820565b612519565b9050828152602081018484840111156128805761287f6124b4565b5b61288b848285612565565b509392505050565b600082601f8301126128a8576128a76124af565b5b81356128b8848260208601612851565b91505092915050565b600080600080608085870312156128db576128da61212d565b5b60006128e98782880161237a565b94505060206128fa8782880161237a565b935050604061290b87828801612158565b925050606085013567ffffffffffffffff81111561292c5761292b612132565b5b61293887828801612893565b91505092959194509250565b7f4e487b7100000000000000000000000000000000000000000000000000000000600052602160045260246000fd5b6003811061298457612983612944565b5b50565b600081905061299582612973565b919050565b60006129a582612987565b9050919050565b6129b58161299a565b82525050565b600060a0820190506129d0600083018861265c565b6129dd60208301876129ac565b81810360408301526129ef81866122ac565b90506129fe6060830185612339565b8181036080830152612a1081846122ac565b90509695505050505050565b60008060408385031215612a3357612a3261212d565b5b6000612a418582860161237a565b9250506020612a528582860161237a565b9150509250929050565b600081519050612a6b81612363565b92915050565b600060208284031215612a8757612a8661212d565b5b6000612a9584828501612a5c565b91505092915050565b7f4e487b7100000000000000000000000000000000000000000000000000000000600052602260045260246000fd5b60006002820490506001821680612ae557607f821691505b602082108103612af857612af7612a9e565b5b50919050565b7f4e487b7100000000000000000000000000000000000000000000000000000000600052601160045260246000fd5b6000612b3882612137565b91507fffffffffffffffffffffffffffffffffffffffffffffffffffffffffffffffff8203612b6a57612b69612afe565b5b600182019050919050565b60008190508160005260206000209050919050565b60006020601f8301049050919050565b600082821b905092915050565b600060088302612bd77fffffffffffffffffffffffffffffffffffffffffffffffffffffffffffffffff82612b9a565b612be18683612b9a565b95508019841693508086168417925050509392505050565b6000819050919050565b6000612c1e612c19612c1484612137565b612bf9565b612137565b9050919050565b6000819050919050565b612c3883612c03565b612c4c612c4482612c25565b848454612ba7565b825550505050565b600090565b612c61612c54565b612c6c818484612c2f565b505050565b5b81811015612c9057612c85600082612c59565b600181019050612c72565b5050565b601f821115612cd557612ca681612b75565b612caf84612b8a565b81016020851015612cbe578190505b612cd2612cca85612b8a565b830182612c71565b50505b505050565b600082821c905092915050565b6000612cf860001984600802612cda565b1980831691505092915050565b6000612d118383612ce7565b9150826002028217905092915050565b612d2a82612255565b67ffffffffffffffff811115612d4357612d426124b9565b5b612d4d8254612acd565b612d58828285612c94565b600060209050601f831160018114612d8b5760008415612d79578287015190505b612d838582612d05565b865550612deb565b601f198416612d9986612b75565b60005b82811015612dc157848901518255600182019150602085019450602081019050612d9c565b86831015612dde5784890151612dda601f891682612ce7565b8355505b6001600288020188555050505b505050505050565b600081905092915050565b6000612e0982612255565b612e138185612df3565b9350612e23818560208601612271565b80840191505092915050565b6000612e3b8284612dfe565b915081905092915050565b60006040820190508181036000830152612e6081856122ac565b90508181036020830152612e7481846122ac565b90509392505050565b6000606082019050612e926000830186612339565b612e9f602083018561265c565b612eac6040830184612339565b949350505050565b7f546f6b656e20646f6573206e6f74206578697374000000000000000000000000600082015250565b6000612eea601483612260565b9150612ef582612eb4565b602082019050919050565b60006020820190508181036000830152612f1981612edd565b9050919050565b6000602082019050612f3560008301846129ac565b92915050565b6000612f478285612dfe565b9150612f538284612dfe565b91508190509392505050565b7f4e487b7100000000000000000000000000000000000000000000000000000000600052603260045260246000fd5b600081519050919050565b600082825260208201905092915050565b6000612fb582612f8e565b612fbf8185612f99565b9350612fcf818560208601612271565b612fd88161229b565b840191505092915050565b6000608082019050612ff86000830187612339565b6130056020830186612339565b613012604083018561265c565b81810360608301526130248184612faa565b905095945050505050565b60008151905061303e816121fc565b92915050565b60006020828403121561305a5761305961212d565b5b60006130688482850161302f565b91505092915050565b60006040820190506130866000830185612339565b613093602083018461265c565b9392505050565b7f4e487b7100000000000000000000000000000000000000000000000000000000600052601260045260246000fdfea26469706673582212201195b150fde5705376b1ecf21ab5c79a4e57377d69867c7b1cf2665f398f20f664736f6c63430008140033",
  "linkReferences": {},
  "deployedLinkReferences": {}
}