{
  "_format": "hh-sol-artifact-1",
  "contractName": "MedicineNFT",
  "sourceName": "blockchain/contracts/medicine.sol",
  "abi": [
    {
      "inputs": [],
      "stateMutability": "nonpayable",
      "type": "constructor"
    },
    {
      "inputs": [
        {
          "internalType": "address",
          "name": "sender",
          "type": "address"
        },
        {
          "internalType": "uint256",
          "name": "tokenId",
          "type": "uint256"
        },
        {
          "internalType": "address",
          "name": "owner",
          "type": "address"
        }
      ],
      "name": "ERC721IncorrectOwner",
      "type": "error"
    },
    {
      "inputs": [
        {
          "internalType": "address",
          "name": "operator",
          "type": "address"
        },
        {
          "internalType": "uint256",
          "name": "tokenId",
          "type": "uint256"
        }
      ],
      "name": "ERC721InsufficientApproval",
      "type": "error"
    },
    {
      "inputs": [
        {
          "internalType": "address",
          "name": "approver",
          "type": "address"
        }
      ],
      "name": "ERC721InvalidApprover",
      "type": "error"
    },
    {
      "inputs": [
        {
          "internalType": "address",
          "name": "operator",
          "type": "address"
        }
      ],
      "name": "ERC721InvalidOperator",
      "type": "error"
    },
    {
      "inputs": [
        {
          "internalType": "address",
          "name": "owner",
          "type": "address"
        }
      ],
      "name": "ERC721InvalidOwner",
      "type": "error"
    },
    {
      "inputs": [
        {
          "internalType": "address",
          "name": "receiver",
          "type": "address"
        }
      ],
      "name": "ERC721InvalidReceiver",
      "type": "error"
    },
    {
      "inputs": [
        {
          "internalType": "address",
          "name": "sender",
          "type": "address"
        }
      ],
      "name": "ERC721InvalidSender",
      "type": "error"
    },
    {
      "inputs": [
        {
          "internalType": "uint256",
          "name": "tokenId",
          "type": "uint256"
        }
      ],
      "name": "ERC721NonexistentToken",
      "type": "error"
    },
    {
      "anonymous": false,
      "inputs": [
        {
          "indexed": true,
          "internalType": "address",
          "name": "oldAdmin",
          "type": "address"
        },
        {
          "indexed": true,
          "internalType": "address",
          "name": "newAdmin",
          "type": "address"
        }
      ],
      "name": "AdminChanged",
      "type": "event"
    },
    {
      "anonymous": false,
      "inputs": [
        {
          "indexed": true,
          "internalType": "address",
          "name": "owner",
          "type": "address"
        },
        {
          "indexed": true,
          "internalType": "address",
          "name": "approved",
          "type": "address"
        },
        {
          "indexed": true,
          "internalType": "uint256",
          "name": "tokenId",
          "type": "uint256"
        }
      ],
      "name": "Approval",
      "type": "event"
    },
    {
      "anonymous": false,
      "inputs": [
        {
          "indexed": true,
          "internalType": "address",
          "name": "owner",
          "type": "address"
        },
        {
          "indexed": true,
          "internalType": "address",
          "name": "operator",
          "type": "address"
        },
        {
          "indexed": false,
          "internalType": "bool",
          "name": "approved",
          "type": "bool"
        }
      ],
      "name": "ApprovalForAll",
      "type": "event"
    },
    {
      "anonymous": false,
      "inputs": [
        {
          "indexed": false,
          "internalType": "uint256",
          "name": "_fromTokenId",
          "type": "uint256"
        },
        {
          "indexed": false,
          "internalType": "uint256",
          "name": "_toTokenId",
          "type": "uint256"
        }
      ],
      "name": "BatchMetadataUpdate",
      "type": "event"
    },
    {
      "anonymous": false,
      "inputs": [
        {
          "indexed": true,
          "internalType": "uint256",
          "name": "tokenId",
          "type": "uint256"
        },
        {
          "indexed": true,
          "internalType": "address",
          "name": "owner",
          "type": "address"
        },
        {
          "indexed": false,
          "internalType": "string",
          "name": "manufacturerId",
          "type": "string"
        },
        {
          "indexed": false,
          "internalType": "string",
          "name": "ipfsHash",
          "type": "string"
        }
      ],
      "name": "MedicineMinted",
      "type": "event"
    },
    {
      "anonymous": false,
      "inputs": [
        {
          "indexed": false,
          "internalType": "uint256",
          "name": "_tokenId",
          "type": "uint256"
        }
      ],
      "name": "MetadataUpdate",
      "type": "event"
    },
    {
      "anonymous": false,
      "inputs": [
        {
          "indexed": true,
          "internalType": "uint256",
          "name": "tokenId",
          "type": "uint256"
        },
        {
          "indexed": false,
          "internalType": "enum MedicineNFT.Status",
          "name": "newStatus",
          "type": "uint8"
        }
      ],
      "name": "StatusUpdated",
      "type": "event"
    },
    {
      "anonymous": false,
      "inputs": [
        {
          "indexed": true,
          "internalType": "address",
          "name": "from",
          "type": "address"
        },
        {
          "indexed": true,
          "internalType": "address",
          "name": "to",
          "type": "address"
        },
        {
          "indexed": true,
          "internalType": "uint256",
          "name": "tokenId",
          "type": "uint256"
        }
      ],
      "name": "Transfer",
      "type": "event"
    },
    {
      "inputs": [],
      "name": "admin",
      "outputs": [
        {
          "internalType": "address",
          "name": "",
          "type": "address"
        }
      ],
      "stateMutability": "view",
      "type": "function"
    },
    {
      "inputs": [
        {
          "internalType": "address",
          "name": "to",
          "type": "address"
        },
        {
          "internalType": "uint256",
          "name": "tokenId",
          "type": "uint256"
        }
      ],
      "name": "approve",
      "outputs": [],
      "stateMutability": "nonpayable",
      "type": "function"
    },
    {
      "inputs": [
        {
          "internalType": "address",
          "name": "owner",
          "type": "address"
        }
      ],
      "name": "balanceOf",
      "outputs": [
        {
          "internalType": "uint256",
          "name": "",
          "type": "uint256"
        }
      ],
      "stateMutability": "view",
      "type": "function"
    },
    {
      "inputs": [
        {
          "internalType": "address",
          "name": "newAdmin",
          "type": "address"
        }
      ],
      "name": "changeAdmin",
      "outputs": [],
      "stateMutability": "nonpayable",
      "type": "function"
    },
    {
      "inputs": [
        {
          "internalType": "uint256",
          "name": "tokenId",
          "type": "uint256"
        }
      ],
      "name": "getApproved",
      "outputs": [
        {
          "internalType": "address",
          "name": "",
          "type": "address"
        }
      ],
      "stateMutability": "view",
      "type": "function"
    },
    {
      "inputs": [],
      "name": "getApprovedMedicines",
      "outputs": [
        {
          "internalType": "uint256[]",
          "name": "",
          "type": "uint256[]"
        }
      ],
      "stateMutability": "view",
      "type": "function"
    },
    {
      "inputs": [
        {
          "internalType": "address",
          "name": "_wallet",
          "type": "address"
        }
      ],
      "name": "getMedicinesByManufacturer",
      "outputs": [
        {
          "internalType": "uint256[]",
          "name": "",
          "type": "uint256[]"
        }
      ],
      "stateMutability": "view",
      "type": "function"
    },
    {
      "inputs": [
        {
          "internalType": "address",
          "name": "_wallet",
          "type": "address"
        },
        {
          "internalType": "enum MedicineNFT.Status",
          "name": "_status",
          "type": "uint8"
        }
      ],
      "name": "getMedicinesByManufacturerAndStatus",
      "outputs": [
        {
          "internalType": "uint256[]",
          "name": "",
          "type": "uint256[]"
        }
      ],
      "stateMutability": "view",
      "type": "function"
    },
    {
      "inputs": [],
      "name": "getPendingMedicines",
      "outputs": [
        {
          "internalType": "uint256[]",
          "name": "",
          "type": "uint256[]"
        }
      ],
      "stateMutability": "view",
      "type": "function"
    },
    {
      "inputs": [],
      "name": "getRejectedMedicines",
      "outputs": [
        {
          "internalType": "uint256[]",
          "name": "",
          "type": "uint256[]"
        }
      ],
      "stateMutability": "view",
      "type": "function"
    },
    {
      "inputs": [
        {
          "internalType": "address",
          "name": "owner",
          "type": "address"
        },
        {
          "internalType": "address",
          "name": "operator",
          "type": "address"
        }
      ],
      "name": "isApprovedForAll",
      "outputs": [
        {
          "internalType": "bool",
          "name": "",
          "type": "bool"
        }
      ],
      "stateMutability": "view",
      "type": "function"
    },
    {
      "inputs": [
        {
          "internalType": "uint256",
          "name": "",
          "type": "uint256"
        }
      ],
      "name": "medicines",
      "outputs": [
        {
          "internalType": "uint256",
          "name": "id",
          "type": "uint256"
        },
        {
          "internalType": "enum MedicineNFT.Status",
          "name": "status",
          "type": "uint8"
        },
        {
          "internalType": "string",
          "name": "manufacturerId",
          "type": "string"
        },
        {
          "internalType": "address",
          "name": "wallet",
          "type": "address"
        },
        {
          "internalType": "string",
          "name": "ipfsHash",
          "type": "string"
        }
      ],
      "stateMutability": "view",
      "type": "function"
    },
    {
      "inputs": [
        {
          "internalType": "string",
          "name": "_manufacturerId",
          "type": "string"
        },
        {
          "internalType": "string",
          "name": "_ipfsHash",
          "type": "string"
        }
      ],
      "name": "mintMedicine",
      "outputs": [
        {
          "internalType": "uint256",
          "name": "",
          "type": "uint256"
        }
      ],
      "stateMutability": "nonpayable",
      "type": "function"
    },
    {
      "inputs": [],
      "name": "name",
      "outputs": [
        {
          "internalType": "string",
          "name": "",
          "type": "string"
        }
      ],
      "stateMutability": "view",
      "type": "function"
    },
    {
      "inputs": [
        {
          "internalType": "uint256",
          "name": "tokenId",
          "type": "uint256"
        }
      ],
      "name": "ownerOf",
      "outputs": [
        {
          "internalType": "address",
          "name": "",
          "type": "address"
        }
      ],
      "stateMutability": "view",
      "type": "function"
    },
    {
      "inputs": [
        {
          "internalType": "address",
          "name": "from",
          "type": "address"
        },
        {
          "internalType": "address",
          "name": "to",
          "type": "address"
        },
        {
          "internalType": "uint256",
          "name": "tokenId",
          "type": "uint256"
        }
      ],
      "name": "safeTransferFrom",
      "outputs": [],
      "stateMutability": "nonpayable",
      "type": "function"
    },
    {
      "inputs": [
        {
          "internalType": "address",
          "name": "from",
          "type": "address"
        },
        {
          "internalType": "address",
          "name": "to",
          "type": "address"
        },
        {
          "internalType": "uint256",
          "name": "tokenId",
          "type": "uint256"
        },
        {
          "internalType": "bytes",
          "name": "data",
          "type": "bytes"
        }
      ],
      "name": "safeTransferFrom",
      "outputs": [],
      "stateMutability": "nonpayable",
      "type": "function"
    },
    {
      "inputs": [
        {
          "internalType": "address",
          "name": "operator",
          "type": "address"
        },
        {
          "internalType": "bool",
          "name": "approved",
          "type": "bool"
        }
      ],
      "name": "setApprovalForAll",
      "outputs": [],
      "stateMutability": "nonpayable",
      "type": "function"
    },
    {
      "inputs": [
        {
          "internalType": "bytes4",
          "name": "interfaceId",
          "type": "bytes4"
        }
      ],
      "name": "supportsInterface",
      "outputs": [
        {
          "internalType": "bool",
          "name": "",
          "type": "bool"
        }
      ],
      "stateMutability": "view",
      "type": "function"
    },
    {
      "inputs": [],
      "name": "symbol",
      "outputs": [
        {
          "internalType": "string",
          "name": "",
          "type": "string"
        }
      ],
      "stateMutability": "view",
      "type": "function"
    },
    {
      "inputs": [
        {
          "internalType": "uint256",
          "name": "_tokenId",
          "type": "uint256"
        }
      ],
      "name": "tokenExists",
      "outputs": [
        {
          "internalType": "bool",
          "name": "",
          "type": "bool"
        }
      ],
      "stateMutability": "view",
      "type": "function"
    },
    {
      "inputs": [
        {
          "internalType": "uint256",
          "name": "tokenId",
          "type": "uint256"
        }
      ],
      "name": "tokenURI",
      "outputs": [
        {
          "internalType": "string",
          "name": "",
          "type": "string"
        }
      ],
      "stateMutability": "view",
      "type": "function"
    },
    {
      "inputs": [
        {
          "internalType": "address",
          "name": "from",
          "type": "address"
        },
        {
          "internalType": "address",
          "name": "to",
          "type": "address"
        },
        {
          "internalType": "uint256",
          "name": "tokenId",
          "type": "uint256"
        }
      ],
      "name": "transferFrom",
      "outputs": [],
      "stateMutability": "nonpayable",
      "type": "function"
    },
    {
      "inputs": [
        {
          "internalType": "uint256",
          "name": "_tokenId",
          "type": "uint256"
        },
        {
          "internalType": "enum MedicineNFT.Status",
          "name": "_newStatus",
          "type": "uint8"
        }
      ],
      "name": "updateStatus",
      "outputs": [],
      "stateMutability": "nonpayable",
      "type": "function"
    },
    {
      "inputs": [
        {
          "internalType": "string",
          "name": "_ipfsHash",
          "type": "string"
        }
      ],
      "name": "verifyMedicineByQR",
      "outputs": [
        {
          "internalType": "bool",
          "name": "",
          "type": "bool"
        }
      ],
      "stateMutability": "view",
      "type": "function"
    }
  ],
  "bytecode": "0x60806040523480156200001157600080fd5b506040518060400160405280600b81526020017f4d65646963696e654e46540000000000000000000000000000000000000000008152506040518060400160405280600681526020017f4d45444e4654000000000000000000000000000000000000000000000000000081525081600090816200008f919062000365565b508060019081620000a1919062000365565b50505033600b60006101000a81548173ffffffffffffffffffffffffffffffffffffffff021916908373ffffffffffffffffffffffffffffffffffffffff1602179055506200044c565b600081519050919050565b7f4e487b7100000000000000000000000000000000000000000000000000000000600052604160045260246000fd5b7f4e487b7100000000000000000000000000000000000000000000000000000000600052602260045260246000fd5b600060028204905060018216806200016d57607f821691505b60208210810362000183576200018262000125565b5b50919050565b60008190508160005260206000209050919050565b60006020601f8301049050919050565b600082821b905092915050565b600060088302620001ed7fffffffffffffffffffffffffffffffffffffffffffffffffffffffffffffffff82620001ae565b620001f98683620001ae565b95508019841693508086168417925050509392505050565b6000819050919050565b6000819050919050565b600062000246620002406200023a8462000211565b6200021b565b62000211565b9050919050565b6000819050919050565b620002628362000225565b6200027a62000271826200024d565b848454620001bb565b825550505050565b600090565b6200029162000282565b6200029e81848462000257565b505050565b5b81811015620002c657620002ba60008262000287565b600181019050620002a4565b5050565b601f8211156200031557620002df8162000189565b620002ea846200019e565b81016020851015620002fa578190505b6200031262000309856200019e565b830182620002a3565b50505b505050565b600082821c905092915050565b60006200033a600019846008026200031a565b1980831691505092915050565b600062000355838362000327565b9150826002028217905092915050565b6200037082620000eb565b67ffffffffffffffff8111156200038c576200038b620000f6565b5b62000398825462000154565b620003a5828285620002ca565b600060209050601f831160018114620003dd5760008415620003c8578287015190505b620003d4858262000347565b86555062000444565b601f198416620003ed8662000189565b60005b828110156200041757848901518255600182019150602085019450602081019050620003f0565b8683101562000437578489015162000433601f89168262000327565b8355505b6001600288020188555050505b505050505050565b6137cf806200045c6000396000f3fe608060405234801561001057600080fd5b50600436106101725760003560e01c806369294bd1116100de578063a22cb46511610097578063c85e766d11610071578063c85e766d14610481578063c87b56dd146104b5578063e985e9c5146104e5578063f851a4401461051557610172565b8063a22cb46514610419578063a9c5843414610435578063b88d4fde1461046557610172565b806369294bd11461033157806370a08231146103615780637d4ba4831461039157806388b707fb146103af5780638f283970146103df57806395d89b41146103fb57610172565b80631b5b085d116101305780631b5b085d1461025f57806323b872dd1461028f5780633a1b3d31146102ab57806342842e0e146102c75780635a01fee0146102e35780636352211e1461030157610172565b8062923f9e1461017757806301ffc9a7146101a757806306fdde03146101d7578063081812fc146101f5578063095ea7b3146102255780630f117e3e14610241575b600080fd5b610191600480360381019061018c91906126b9565b610533565b60405161019e9190612701565b60405180910390f35b6101c160048036038101906101bc9190612774565b6105ef565b6040516101ce9190612701565b60405180910390f35b6101df610601565b6040516101ec9190612831565b60405180910390f35b61020f600480360381019061020a91906126b9565b610693565b60405161021c9190612894565b60405180910390f35b61023f600480360381019061023a91906128db565b6106af565b005b6102496106c5565b60405161025691906129d9565b60405180910390f35b61027960048036038101906102749190612b30565b6106d6565b6040516102869190612bb7565b60405180910390f35b6102a960048036038101906102a49190612bd2565b610902565b005b6102c560048036038101906102c09190612c4a565b610a04565b005b6102e160048036038101906102dc9190612bd2565b610b56565b005b6102eb610b76565b6040516102f891906129d9565b60405180910390f35b61031b600480360381019061031691906126b9565b610b87565b6040516103289190612894565b60405180910390f35b61034b60048036038101906103469190612c8a565b610b99565b6040516103589190612701565b60405180910390f35b61037b60048036038101906103769190612cd3565b610c56565b6040516103889190612bb7565b60405180910390f35b610399610d10565b6040516103a691906129d9565b60405180910390f35b6103c960048036038101906103c49190612d00565b610d21565b6040516103d691906129d9565b60405180910390f35b6103f960048036038101906103f49190612cd3565b610f39565b005b6104036110f8565b6040516104109190612831565b60405180910390f35b610433600480360381019061042e9190612d6c565b61118a565b005b61044f600480360381019061044a9190612cd3565b6111a0565b60405161045c91906129d9565b60405180910390f35b61047f600480360381019061047a9190612e4d565b611237565b005b61049b600480360381019061049691906126b9565b61125c565b6040516104ac959493929190612f47565b60405180910390f35b6104cf60048036038101906104ca91906126b9565b6113cf565b6040516104dc9190612831565b60405180910390f35b6104ff60048036038101906104fa9190612fa8565b6113e1565b60405161050c9190612701565b60405180910390f35b61051d611475565b60405161052a9190612894565b60405180910390f35b60003073ffffffffffffffffffffffffffffffffffffffff16636352211e836040518263ffffffff1660e01b815260040161056e9190612bb7565b602060405180830381865afa9250505080156105a857506040513d601f19601f820116820180604052508101906105a59190612ffd565b60015b6105b557600090506105ea565b600073ffffffffffffffffffffffffffffffffffffffff168173ffffffffffffffffffffffffffffffffffffffff1614159150505b919050565b60006105fa8261149b565b9050919050565b60606000805461061090613059565b80601f016020809104026020016040519081016040528092919081815260200182805461063c90613059565b80156106895780601f1061065e57610100808354040283529160200191610689565b820191906000526020600020905b81548152906001019060200180831161066c57829003601f168201915b5050505050905090565b600061069e826114fc565b506106a882611584565b9050919050565b6106c182826106bc6115c1565b6115c9565b5050565b60606106d160026115db565b905090565b6000600760008154809291906106eb906130b9565b9190505550600060075490506107013382611759565b61070b8184611852565b6040518060a00160405280828152602001600060028111156107305761072f612ed0565b5b81526020018581526020013373ffffffffffffffffffffffffffffffffffffffff16815260200184815250600860008381526020019081526020016000206000820151816000015560208201518160010160006101000a81548160ff021916908360028111156107a3576107a2612ed0565b5b021790555060408201518160020190816107bd91906132ad565b5060608201518160030160006101000a81548173ffffffffffffffffffffffffffffffffffffffff021916908373ffffffffffffffffffffffffffffffffffffffff160217905550608082015181600401908161081a91906132ad565b5090505080600a8460405161082f91906133bb565b908152602001604051809103902081905550600960003373ffffffffffffffffffffffffffffffffffffffff1673ffffffffffffffffffffffffffffffffffffffff1681526020019081526020016000208190806001815401808255809150506001900390600052602060002001600090919091909150553373ffffffffffffffffffffffffffffffffffffffff16817f5cc58fcf233a683ca30a98579036fc4bd6de2807a3e0bbaa38a7b9af39498a5a86866040516108f09291906133d2565b60405180910390a38091505092915050565b600073ffffffffffffffffffffffffffffffffffffffff168273ffffffffffffffffffffffffffffffffffffffff16036109745760006040517f64a0ae9200000000000000000000000000000000000000000000000000000000815260040161096b9190612894565b60405180910390fd5b600061098883836109836115c1565b6118ae565b90508373ffffffffffffffffffffffffffffffffffffffff168173ffffffffffffffffffffffffffffffffffffffff16146109fe578382826040517f64283d7b0000000000000000000000000000000000000000000000000000000081526004016109f593929190613409565b60405180910390fd5b50505050565b600b60009054906101000a900473ffffffffffffffffffffffffffffffffffffffff1673ffffffffffffffffffffffffffffffffffffffff163373ffffffffffffffffffffffffffffffffffffffff1614610a94576040517f08c379a0000000000000000000000000000000000000000000000000000000008152600401610a8b9061348c565b60405180910390fd5b610a9d82610533565b610adc576040517f08c379a0000000000000000000000000000000000000000000000000000000008152600401610ad3906134f8565b60405180910390fd5b806008600084815260200190815260200160002060010160006101000a81548160ff02191690836002811115610b1557610b14612ed0565b5b0217905550817f2da7b23ca63c1eb969eee5fae4acb98186abecf5358b0354a82a5183ebca6b2a82604051610b4a9190613518565b60405180910390a25050565b610b7183838360405180602001604052806000815250611237565b505050565b6060610b8260016115db565b905090565b6000610b92826114fc565b9050919050565b600080825103610bac5760009050610c51565b6000600a83604051610bbe91906133bb565b90815260200160405180910390205490506000811480610bf4575080600860008381526020019081526020016000206000015414155b15610c03576000915050610c51565b600280811115610c1657610c15612ed0565b5b6008600083815260200190815260200160002060010160009054906101000a900460ff166002811115610c4c57610c4b612ed0565b5b149150505b919050565b60008073ffffffffffffffffffffffffffffffffffffffff168273ffffffffffffffffffffffffffffffffffffffff1603610cc95760006040517f89c62b64000000000000000000000000000000000000000000000000000000008152600401610cc09190612894565b60405180910390fd5b600360008373ffffffffffffffffffffffffffffffffffffffff1673ffffffffffffffffffffffffffffffffffffffff168152602001908152602001600020549050919050565b6060610d1c60006115db565b905090565b60606000600960008573ffffffffffffffffffffffffffffffffffffffff1673ffffffffffffffffffffffffffffffffffffffff16815260200190815260200160002090506000805b8280549050811015610e0357846002811115610d8957610d88612ed0565b5b60086000858481548110610da057610d9f613533565b5b9060005260206000200154815260200190815260200160002060010160009054906101000a900460ff166002811115610ddc57610ddb612ed0565b5b03610df0578180610dec906130b9565b9250505b8080610dfb906130b9565b915050610d6a565b5060008167ffffffffffffffff811115610e2057610e1f612a05565b5b604051908082528060200260200182016040528015610e4e5781602001602082028036833780820191505090505b5090506000805b8480549050811015610f2b57866002811115610e7457610e73612ed0565b5b60086000878481548110610e8b57610e8a613533565b5b9060005260206000200154815260200190815260200160002060010160009054906101000a900460ff166002811115610ec757610ec6612ed0565b5b03610f1857848181548110610edf57610ede613533565b5b9060005260206000200154838381518110610efd57610efc613533565b5b6020026020010181815250508180610f14906130b9565b9250505b8080610f23906130b9565b915050610e55565b508194505050505092915050565b600b60009054906101000a900473ffffffffffffffffffffffffffffffffffffffff1673ffffffffffffffffffffffffffffffffffffffff163373ffffffffffffffffffffffffffffffffffffffff1614610fc9576040517f08c379a0000000000000000000000000000000000000000000000000000000008152600401610fc0906135ae565b60405180910390fd5b600073ffffffffffffffffffffffffffffffffffffffff168173ffffffffffffffffffffffffffffffffffffffff1603611038576040517f08c379a000000000000000000000000000000000000000000000000000000000815260040161102f9061361a565b60405180910390fd5b8073ffffffffffffffffffffffffffffffffffffffff16600b60009054906101000a900473ffffffffffffffffffffffffffffffffffffffff1673ffffffffffffffffffffffffffffffffffffffff167f7e644d79422f17c01e4894b5f4f588d331ebfa28653d42ae832dc59e38c9798f60405160405180910390a380600b60006101000a81548173ffffffffffffffffffffffffffffffffffffffff021916908373ffffffffffffffffffffffffffffffffffffffff16021790555050565b60606001805461110790613059565b80601f016020809104026020016040519081016040528092919081815260200182805461113390613059565b80156111805780601f1061115557610100808354040283529160200191611180565b820191906000526020600020905b81548152906001019060200180831161116357829003601f168201915b5050505050905090565b61119c6111956115c1565b8383611ac8565b5050565b6060600960008373ffffffffffffffffffffffffffffffffffffffff1673ffffffffffffffffffffffffffffffffffffffff16815260200190815260200160002080548060200260200160405190810160405280929190818152602001828054801561122b57602002820191906000526020600020905b815481526020019060010190808311611217575b50505050509050919050565b611242848484610902565b61125661124d6115c1565b85858585611c37565b50505050565b60086020528060005260406000206000915090508060000154908060010160009054906101000a900460ff169080600201805461129890613059565b80601f01602080910402602001604051908101604052809291908181526020018280546112c490613059565b80156113115780601f106112e657610100808354040283529160200191611311565b820191906000526020600020905b8154815290600101906020018083116112f457829003601f168201915b5050505050908060030160009054906101000a900473ffffffffffffffffffffffffffffffffffffffff169080600401805461134c90613059565b80601f016020809104026020016040519081016040528092919081815260200182805461137890613059565b80156113c55780601f1061139a576101008083540402835291602001916113c5565b820191906000526020600020905b8154815290600101906020018083116113a857829003601f168201915b5050505050905085565b60606113da82611de8565b9050919050565b6000600560008473ffffffffffffffffffffffffffffffffffffffff1673ffffffffffffffffffffffffffffffffffffffff16815260200190815260200160002060008373ffffffffffffffffffffffffffffffffffffffff1673ffffffffffffffffffffffffffffffffffffffff16815260200190815260200160002060009054906101000a900460ff16905092915050565b600b60009054906101000a900473ffffffffffffffffffffffffffffffffffffffff1681565b6000634906490660e01b7bffffffffffffffffffffffffffffffffffffffffffffffffffffffff1916827bffffffffffffffffffffffffffffffffffffffffffffffffffffffff191614806114f557506114f482611efb565b5b9050919050565b60008061150883611fdd565b9050600073ffffffffffffffffffffffffffffffffffffffff168173ffffffffffffffffffffffffffffffffffffffff160361157b57826040517f7e2732890000000000000000000000000000000000000000000000000000000081526004016115729190612bb7565b60405180910390fd5b80915050919050565b60006004600083815260200190815260200160002060009054906101000a900473ffffffffffffffffffffffffffffffffffffffff169050919050565b600033905090565b6115d6838383600161201a565b505050565b6060600080600190505b600754811161165e5783600281111561160157611600612ed0565b5b6008600083815260200190815260200160002060010160009054906101000a900460ff16600281111561163757611636612ed0565b5b0361164b578180611647906130b9565b9250505b8080611656906130b9565b9150506115e5565b5060008167ffffffffffffffff81111561167b5761167a612a05565b5b6040519080825280602002602001820160405280156116a95781602001602082028036833780820191505090505b509050600080600190505b600754811161174d578560028111156116d0576116cf612ed0565b5b6008600083815260200190815260200160002060010160009054906101000a900460ff16600281111561170657611705612ed0565b5b0361173a578083838151811061171f5761171e613533565b5b6020026020010181815250508180611736906130b9565b9250505b8080611745906130b9565b9150506116b4565b50819350505050919050565b600073ffffffffffffffffffffffffffffffffffffffff168273ffffffffffffffffffffffffffffffffffffffff16036117cb5760006040517f64a0ae920000000000000000000000000000000000000000000000000000000081526004016117c29190612894565b60405180910390fd5b60006117d9838360006118ae565b9050600073ffffffffffffffffffffffffffffffffffffffff168173ffffffffffffffffffffffffffffffffffffffff161461184d5760006040517f73c6ac6e0000000000000000000000000000000000000000000000000000000081526004016118449190612894565b60405180910390fd5b505050565b8060066000848152602001908152602001600020908161187291906132ad565b507ff8e1a15aba9398e019f0b49df1a4fde98ee17ae345cb5f6b5e2c27f5033e8ce7826040516118a29190612bb7565b60405180910390a15050565b6000806118ba84611fdd565b9050600073ffffffffffffffffffffffffffffffffffffffff168373ffffffffffffffffffffffffffffffffffffffff16146118fc576118fb8184866121df565b5b600073ffffffffffffffffffffffffffffffffffffffff168173ffffffffffffffffffffffffffffffffffffffff161461198d5761193e60008560008061201a565b6001600360008373ffffffffffffffffffffffffffffffffffffffff1673ffffffffffffffffffffffffffffffffffffffff168152602001908152602001600020600082825403925050819055505b600073ffffffffffffffffffffffffffffffffffffffff168573ffffffffffffffffffffffffffffffffffffffff1614611a10576001600360008773ffffffffffffffffffffffffffffffffffffffff1673ffffffffffffffffffffffffffffffffffffffff168152602001908152602001600020600082825401925050819055505b846002600086815260200190815260200160002060006101000a81548173ffffffffffffffffffffffffffffffffffffffff021916908373ffffffffffffffffffffffffffffffffffffffff160217905550838573ffffffffffffffffffffffffffffffffffffffff168273ffffffffffffffffffffffffffffffffffffffff167fddf252ad1be2c89b69c2b068fc378daa952ba7f163c4a11628f55a4df523b3ef60405160405180910390a4809150509392505050565b600073ffffffffffffffffffffffffffffffffffffffff168273ffffffffffffffffffffffffffffffffffffffff1603611b3957816040517f5b08ba18000000000000000000000000000000000000000000000000000000008152600401611b309190612894565b60405180910390fd5b80600560008573ffffffffffffffffffffffffffffffffffffffff1673ffffffffffffffffffffffffffffffffffffffff16815260200190815260200160002060008473ffffffffffffffffffffffffffffffffffffffff1673ffffffffffffffffffffffffffffffffffffffff16815260200190815260200160002060006101000a81548160ff0219169083151502179055508173ffffffffffffffffffffffffffffffffffffffff168373ffffffffffffffffffffffffffffffffffffffff167f17307eab39ab6107e8899845ad3d59bd9653f200f220920489ca2b5937696c3183604051611c2a9190612701565b60405180910390a3505050565b60008373ffffffffffffffffffffffffffffffffffffffff163b1115611de1578273ffffffffffffffffffffffffffffffffffffffff1663150b7a02868685856040518563ffffffff1660e01b8152600401611c96949392919061368f565b6020604051808303816000875af1925050508015611cd257506040513d601f19601f82011682018060405250810190611ccf91906136f0565b60015b611d56573d8060008114611d02576040519150601f19603f3d011682016040523d82523d6000602084013e611d07565b606091505b506000815103611d4e57836040517f64a0ae92000000000000000000000000000000000000000000000000000000008152600401611d459190612894565b60405180910390fd5b805181602001fd5b63150b7a0260e01b7bffffffffffffffffffffffffffffffffffffffffffffffffffffffff1916817bffffffffffffffffffffffffffffffffffffffffffffffffffffffff191614611ddf57836040517f64a0ae92000000000000000000000000000000000000000000000000000000008152600401611dd69190612894565b60405180910390fd5b505b5050505050565b6060611df3826114fc565b506000600660008481526020019081526020016000208054611e1490613059565b80601f0160208091040260200160405190810160405280929190818152602001828054611e4090613059565b8015611e8d5780601f10611e6257610100808354040283529160200191611e8d565b820191906000526020600020905b815481529060010190602001808311611e7057829003601f168201915b505050505090506000611e9e6122a3565b90506000815103611eb3578192505050611ef6565b600082511115611ee8578082604051602001611ed092919061371d565b60405160208183030381529060405292505050611ef6565b611ef1846122ba565b925050505b919050565b60007f80ac58cd000000000000000000000000000000000000000000000000000000007bffffffffffffffffffffffffffffffffffffffffffffffffffffffff1916827bffffffffffffffffffffffffffffffffffffffffffffffffffffffff19161480611fc657507f5b5e139f000000000000000000000000000000000000000000000000000000007bffffffffffffffffffffffffffffffffffffffffffffffffffffffff1916827bffffffffffffffffffffffffffffffffffffffffffffffffffffffff1916145b80611fd65750611fd582612323565b5b9050919050565b60006002600083815260200190815260200160002060009054906101000a900473ffffffffffffffffffffffffffffffffffffffff169050919050565b80806120535750600073ffffffffffffffffffffffffffffffffffffffff168273ffffffffffffffffffffffffffffffffffffffff1614155b15612187576000612063846114fc565b9050600073ffffffffffffffffffffffffffffffffffffffff168373ffffffffffffffffffffffffffffffffffffffff16141580156120ce57508273ffffffffffffffffffffffffffffffffffffffff168173ffffffffffffffffffffffffffffffffffffffff1614155b80156120e157506120df81846113e1565b155b1561212357826040517fa9fbf51f00000000000000000000000000000000000000000000000000000000815260040161211a9190612894565b60405180910390fd5b811561218557838573ffffffffffffffffffffffffffffffffffffffff168273ffffffffffffffffffffffffffffffffffffffff167f8c5be1e5ebec7d5bd14f71427d1e84f3dd0314c0f7b2291e5b200ac8c7c3b92560405160405180910390a45b505b836004600085815260200190815260200160002060006101000a81548173ffffffffffffffffffffffffffffffffffffffff021916908373ffffffffffffffffffffffffffffffffffffffff16021790555050505050565b6121ea83838361238d565b61229e57600073ffffffffffffffffffffffffffffffffffffffff168373ffffffffffffffffffffffffffffffffffffffff160361225f57806040517f7e2732890000000000000000000000000000000000000000000000000000000081526004016122569190612bb7565b60405180910390fd5b81816040517f177e802f000000000000000000000000000000000000000000000000000000008152600401612295929190613741565b60405180910390fd5b505050565b606060405180602001604052806000815250905090565b60606122c5826114fc565b5060006122d06122a3565b905060008151116122f0576040518060200160405280600081525061231b565b806122fa8461244e565b60405160200161230b92919061371d565b6040516020818303038152906040525b915050919050565b60007f01ffc9a7000000000000000000000000000000000000000000000000000000007bffffffffffffffffffffffffffffffffffffffffffffffffffffffff1916827bffffffffffffffffffffffffffffffffffffffffffffffffffffffff1916149050919050565b60008073ffffffffffffffffffffffffffffffffffffffff168373ffffffffffffffffffffffffffffffffffffffff161415801561244557508273ffffffffffffffffffffffffffffffffffffffff168473ffffffffffffffffffffffffffffffffffffffff161480612406575061240584846113e1565b5b8061244457508273ffffffffffffffffffffffffffffffffffffffff1661242c83611584565b73ffffffffffffffffffffffffffffffffffffffff16145b5b90509392505050565b60606000600161245d8461251c565b01905060008167ffffffffffffffff81111561247c5761247b612a05565b5b6040519080825280601f01601f1916602001820160405280156124ae5781602001600182028036833780820191505090505b509050600082602001820190505b600115612511578080600190039150507f3031323334353637383961626364656600000000000000000000000000000000600a86061a8153600a85816125055761250461376a565b5b049450600085036124bc575b819350505050919050565b600080600090507a184f03e93ff9f4daa797ed6e38ed64bf6a1f010000000000000000831061257a577a184f03e93ff9f4daa797ed6e38ed64bf6a1f01000000000000000083816125705761256f61376a565b5b0492506040810190505b6d04ee2d6d415b85acef810000000083106125b7576d04ee2d6d415b85acef810000000083816125ad576125ac61376a565b5b0492506020810190505b662386f26fc1000083106125e657662386f26fc1000083816125dc576125db61376a565b5b0492506010810190505b6305f5e100831061260f576305f5e10083816126055761260461376a565b5b0492506008810190505b612710831061263457612710838161262a5761262961376a565b5b0492506004810190505b60648310612657576064838161264d5761264c61376a565b5b0492506002810190505b600a8310612666576001810190505b80915050919050565b6000604051905090565b600080fd5b600080fd5b6000819050919050565b61269681612683565b81146126a157600080fd5b50565b6000813590506126b38161268d565b92915050565b6000602082840312156126cf576126ce612679565b5b60006126dd848285016126a4565b91505092915050565b60008115159050919050565b6126fb816126e6565b82525050565b600060208201905061271660008301846126f2565b92915050565b60007fffffffff0000000000000000000000000000000000000000000000000000000082169050919050565b6127518161271c565b811461275c57600080fd5b50565b60008135905061276e81612748565b92915050565b60006020828403121561278a57612789612679565b5b60006127988482850161275f565b91505092915050565b600081519050919050565b600082825260208201905092915050565b60005b838110156127db5780820151818401526020810190506127c0565b60008484015250505050565b6000601f19601f8301169050919050565b6000612803826127a1565b61280d81856127ac565b935061281d8185602086016127bd565b612826816127e7565b840191505092915050565b6000602082019050818103600083015261284b81846127f8565b905092915050565b600073ffffffffffffffffffffffffffffffffffffffff82169050919050565b600061287e82612853565b9050919050565b61288e81612873565b82525050565b60006020820190506128a96000830184612885565b92915050565b6128b881612873565b81146128c357600080fd5b50565b6000813590506128d5816128af565b92915050565b600080604083850312156128f2576128f1612679565b5b6000612900858286016128c6565b9250506020612911858286016126a4565b9150509250929050565b600081519050919050565b600082825260208201905092915050565b6000819050602082019050919050565b61295081612683565b82525050565b60006129628383612947565b60208301905092915050565b6000602082019050919050565b60006129868261291b565b6129908185612926565b935061299b83612937565b8060005b838110156129cc5781516129b38882612956565b97506129be8361296e565b92505060018101905061299f565b5085935050505092915050565b600060208201905081810360008301526129f3818461297b565b905092915050565b600080fd5b600080fd5b7f4e487b7100000000000000000000000000000000000000000000000000000000600052604160045260246000fd5b612a3d826127e7565b810181811067ffffffffffffffff82111715612a5c57612a5b612a05565b5b80604052505050565b6000612a6f61266f565b9050612a7b8282612a34565b919050565b600067ffffffffffffffff821115612a9b57612a9a612a05565b5b612aa4826127e7565b9050602081019050919050565b82818337600083830152505050565b6000612ad3612ace84612a80565b612a65565b905082815260208101848484011115612aef57612aee612a00565b5b612afa848285612ab1565b509392505050565b600082601f830112612b1757612b166129fb565b5b8135612b27848260208601612ac0565b91505092915050565b60008060408385031215612b4757612b46612679565b5b600083013567ffffffffffffffff811115612b6557612b6461267e565b5b612b7185828601612b02565b925050602083013567ffffffffffffffff811115612b9257612b9161267e565b5b612b9e85828601612b02565b9150509250929050565b612bb181612683565b82525050565b6000602082019050612bcc6000830184612ba8565b92915050565b600080600060608486031215612beb57612bea612679565b5b6000612bf9868287016128c6565b9350506020612c0a868287016128c6565b9250506040612c1b868287016126a4565b9150509250925092565b60038110612c3257600080fd5b50565b600081359050612c4481612c25565b92915050565b60008060408385031215612c6157612c60612679565b5b6000612c6f858286016126a4565b9250506020612c8085828601612c35565b9150509250929050565b600060208284031215612ca057612c9f612679565b5b600082013567ffffffffffffffff811115612cbe57612cbd61267e565b5b612cca84828501612b02565b91505092915050565b600060208284031215612ce957612ce8612679565b5b6000612cf7848285016128c6565b91505092915050565b60008060408385031215612d1757612d16612679565b5b6000612d25858286016128c6565b9250506020612d3685828601612c35565b9150509250929050565b612d49816126e6565b8114612d5457600080fd5b50565b600081359050612d6681612d40565b92915050565b60008060408385031215612d8357612d82612679565b5b6000612d91858286016128c6565b9250506020612da285828601612d57565b9150509250929050565b600067ffffffffffffffff821115612dc757612dc6612a05565b5b612dd0826127e7565b9050602081019050919050565b6000612df0612deb84612dac565b612a65565b905082815260208101848484011115612e0c57612e0b612a00565b5b612e17848285612ab1565b509392505050565b600082601f830112612e3457612e336129fb565b5b8135612e44848260208601612ddd565b91505092915050565b60008060008060808587031215612e6757612e66612679565b5b6000612e75878288016128c6565b9450506020612e86878288016128c6565b9350506040612e97878288016126a4565b925050606085013567ffffffffffffffff811115612eb857612eb761267e565b5b612ec487828801612e1f565b91505092959194509250565b7f4e487b7100000000000000000000000000000000000000000000000000000000600052602160045260246000fd5b60038110612f1057612f0f612ed0565b5b50565b6000819050612f2182612eff565b919050565b6000612f3182612f13565b9050919050565b612f4181612f26565b82525050565b600060a082019050612f5c6000830188612ba8565b612f696020830187612f38565b8181036040830152612f7b81866127f8565b9050612f8a6060830185612885565b8181036080830152612f9c81846127f8565b90509695505050505050565b60008060408385031215612fbf57612fbe612679565b5b6000612fcd858286016128c6565b9250506020612fde858286016128c6565b9150509250929050565b600081519050612ff7816128af565b92915050565b60006020828403121561301357613012612679565b5b600061302184828501612fe8565b91505092915050565b7f4e487b7100000000000000000000000000000000000000000000000000000000600052602260045260246000fd5b6000600282049050600182168061307157607f821691505b6020821081036130845761308361302a565b5b50919050565b7f4e487b7100000000000000000000000000000000000000000000000000000000600052601160045260246000fd5b60006130c482612683565b91507fffffffffffffffffffffffffffffffffffffffffffffffffffffffffffffffff82036130f6576130f561308a565b5b600182019050919050565b60008190508160005260206000209050919050565b60006020601f8301049050919050565b600082821b905092915050565b6000600883026131637fffffffffffffffffffffffffffffffffffffffffffffffffffffffffffffffff82613126565b61316d8683613126565b95508019841693508086168417925050509392505050565b6000819050919050565b60006131aa6131a56131a084612683565b613185565b612683565b9050919050565b6000819050919050565b6131c48361318f565b6131d86131d0826131b1565b848454613133565b825550505050565b600090565b6131ed6131e0565b6131f88184846131bb565b505050565b5b8181101561321c576132116000826131e5565b6001810190506131fe565b5050565b601f8211156132615761323281613101565b61323b84613116565b8101602085101561324a578190505b61325e61325685613116565b8301826131fd565b50505b505050565b600082821c905092915050565b600061328460001984600802613266565b1980831691505092915050565b600061329d8383613273565b9150826002028217905092915050565b6132b6826127a1565b67ffffffffffffffff8111156132cf576132ce612a05565b5b6132d98254613059565b6132e4828285613220565b600060209050601f8311600181146133175760008415613305578287015190505b61330f8582613291565b865550613377565b601f19841661332586613101565b60005b8281101561334d57848901518255600182019150602085019450602081019050613328565b8683101561336a5784890151613366601f891682613273565b8355505b6001600288020188555050505b505050505050565b600081905092915050565b6000613395826127a1565b61339f818561337f565b93506133af8185602086016127bd565b80840191505092915050565b60006133c7828461338a565b915081905092915050565b600060408201905081810360008301526133ec81856127f8565b9050818103602083015261340081846127f8565b90509392505050565b600060608201905061341e6000830186612885565b61342b6020830185612ba8565b6134386040830184612885565b949350505050565b7f4f6e6c792061646d696e2063616e207570646174652073746174757300000000600082015250565b6000613476601c836127ac565b915061348182613440565b602082019050919050565b600060208201905081810360008301526134a581613469565b9050919050565b7f546f6b656e20646f6573206e6f74206578697374000000000000000000000000600082015250565b60006134e26014836127ac565b91506134ed826134ac565b602082019050919050565b60006020820190508181036000830152613511816134d5565b9050919050565b600060208201905061352d6000830184612f38565b92915050565b7f4e487b7100000000000000000000000000000000000000000000000000000000600052603260045260246000fd5b7f4f6e6c792061646d696e2063616e206368616e67652061646d696e0000000000600082015250565b6000613598601b836127ac565b91506135a382613562565b602082019050919050565b600060208201905081810360008301526135c78161358b565b9050919050565b7f4e65772061646d696e2063616e6e6f74206265207a65726f2061646472657373600082015250565b60006136046020836127ac565b915061360f826135ce565b602082019050919050565b60006020820190508181036000830152613633816135f7565b9050919050565b600081519050919050565b600082825260208201905092915050565b60006136618261363a565b61366b8185613645565b935061367b8185602086016127bd565b613684816127e7565b840191505092915050565b60006080820190506136a46000830187612885565b6136b16020830186612885565b6136be6040830185612ba8565b81810360608301526136d08184613656565b905095945050505050565b6000815190506136ea81612748565b92915050565b60006020828403121561370657613705612679565b5b6000613714848285016136db565b91505092915050565b6000613729828561338a565b9150613735828461338a565b91508190509392505050565b60006040820190506137566000830185612885565b6137636020830184612ba8565b9392505050565b7f4e487b7100000000000000000000000000000000000000000000000000000000600052601260045260246000fdfea26469706673582212201cc715248e5aa6762ea9cbbd2de8b1668d0c408f96f839319fa3ad19e42a59aa64736f6c63430008140033",
  "linkReferences": {},
  "deployedLinkReferences": {}
}