{
  "_format": "hh-sol-artifact-1",
  "contractName": "MedicineNFT",
  "sourceName": "blockchain/contracts/medicine.sol",
  "abi": [
    {
      "inputs": [],
      "stateMutability": "nonpayable",
      "type": "constructor"
    },
    {
      "inputs": [
        {
          "internalType": "address",
          "name": "sender",
          "type": "address"
        },
        {
          "internalType": "uint256",
          "name": "tokenId",
          "type": "uint256"
        },
        {
          "internalType": "address",
          "name": "owner",
          "type": "address"
        }
      ],
      "name": "ERC721IncorrectOwner",
      "type": "error"
    },
    {
      "inputs": [
        {
          "internalType": "address",
          "name": "operator",
          "type": "address"
        },
        {
          "internalType": "uint256",
          "name": "tokenId",
          "type": "uint256"
        }
      ],
      "name": "ERC721InsufficientApproval",
      "type": "error"
    },
    {
      "inputs": [
        {
          "internalType": "address",
          "name": "approver",
          "type": "address"
        }
      ],
      "name": "ERC721InvalidApprover",
      "type": "error"
    },
    {
      "inputs": [
        {
          "internalType": "address",
          "name": "operator",
          "type": "address"
        }
      ],
      "name": "ERC721InvalidOperator",
      "type": "error"
    },
    {
      "inputs": [
        {
          "internalType": "address",
          "name": "owner",
          "type": "address"
        }
      ],
      "name": "ERC721InvalidOwner",
      "type": "error"
    },
    {
      "inputs": [
        {
          "internalType": "address",
          "name": "receiver",
          "type": "address"
        }
      ],
      "name": "ERC721InvalidReceiver",
      "type": "error"
    },
    {
      "inputs": [
        {
          "internalType": "address",
          "name": "sender",
          "type": "address"
        }
      ],
      "name": "ERC721InvalidSender",
      "type": "error"
    },
    {
      "inputs": [
        {
          "internalType": "uint256",
          "name": "tokenId",
          "type": "uint256"
        }
      ],
      "name": "ERC721NonexistentToken",
      "type": "error"
    },
    {
      "anonymous": false,
      "inputs": [
        {
          "indexed": true,
          "internalType": "address",
          "name": "owner",
          "type": "address"
        },
        {
          "indexed": true,
          "internalType": "address",
          "name": "approved",
          "type": "address"
        },
        {
          "indexed": true,
          "internalType": "uint256",
          "name": "tokenId",
          "type": "uint256"
        }
      ],
      "name": "Approval",
      "type": "event"
    },
    {
      "anonymous": false,
      "inputs": [
        {
          "indexed": true,
          "internalType": "address",
          "name": "owner",
          "type": "address"
        },
        {
          "indexed": true,
          "internalType": "address",
          "name": "operator",
          "type": "address"
        },
        {
          "indexed": false,
          "internalType": "bool",
          "name": "approved",
          "type": "bool"
        }
      ],
      "name": "ApprovalForAll",
      "type": "event"
    },
    {
      "anonymous": false,
      "inputs": [
        {
          "indexed": false,
          "internalType": "uint256",
          "name": "_fromTokenId",
          "type": "uint256"
        },
        {
          "indexed": false,
          "internalType": "uint256",
          "name": "_toTokenId",
          "type": "uint256"
        }
      ],
      "name": "BatchMetadataUpdate",
      "type": "event"
    },
    {
      "anonymous": false,
      "inputs": [
        {
          "indexed": true,
          "internalType": "address",
          "name": "wallet",
          "type": "address"
        },
        {
          "indexed": false,
          "internalType": "uint256",
          "name": "tokenId",
          "type": "uint256"
        },
        {
          "indexed": false,
          "internalType": "uint256",
          "name": "length",
          "type": "uint256"
        }
      ],
      "name": "DebugMedicinesByWallet",
      "type": "event"
    },
    {
      "anonymous": false,
      "inputs": [
        {
          "indexed": true,
          "internalType": "uint256",
          "name": "tokenId",
          "type": "uint256"
        },
        {
          "indexed": true,
          "internalType": "address",
          "name": "owner",
          "type": "address"
        },
        {
          "indexed": false,
          "internalType": "string",
          "name": "manufacturerId",
          "type": "string"
        },
        {
          "indexed": false,
          "internalType": "string",
          "name": "ipfsHash",
          "type": "string"
        }
      ],
      "name": "MedicineMinted",
      "type": "event"
    },
    {
      "anonymous": false,
      "inputs": [
        {
          "indexed": false,
          "internalType": "uint256",
          "name": "_tokenId",
          "type": "uint256"
        }
      ],
      "name": "MetadataUpdate",
      "type": "event"
    },
    {
      "anonymous": false,
      "inputs": [
        {
          "indexed": true,
          "internalType": "uint256",
          "name": "tokenId",
          "type": "uint256"
        },
        {
          "indexed": false,
          "internalType": "enum MedicineNFT.Status",
          "name": "newStatus",
          "type": "uint8"
        }
      ],
      "name": "StatusUpdated",
      "type": "event"
    },
    {
      "anonymous": false,
      "inputs": [
        {
          "indexed": true,
          "internalType": "address",
          "name": "from",
          "type": "address"
        },
        {
          "indexed": true,
          "internalType": "address",
          "name": "to",
          "type": "address"
        },
        {
          "indexed": true,
          "internalType": "uint256",
          "name": "tokenId",
          "type": "uint256"
        }
      ],
      "name": "Transfer",
      "type": "event"
    },
    {
      "inputs": [
        {
          "internalType": "address",
          "name": "to",
          "type": "address"
        },
        {
          "internalType": "uint256",
          "name": "tokenId",
          "type": "uint256"
        }
      ],
      "name": "approve",
      "outputs": [],
      "stateMutability": "nonpayable",
      "type": "function"
    },
    {
      "inputs": [
        {
          "internalType": "address",
          "name": "owner",
          "type": "address"
        }
      ],
      "name": "balanceOf",
      "outputs": [
        {
          "internalType": "uint256",
          "name": "",
          "type": "uint256"
        }
      ],
      "stateMutability": "view",
      "type": "function"
    },
    {
      "inputs": [
        {
          "internalType": "address",
          "name": "_wallet",
          "type": "address"
        }
      ],
      "name": "getAllMedicinesByManufacturer",
      "outputs": [
        {
          "internalType": "uint256[]",
          "name": "",
          "type": "uint256[]"
        },
        {
          "internalType": "enum MedicineNFT.Status[]",
          "name": "",
          "type": "uint8[]"
        }
      ],
      "stateMutability": "view",
      "type": "function"
    },
    {
      "inputs": [
        {
          "internalType": "uint256",
          "name": "tokenId",
          "type": "uint256"
        }
      ],
      "name": "getApproved",
      "outputs": [
        {
          "internalType": "address",
          "name": "",
          "type": "address"
        }
      ],
      "stateMutability": "view",
      "type": "function"
    },
    {
      "inputs": [],
      "name": "getApprovedMedicines",
      "outputs": [
        {
          "internalType": "uint256[]",
          "name": "",
          "type": "uint256[]"
        }
      ],
      "stateMutability": "view",
      "type": "function"
    },
    {
      "inputs": [],
      "name": "getPendingMedicines",
      "outputs": [
        {
          "internalType": "uint256[]",
          "name": "",
          "type": "uint256[]"
        }
      ],
      "stateMutability": "view",
      "type": "function"
    },
    {
      "inputs": [],
      "name": "getRejectedMedicines",
      "outputs": [
        {
          "internalType": "uint256[]",
          "name": "",
          "type": "uint256[]"
        }
      ],
      "stateMutability": "view",
      "type": "function"
    },
    {
      "inputs": [
        {
          "internalType": "address",
          "name": "owner",
          "type": "address"
        },
        {
          "internalType": "address",
          "name": "operator",
          "type": "address"
        }
      ],
      "name": "isApprovedForAll",
      "outputs": [
        {
          "internalType": "bool",
          "name": "",
          "type": "bool"
        }
      ],
      "stateMutability": "view",
      "type": "function"
    },
    {
      "inputs": [
        {
          "internalType": "uint256",
          "name": "",
          "type": "uint256"
        }
      ],
      "name": "medicines",
      "outputs": [
        {
          "internalType": "uint256",
          "name": "id",
          "type": "uint256"
        },
        {
          "internalType": "enum MedicineNFT.Status",
          "name": "status",
          "type": "uint8"
        },
        {
          "internalType": "string",
          "name": "manufacturerId",
          "type": "string"
        },
        {
          "internalType": "address",
          "name": "wallet",
          "type": "address"
        },
        {
          "internalType": "string",
          "name": "ipfsHash",
          "type": "string"
        }
      ],
      "stateMutability": "view",
      "type": "function"
    },
    {
      "inputs": [
        {
          "internalType": "string",
          "name": "_manufacturerId",
          "type": "string"
        },
        {
          "internalType": "string",
          "name": "_ipfsHash",
          "type": "string"
        }
      ],
      "name": "mintMedicine",
      "outputs": [
        {
          "internalType": "uint256",
          "name": "",
          "type": "uint256"
        }
      ],
      "stateMutability": "nonpayable",
      "type": "function"
    },
    {
      "inputs": [],
      "name": "name",
      "outputs": [
        {
          "internalType": "string",
          "name": "",
          "type": "string"
        }
      ],
      "stateMutability": "view",
      "type": "function"
    },
    {
      "inputs": [
        {
          "internalType": "uint256",
          "name": "tokenId",
          "type": "uint256"
        }
      ],
      "name": "ownerOf",
      "outputs": [
        {
          "internalType": "address",
          "name": "",
          "type": "address"
        }
      ],
      "stateMutability": "view",
      "type": "function"
    },
    {
      "inputs": [
        {
          "internalType": "address",
          "name": "from",
          "type": "address"
        },
        {
          "internalType": "address",
          "name": "to",
          "type": "address"
        },
        {
          "internalType": "uint256",
          "name": "tokenId",
          "type": "uint256"
        }
      ],
      "name": "safeTransferFrom",
      "outputs": [],
      "stateMutability": "nonpayable",
      "type": "function"
    },
    {
      "inputs": [
        {
          "internalType": "address",
          "name": "from",
          "type": "address"
        },
        {
          "internalType": "address",
          "name": "to",
          "type": "address"
        },
        {
          "internalType": "uint256",
          "name": "tokenId",
          "type": "uint256"
        },
        {
          "internalType": "bytes",
          "name": "data",
          "type": "bytes"
        }
      ],
      "name": "safeTransferFrom",
      "outputs": [],
      "stateMutability": "nonpayable",
      "type": "function"
    },
    {
      "inputs": [
        {
          "internalType": "address",
          "name": "operator",
          "type": "address"
        },
        {
          "internalType": "bool",
          "name": "approved",
          "type": "bool"
        }
      ],
      "name": "setApprovalForAll",
      "outputs": [],
      "stateMutability": "nonpayable",
      "type": "function"
    },
    {
      "inputs": [
        {
          "internalType": "bytes4",
          "name": "interfaceId",
          "type": "bytes4"
        }
      ],
      "name": "supportsInterface",
      "outputs": [
        {
          "internalType": "bool",
          "name": "",
          "type": "bool"
        }
      ],
      "stateMutability": "view",
      "type": "function"
    },
    {
      "inputs": [],
      "name": "symbol",
      "outputs": [
        {
          "internalType": "string",
          "name": "",
          "type": "string"
        }
      ],
      "stateMutability": "view",
      "type": "function"
    },
    {
      "inputs": [
        {
          "internalType": "uint256",
          "name": "_tokenId",
          "type": "uint256"
        }
      ],
      "name": "tokenExists",
      "outputs": [
        {
          "internalType": "bool",
          "name": "",
          "type": "bool"
        }
      ],
      "stateMutability": "view",
      "type": "function"
    },
    {
      "inputs": [
        {
          "internalType": "uint256",
          "name": "tokenId",
          "type": "uint256"
        }
      ],
      "name": "tokenURI",
      "outputs": [
        {
          "internalType": "string",
          "name": "",
          "type": "string"
        }
      ],
      "stateMutability": "view",
      "type": "function"
    },
    {
      "inputs": [
        {
          "internalType": "address",
          "name": "from",
          "type": "address"
        },
        {
          "internalType": "address",
          "name": "to",
          "type": "address"
        },
        {
          "internalType": "uint256",
          "name": "tokenId",
          "type": "uint256"
        }
      ],
      "name": "transferFrom",
      "outputs": [],
      "stateMutability": "nonpayable",
      "type": "function"
    },
    {
      "inputs": [
        {
          "internalType": "uint256",
          "name": "_tokenId",
          "type": "uint256"
        },
        {
          "internalType": "enum MedicineNFT.Status",
          "name": "_newStatus",
          "type": "uint8"
        }
      ],
      "name": "updateStatus",
      "outputs": [],
      "stateMutability": "nonpayable",
      "type": "function"
    },
    {
      "inputs": [
        {
          "internalType": "string",
          "name": "_ipfsHash",
          "type": "string"
        }
      ],
      "name": "verifyMedicineByQR",
      "outputs": [
        {
          "internalType": "bool",
          "name": "",
          "type": "bool"
        }
      ],
      "stateMutability": "view",
      "type": "function"
    }
  ],
  "bytecode": "0x60806040523480156200001157600080fd5b506040518060400160405280600b81526020017f4d65646963696e654e46540000000000000000000000000000000000000000008152506040518060400160405280600681526020017f4d45444e4654000000000000000000000000000000000000000000000000000081525081600090816200008f919062000324565b508060019081620000a1919062000324565b5050506200040b565b600081519050919050565b7f4e487b7100000000000000000000000000000000000000000000000000000000600052604160045260246000fd5b7f4e487b7100000000000000000000000000000000000000000000000000000000600052602260045260246000fd5b600060028204905060018216806200012c57607f821691505b602082108103620001425762000141620000e4565b5b50919050565b60008190508160005260206000209050919050565b60006020601f8301049050919050565b600082821b905092915050565b600060088302620001ac7fffffffffffffffffffffffffffffffffffffffffffffffffffffffffffffffff826200016d565b620001b886836200016d565b95508019841693508086168417925050509392505050565b6000819050919050565b6000819050919050565b600062000205620001ff620001f984620001d0565b620001da565b620001d0565b9050919050565b6000819050919050565b6200022183620001e4565b6200023962000230826200020c565b8484546200017a565b825550505050565b600090565b6200025062000241565b6200025d81848462000216565b505050565b5b8181101562000285576200027960008262000246565b60018101905062000263565b5050565b601f821115620002d4576200029e8162000148565b620002a9846200015d565b81016020851015620002b9578190505b620002d1620002c8856200015d565b83018262000262565b50505b505050565b600082821c905092915050565b6000620002f960001984600802620002d9565b1980831691505092915050565b6000620003148383620002e6565b9150826002028217905092915050565b6200032f82620000aa565b67ffffffffffffffff8111156200034b576200034a620000b5565b5b62000357825462000113565b6200036482828562000289565b600060209050601f8311600181146200039c576000841562000387578287015190505b62000393858262000306565b86555062000403565b601f198416620003ac8662000148565b60005b82811015620003d657848901518255600182019150602085019450602081019050620003af565b86831015620003f65784890151620003f2601f891682620002e6565b8355505b6001600288020188555050505b505050505050565b61341a806200041b6000396000f3fe608060405234801561001057600080fd5b50600436106101415760003560e01c80636352211e116100b857806396e337321161007c57806396e337321461039c578063a22cb465146103cd578063b88d4fde146103e9578063c85e766d14610405578063c87b56dd14610439578063e985e9c51461046957610141565b80636352211e146102d057806369294bd11461030057806370a08231146103305780637d4ba4831461036057806395d89b411461037e57610141565b80630f117e3e1161010a5780630f117e3e146102105780631b5b085d1461022e57806323b872dd1461025e5780633a1b3d311461027a57806342842e0e146102965780635a01fee0146102b257610141565b8062923f9e1461014657806301ffc9a71461017657806306fdde03146101a6578063081812fc146101c4578063095ea7b3146101f4575b600080fd5b610160600480360381019061015b919061236a565b610499565b60405161016d91906123b2565b60405180910390f35b610190600480360381019061018b9190612425565b610555565b60405161019d91906123b2565b60405180910390f35b6101ae6105b6565b6040516101bb91906124e2565b60405180910390f35b6101de60048036038101906101d9919061236a565b610648565b6040516101eb9190612545565b60405180910390f35b61020e6004803603810190610209919061258c565b610664565b005b61021861067a565b604051610225919061268a565b60405180910390f35b610248600480360381019061024391906127e1565b61068b565b6040516102559190612868565b60405180910390f35b61027860048036038101906102739190612883565b61094f565b005b610294600480360381019061028f91906128fb565b610a51565b005b6102b060048036038101906102ab9190612883565b610b13565b005b6102ba610b33565b6040516102c7919061268a565b60405180910390f35b6102ea60048036038101906102e5919061236a565b610b44565b6040516102f79190612545565b60405180910390f35b61031a6004803603810190610315919061293b565b610b56565b60405161032791906123b2565b60405180910390f35b61034a60048036038101906103459190612984565b610c13565b6040516103579190612868565b60405180910390f35b610368610ccd565b604051610375919061268a565b60405180910390f35b610386610cde565b60405161039391906124e2565b60405180910390f35b6103b660048036038101906103b19190612984565b610d70565b6040516103c4929190612ad7565b60405180910390f35b6103e760048036038101906103e29190612b3a565b610f6b565b005b61040360048036038101906103fe9190612c1b565b610f81565b005b61041f600480360381019061041a919061236a565b610fa6565b604051610430959493929190612cad565b60405180910390f35b610453600480360381019061044e919061236a565b611119565b60405161046091906124e2565b60405180910390f35b610483600480360381019061047e9190612d0e565b61122c565b60405161049091906123b2565b60405180910390f35b60003073ffffffffffffffffffffffffffffffffffffffff16636352211e836040518263ffffffff1660e01b81526004016104d49190612868565b602060405180830381865afa92505050801561050e57506040513d601f19601f8201168201806040525081019061050b9190612d63565b60015b61051b5760009050610550565b600073ffffffffffffffffffffffffffffffffffffffff168173ffffffffffffffffffffffffffffffffffffffff1614159150505b919050565b6000634906490660e01b7bffffffffffffffffffffffffffffffffffffffffffffffffffffffff1916827bffffffffffffffffffffffffffffffffffffffffffffffffffffffff191614806105af57506105ae826112c0565b5b9050919050565b6060600080546105c590612dbf565b80601f01602080910402602001604051908101604052809291908181526020018280546105f190612dbf565b801561063e5780601f106106135761010080835404028352916020019161063e565b820191906000526020600020905b81548152906001019060200180831161062157829003601f168201915b5050505050905090565b6000610653826113a2565b5061065d8261142a565b9050919050565b6106768282610671611467565b61146f565b5050565b60606106866002611481565b905090565b6000600760008154809291906106a090612e1f565b9190505550600060075490506106b633826115ff565b6106c081846116f8565b6040518060a00160405280828152602001600060028111156106e5576106e46129dd565b5b81526020018581526020013373ffffffffffffffffffffffffffffffffffffffff16815260200184815250600860008381526020019081526020016000206000820151816000015560208201518160010160006101000a81548160ff02191690836002811115610758576107576129dd565b5b021790555060408201518160020190816107729190613013565b5060608201518160030160006101000a81548173ffffffffffffffffffffffffffffffffffffffff021916908373ffffffffffffffffffffffffffffffffffffffff16021790555060808201518160040190816107cf9190613013565b5090505080600a846040516107e49190613121565b908152602001604051809103902081905550600960003373ffffffffffffffffffffffffffffffffffffffff1673ffffffffffffffffffffffffffffffffffffffff1681526020019081526020016000208190806001815401808255809150506001900390600052602060002001600090919091909150556000600960003373ffffffffffffffffffffffffffffffffffffffff1673ffffffffffffffffffffffffffffffffffffffff1681526020019081526020016000208054905090503373ffffffffffffffffffffffffffffffffffffffff16827f5cc58fcf233a683ca30a98579036fc4bd6de2807a3e0bbaa38a7b9af39498a5a87876040516108ec929190613138565b60405180910390a33373ffffffffffffffffffffffffffffffffffffffff167f8b1f5fba8124858ce7e9f9b326f418b5053e2d109db873b4710af33be7a94e5a838360405161093c92919061316f565b60405180910390a2819250505092915050565b600073ffffffffffffffffffffffffffffffffffffffff168273ffffffffffffffffffffffffffffffffffffffff16036109c15760006040517f64a0ae920000000000000000000000000000000000000000000000000000000081526004016109b89190612545565b60405180910390fd5b60006109d583836109d0611467565b611754565b90508373ffffffffffffffffffffffffffffffffffffffff168173ffffffffffffffffffffffffffffffffffffffff1614610a4b578382826040517f64283d7b000000000000000000000000000000000000000000000000000000008152600401610a4293929190613198565b60405180910390fd5b50505050565b610a5a82610499565b610a99576040517f08c379a0000000000000000000000000000000000000000000000000000000008152600401610a909061321b565b60405180910390fd5b806008600084815260200190815260200160002060010160006101000a81548160ff02191690836002811115610ad257610ad16129dd565b5b0217905550817f2da7b23ca63c1eb969eee5fae4acb98186abecf5358b0354a82a5183ebca6b2a82604051610b07919061323b565b60405180910390a25050565b610b2e83838360405180602001604052806000815250610f81565b505050565b6060610b3f6001611481565b905090565b6000610b4f826113a2565b9050919050565b600080825103610b695760009050610c0e565b6000600a83604051610b7b9190613121565b90815260200160405180910390205490506000811480610bb1575080600860008381526020019081526020016000206000015414155b15610bc0576000915050610c0e565b600280811115610bd357610bd26129dd565b5b6008600083815260200190815260200160002060010160009054906101000a900460ff166002811115610c0957610c086129dd565b5b149150505b919050565b60008073ffffffffffffffffffffffffffffffffffffffff168273ffffffffffffffffffffffffffffffffffffffff1603610c865760006040517f89c62b64000000000000000000000000000000000000000000000000000000008152600401610c7d9190612545565b60405180910390fd5b600360008373ffffffffffffffffffffffffffffffffffffffff1673ffffffffffffffffffffffffffffffffffffffff168152602001908152602001600020549050919050565b6060610cd96000611481565b905090565b606060018054610ced90612dbf565b80601f0160208091040260200160405190810160405280929190818152602001828054610d1990612dbf565b8015610d665780601f10610d3b57610100808354040283529160200191610d66565b820191906000526020600020905b815481529060010190602001808311610d4957829003601f168201915b5050505050905090565b6060806000600960008573ffffffffffffffffffffffffffffffffffffffff1673ffffffffffffffffffffffffffffffffffffffff16815260200190815260200160002080549050905060008167ffffffffffffffff811115610dd657610dd56126b6565b5b604051908082528060200260200182016040528015610e045781602001602082028036833780820191505090505b50905060008267ffffffffffffffff811115610e2357610e226126b6565b5b604051908082528060200260200182016040528015610e515781602001602082028036833780820191505090505b50905060005b83811015610f5c576000600960008973ffffffffffffffffffffffffffffffffffffffff1673ffffffffffffffffffffffffffffffffffffffff1681526020019081526020016000208281548110610eb257610eb1613256565b5b9060005260206000200154905080848381518110610ed357610ed2613256565b5b6020026020010181815250506008600082815260200190815260200160002060010160009054906101000a900460ff16838381518110610f1657610f15613256565b5b60200260200101906002811115610f3057610f2f6129dd565b5b90816002811115610f4457610f436129dd565b5b81525050508080610f5490612e1f565b915050610e57565b50818194509450505050915091565b610f7d610f76611467565b838361196e565b5050565b610f8c84848461094f565b610fa0610f97611467565b85858585611add565b50505050565b60086020528060005260406000206000915090508060000154908060010160009054906101000a900460ff1690806002018054610fe290612dbf565b80601f016020809104026020016040519081016040528092919081815260200182805461100e90612dbf565b801561105b5780601f106110305761010080835404028352916020019161105b565b820191906000526020600020905b81548152906001019060200180831161103e57829003601f168201915b5050505050908060030160009054906101000a900473ffffffffffffffffffffffffffffffffffffffff169080600401805461109690612dbf565b80601f01602080910402602001604051908101604052809291908181526020018280546110c290612dbf565b801561110f5780601f106110e45761010080835404028352916020019161110f565b820191906000526020600020905b8154815290600101906020018083116110f257829003601f168201915b5050505050905085565b6060611124826113a2565b50600060066000848152602001908152602001600020805461114590612dbf565b80601f016020809104026020016040519081016040528092919081815260200182805461117190612dbf565b80156111be5780601f10611193576101008083540402835291602001916111be565b820191906000526020600020905b8154815290600101906020018083116111a157829003601f168201915b5050505050905060006111cf611c8e565b905060008151036111e4578192505050611227565b600082511115611219578082604051602001611201929190613285565b60405160208183030381529060405292505050611227565b61122284611ca5565b925050505b919050565b6000600560008473ffffffffffffffffffffffffffffffffffffffff1673ffffffffffffffffffffffffffffffffffffffff16815260200190815260200160002060008373ffffffffffffffffffffffffffffffffffffffff1673ffffffffffffffffffffffffffffffffffffffff16815260200190815260200160002060009054906101000a900460ff16905092915050565b60007f80ac58cd000000000000000000000000000000000000000000000000000000007bffffffffffffffffffffffffffffffffffffffffffffffffffffffff1916827bffffffffffffffffffffffffffffffffffffffffffffffffffffffff1916148061138b57507f5b5e139f000000000000000000000000000000000000000000000000000000007bffffffffffffffffffffffffffffffffffffffffffffffffffffffff1916827bffffffffffffffffffffffffffffffffffffffffffffffffffffffff1916145b8061139b575061139a82611d0e565b5b9050919050565b6000806113ae83611d78565b9050600073ffffffffffffffffffffffffffffffffffffffff168173ffffffffffffffffffffffffffffffffffffffff160361142157826040517f7e2732890000000000000000000000000000000000000000000000000000000081526004016114189190612868565b60405180910390fd5b80915050919050565b60006004600083815260200190815260200160002060009054906101000a900473ffffffffffffffffffffffffffffffffffffffff169050919050565b600033905090565b61147c8383836001611db5565b505050565b6060600080600190505b6007548111611504578360028111156114a7576114a66129dd565b5b6008600083815260200190815260200160002060010160009054906101000a900460ff1660028111156114dd576114dc6129dd565b5b036114f15781806114ed90612e1f565b9250505b80806114fc90612e1f565b91505061148b565b5060008167ffffffffffffffff811115611521576115206126b6565b5b60405190808252806020026020018201604052801561154f5781602001602082028036833780820191505090505b509050600080600190505b60075481116115f357856002811115611576576115756129dd565b5b6008600083815260200190815260200160002060010160009054906101000a900460ff1660028111156115ac576115ab6129dd565b5b036115e057808383815181106115c5576115c4613256565b5b60200260200101818152505081806115dc90612e1f565b9250505b80806115eb90612e1f565b91505061155a565b50819350505050919050565b600073ffffffffffffffffffffffffffffffffffffffff168273ffffffffffffffffffffffffffffffffffffffff16036116715760006040517f64a0ae920000000000000000000000000000000000000000000000000000000081526004016116689190612545565b60405180910390fd5b600061167f83836000611754565b9050600073ffffffffffffffffffffffffffffffffffffffff168173ffffffffffffffffffffffffffffffffffffffff16146116f35760006040517f73c6ac6e0000000000000000000000000000000000000000000000000000000081526004016116ea9190612545565b60405180910390fd5b505050565b806006600084815260200190815260200160002090816117189190613013565b507ff8e1a15aba9398e019f0b49df1a4fde98ee17ae345cb5f6b5e2c27f5033e8ce7826040516117489190612868565b60405180910390a15050565b60008061176084611d78565b9050600073ffffffffffffffffffffffffffffffffffffffff168373ffffffffffffffffffffffffffffffffffffffff16146117a2576117a1818486611f7a565b5b600073ffffffffffffffffffffffffffffffffffffffff168173ffffffffffffffffffffffffffffffffffffffff1614611833576117e4600085600080611db5565b6001600360008373ffffffffffffffffffffffffffffffffffffffff1673ffffffffffffffffffffffffffffffffffffffff168152602001908152602001600020600082825403925050819055505b600073ffffffffffffffffffffffffffffffffffffffff168573ffffffffffffffffffffffffffffffffffffffff16146118b6576001600360008773ffffffffffffffffffffffffffffffffffffffff1673ffffffffffffffffffffffffffffffffffffffff168152602001908152602001600020600082825401925050819055505b846002600086815260200190815260200160002060006101000a81548173ffffffffffffffffffffffffffffffffffffffff021916908373ffffffffffffffffffffffffffffffffffffffff160217905550838573ffffffffffffffffffffffffffffffffffffffff168273ffffffffffffffffffffffffffffffffffffffff167fddf252ad1be2c89b69c2b068fc378daa952ba7f163c4a11628f55a4df523b3ef60405160405180910390a4809150509392505050565b600073ffffffffffffffffffffffffffffffffffffffff168273ffffffffffffffffffffffffffffffffffffffff16036119df57816040517f5b08ba180000000000000000000000000000000000000000000000000000000081526004016119d69190612545565b60405180910390fd5b80600560008573ffffffffffffffffffffffffffffffffffffffff1673ffffffffffffffffffffffffffffffffffffffff16815260200190815260200160002060008473ffffffffffffffffffffffffffffffffffffffff1673ffffffffffffffffffffffffffffffffffffffff16815260200190815260200160002060006101000a81548160ff0219169083151502179055508173ffffffffffffffffffffffffffffffffffffffff168373ffffffffffffffffffffffffffffffffffffffff167f17307eab39ab6107e8899845ad3d59bd9653f200f220920489ca2b5937696c3183604051611ad091906123b2565b60405180910390a3505050565b60008373ffffffffffffffffffffffffffffffffffffffff163b1115611c87578273ffffffffffffffffffffffffffffffffffffffff1663150b7a02868685856040518563ffffffff1660e01b8152600401611b3c94939291906132fe565b6020604051808303816000875af1925050508015611b7857506040513d601f19601f82011682018060405250810190611b75919061335f565b60015b611bfc573d8060008114611ba8576040519150601f19603f3d011682016040523d82523d6000602084013e611bad565b606091505b506000815103611bf457836040517f64a0ae92000000000000000000000000000000000000000000000000000000008152600401611beb9190612545565b60405180910390fd5b805181602001fd5b63150b7a0260e01b7bffffffffffffffffffffffffffffffffffffffffffffffffffffffff1916817bffffffffffffffffffffffffffffffffffffffffffffffffffffffff191614611c8557836040517f64a0ae92000000000000000000000000000000000000000000000000000000008152600401611c7c9190612545565b60405180910390fd5b505b5050505050565b606060405180602001604052806000815250905090565b6060611cb0826113a2565b506000611cbb611c8e565b90506000815111611cdb5760405180602001604052806000815250611d06565b80611ce58461203e565b604051602001611cf6929190613285565b6040516020818303038152906040525b915050919050565b60007f01ffc9a7000000000000000000000000000000000000000000000000000000007bffffffffffffffffffffffffffffffffffffffffffffffffffffffff1916827bffffffffffffffffffffffffffffffffffffffffffffffffffffffff1916149050919050565b60006002600083815260200190815260200160002060009054906101000a900473ffffffffffffffffffffffffffffffffffffffff169050919050565b8080611dee5750600073ffffffffffffffffffffffffffffffffffffffff168273ffffffffffffffffffffffffffffffffffffffff1614155b15611f22576000611dfe846113a2565b9050600073ffffffffffffffffffffffffffffffffffffffff168373ffffffffffffffffffffffffffffffffffffffff1614158015611e6957508273ffffffffffffffffffffffffffffffffffffffff168173ffffffffffffffffffffffffffffffffffffffff1614155b8015611e7c5750611e7a818461122c565b155b15611ebe57826040517fa9fbf51f000000000000000000000000000000000000000000000000000000008152600401611eb59190612545565b60405180910390fd5b8115611f2057838573ffffffffffffffffffffffffffffffffffffffff168273ffffffffffffffffffffffffffffffffffffffff167f8c5be1e5ebec7d5bd14f71427d1e84f3dd0314c0f7b2291e5b200ac8c7c3b92560405160405180910390a45b505b836004600085815260200190815260200160002060006101000a81548173ffffffffffffffffffffffffffffffffffffffff021916908373ffffffffffffffffffffffffffffffffffffffff16021790555050505050565b611f8583838361210c565b61203957600073ffffffffffffffffffffffffffffffffffffffff168373ffffffffffffffffffffffffffffffffffffffff1603611ffa57806040517f7e273289000000000000000000000000000000000000000000000000000000008152600401611ff19190612868565b60405180910390fd5b81816040517f177e802f00000000000000000000000000000000000000000000000000000000815260040161203092919061338c565b60405180910390fd5b505050565b60606000600161204d846121cd565b01905060008167ffffffffffffffff81111561206c5761206b6126b6565b5b6040519080825280601f01601f19166020018201604052801561209e5781602001600182028036833780820191505090505b509050600082602001820190505b600115612101578080600190039150507f3031323334353637383961626364656600000000000000000000000000000000600a86061a8153600a85816120f5576120f46133b5565b5b049450600085036120ac575b819350505050919050565b60008073ffffffffffffffffffffffffffffffffffffffff168373ffffffffffffffffffffffffffffffffffffffff16141580156121c457508273ffffffffffffffffffffffffffffffffffffffff168473ffffffffffffffffffffffffffffffffffffffff1614806121855750612184848461122c565b5b806121c357508273ffffffffffffffffffffffffffffffffffffffff166121ab8361142a565b73ffffffffffffffffffffffffffffffffffffffff16145b5b90509392505050565b600080600090507a184f03e93ff9f4daa797ed6e38ed64bf6a1f010000000000000000831061222b577a184f03e93ff9f4daa797ed6e38ed64bf6a1f0100000000000000008381612221576122206133b5565b5b0492506040810190505b6d04ee2d6d415b85acef81000000008310612268576d04ee2d6d415b85acef8100000000838161225e5761225d6133b5565b5b0492506020810190505b662386f26fc10000831061229757662386f26fc10000838161228d5761228c6133b5565b5b0492506010810190505b6305f5e10083106122c0576305f5e10083816122b6576122b56133b5565b5b0492506008810190505b61271083106122e55761271083816122db576122da6133b5565b5b0492506004810190505b6064831061230857606483816122fe576122fd6133b5565b5b0492506002810190505b600a8310612317576001810190505b80915050919050565b6000604051905090565b600080fd5b600080fd5b6000819050919050565b61234781612334565b811461235257600080fd5b50565b6000813590506123648161233e565b92915050565b6000602082840312156123805761237f61232a565b5b600061238e84828501612355565b91505092915050565b60008115159050919050565b6123ac81612397565b82525050565b60006020820190506123c760008301846123a3565b92915050565b60007fffffffff0000000000000000000000000000000000000000000000000000000082169050919050565b612402816123cd565b811461240d57600080fd5b50565b60008135905061241f816123f9565b92915050565b60006020828403121561243b5761243a61232a565b5b600061244984828501612410565b91505092915050565b600081519050919050565b600082825260208201905092915050565b60005b8381101561248c578082015181840152602081019050612471565b60008484015250505050565b6000601f19601f8301169050919050565b60006124b482612452565b6124be818561245d565b93506124ce81856020860161246e565b6124d781612498565b840191505092915050565b600060208201905081810360008301526124fc81846124a9565b905092915050565b600073ffffffffffffffffffffffffffffffffffffffff82169050919050565b600061252f82612504565b9050919050565b61253f81612524565b82525050565b600060208201905061255a6000830184612536565b92915050565b61256981612524565b811461257457600080fd5b50565b60008135905061258681612560565b92915050565b600080604083850312156125a3576125a261232a565b5b60006125b185828601612577565b92505060206125c285828601612355565b9150509250929050565b600081519050919050565b600082825260208201905092915050565b6000819050602082019050919050565b61260181612334565b82525050565b600061261383836125f8565b60208301905092915050565b6000602082019050919050565b6000612637826125cc565b61264181856125d7565b935061264c836125e8565b8060005b8381101561267d5781516126648882612607565b975061266f8361261f565b925050600181019050612650565b5085935050505092915050565b600060208201905081810360008301526126a4818461262c565b905092915050565b600080fd5b600080fd5b7f4e487b7100000000000000000000000000000000000000000000000000000000600052604160045260246000fd5b6126ee82612498565b810181811067ffffffffffffffff8211171561270d5761270c6126b6565b5b80604052505050565b6000612720612320565b905061272c82826126e5565b919050565b600067ffffffffffffffff82111561274c5761274b6126b6565b5b61275582612498565b9050602081019050919050565b82818337600083830152505050565b600061278461277f84612731565b612716565b9050828152602081018484840111156127a05761279f6126b1565b5b6127ab848285612762565b509392505050565b600082601f8301126127c8576127c76126ac565b5b81356127d8848260208601612771565b91505092915050565b600080604083850312156127f8576127f761232a565b5b600083013567ffffffffffffffff8111156128165761281561232f565b5b612822858286016127b3565b925050602083013567ffffffffffffffff8111156128435761284261232f565b5b61284f858286016127b3565b9150509250929050565b61286281612334565b82525050565b600060208201905061287d6000830184612859565b92915050565b60008060006060848603121561289c5761289b61232a565b5b60006128aa86828701612577565b93505060206128bb86828701612577565b92505060406128cc86828701612355565b9150509250925092565b600381106128e357600080fd5b50565b6000813590506128f5816128d6565b92915050565b600080604083850312156129125761291161232a565b5b600061292085828601612355565b9250506020612931858286016128e6565b9150509250929050565b6000602082840312156129515761295061232a565b5b600082013567ffffffffffffffff81111561296f5761296e61232f565b5b61297b848285016127b3565b91505092915050565b60006020828403121561299a5761299961232a565b5b60006129a884828501612577565b91505092915050565b600081519050919050565b600082825260208201905092915050565b6000819050602082019050919050565b7f4e487b7100000000000000000000000000000000000000000000000000000000600052602160045260246000fd5b60038110612a1d57612a1c6129dd565b5b50565b6000819050612a2e82612a0c565b919050565b6000612a3e82612a20565b9050919050565b612a4e81612a33565b82525050565b6000612a608383612a45565b60208301905092915050565b6000602082019050919050565b6000612a84826129b1565b612a8e81856129bc565b9350612a99836129cd565b8060005b83811015612aca578151612ab18882612a54565b9750612abc83612a6c565b925050600181019050612a9d565b5085935050505092915050565b60006040820190508181036000830152612af1818561262c565b90508181036020830152612b058184612a79565b90509392505050565b612b1781612397565b8114612b2257600080fd5b50565b600081359050612b3481612b0e565b92915050565b60008060408385031215612b5157612b5061232a565b5b6000612b5f85828601612577565b9250506020612b7085828601612b25565b9150509250929050565b600067ffffffffffffffff821115612b9557612b946126b6565b5b612b9e82612498565b9050602081019050919050565b6000612bbe612bb984612b7a565b612716565b905082815260208101848484011115612bda57612bd96126b1565b5b612be5848285612762565b509392505050565b600082601f830112612c0257612c016126ac565b5b8135612c12848260208601612bab565b91505092915050565b60008060008060808587031215612c3557612c3461232a565b5b6000612c4387828801612577565b9450506020612c5487828801612577565b9350506040612c6587828801612355565b925050606085013567ffffffffffffffff811115612c8657612c8561232f565b5b612c9287828801612bed565b91505092959194509250565b612ca781612a33565b82525050565b600060a082019050612cc26000830188612859565b612ccf6020830187612c9e565b8181036040830152612ce181866124a9565b9050612cf06060830185612536565b8181036080830152612d0281846124a9565b90509695505050505050565b60008060408385031215612d2557612d2461232a565b5b6000612d3385828601612577565b9250506020612d4485828601612577565b9150509250929050565b600081519050612d5d81612560565b92915050565b600060208284031215612d7957612d7861232a565b5b6000612d8784828501612d4e565b91505092915050565b7f4e487b7100000000000000000000000000000000000000000000000000000000600052602260045260246000fd5b60006002820490506001821680612dd757607f821691505b602082108103612dea57612de9612d90565b5b50919050565b7f4e487b7100000000000000000000000000000000000000000000000000000000600052601160045260246000fd5b6000612e2a82612334565b91507fffffffffffffffffffffffffffffffffffffffffffffffffffffffffffffffff8203612e5c57612e5b612df0565b5b600182019050919050565b60008190508160005260206000209050919050565b60006020601f8301049050919050565b600082821b905092915050565b600060088302612ec97fffffffffffffffffffffffffffffffffffffffffffffffffffffffffffffffff82612e8c565b612ed38683612e8c565b95508019841693508086168417925050509392505050565b6000819050919050565b6000612f10612f0b612f0684612334565b612eeb565b612334565b9050919050565b6000819050919050565b612f2a83612ef5565b612f3e612f3682612f17565b848454612e99565b825550505050565b600090565b612f53612f46565b612f5e818484612f21565b505050565b5b81811015612f8257612f77600082612f4b565b600181019050612f64565b5050565b601f821115612fc757612f9881612e67565b612fa184612e7c565b81016020851015612fb0578190505b612fc4612fbc85612e7c565b830182612f63565b50505b505050565b600082821c905092915050565b6000612fea60001984600802612fcc565b1980831691505092915050565b60006130038383612fd9565b9150826002028217905092915050565b61301c82612452565b67ffffffffffffffff811115613035576130346126b6565b5b61303f8254612dbf565b61304a828285612f86565b600060209050601f83116001811461307d576000841561306b578287015190505b6130758582612ff7565b8655506130dd565b601f19841661308b86612e67565b60005b828110156130b35784890151825560018201915060208501945060208101905061308e565b868310156130d057848901516130cc601f891682612fd9565b8355505b6001600288020188555050505b505050505050565b600081905092915050565b60006130fb82612452565b61310581856130e5565b935061311581856020860161246e565b80840191505092915050565b600061312d82846130f0565b915081905092915050565b6000604082019050818103600083015261315281856124a9565b9050818103602083015261316681846124a9565b90509392505050565b60006040820190506131846000830185612859565b6131916020830184612859565b9392505050565b60006060820190506131ad6000830186612536565b6131ba6020830185612859565b6131c76040830184612536565b949350505050565b7f546f6b656e20646f6573206e6f74206578697374000000000000000000000000600082015250565b600061320560148361245d565b9150613210826131cf565b602082019050919050565b60006020820190508181036000830152613234816131f8565b9050919050565b60006020820190506132506000830184612c9e565b92915050565b7f4e487b7100000000000000000000000000000000000000000000000000000000600052603260045260246000fd5b600061329182856130f0565b915061329d82846130f0565b91508190509392505050565b600081519050919050565b600082825260208201905092915050565b60006132d0826132a9565b6132da81856132b4565b93506132ea81856020860161246e565b6132f381612498565b840191505092915050565b60006080820190506133136000830187612536565b6133206020830186612536565b61332d6040830185612859565b818103606083015261333f81846132c5565b905095945050505050565b600081519050613359816123f9565b92915050565b6000602082840312156133755761337461232a565b5b60006133838482850161334a565b91505092915050565b60006040820190506133a16000830185612536565b6133ae6020830184612859565b9392505050565b7f4e487b7100000000000000000000000000000000000000000000000000000000600052601260045260246000fdfea2646970667358221220876a2a1f19c37022072e0d6fce8b7033eedf4ca55a8f31df67efcfedab11142664736f6c63430008140033",
  "linkReferences": {},
  "deployedLinkReferences": {}
}