{
  "_format": "hh-sol-artifact-1",
  "contractName": "MedicineNFT",
  "sourceName": "blockchain/contracts/medicine.sol",
  "abi": [
    {
      "inputs": [],
      "stateMutability": "nonpayable",
      "type": "constructor"
    },
    {
      "inputs": [
        {
          "internalType": "address",
          "name": "sender",
          "type": "address"
        },
        {
          "internalType": "uint256",
          "name": "tokenId",
          "type": "uint256"
        },
        {
          "internalType": "address",
          "name": "owner",
          "type": "address"
        }
      ],
      "name": "ERC721IncorrectOwner",
      "type": "error"
    },
    {
      "inputs": [
        {
          "internalType": "address",
          "name": "operator",
          "type": "address"
        },
        {
          "internalType": "uint256",
          "name": "tokenId",
          "type": "uint256"
        }
      ],
      "name": "ERC721InsufficientApproval",
      "type": "error"
    },
    {
      "inputs": [
        {
          "internalType": "address",
          "name": "approver",
          "type": "address"
        }
      ],
      "name": "ERC721InvalidApprover",
      "type": "error"
    },
    {
      "inputs": [
        {
          "internalType": "address",
          "name": "operator",
          "type": "address"
        }
      ],
      "name": "ERC721InvalidOperator",
      "type": "error"
    },
    {
      "inputs": [
        {
          "internalType": "address",
          "name": "owner",
          "type": "address"
        }
      ],
      "name": "ERC721InvalidOwner",
      "type": "error"
    },
    {
      "inputs": [
        {
          "internalType": "address",
          "name": "receiver",
          "type": "address"
        }
      ],
      "name": "ERC721InvalidReceiver",
      "type": "error"
    },
    {
      "inputs": [
        {
          "internalType": "address",
          "name": "sender",
          "type": "address"
        }
      ],
      "name": "ERC721InvalidSender",
      "type": "error"
    },
    {
      "inputs": [
        {
          "internalType": "uint256",
          "name": "tokenId",
          "type": "uint256"
        }
      ],
      "name": "ERC721NonexistentToken",
      "type": "error"
    },
    {
      "anonymous": false,
      "inputs": [
        {
          "indexed": true,
          "internalType": "address",
          "name": "oldAdmin",
          "type": "address"
        },
        {
          "indexed": true,
          "internalType": "address",
          "name": "newAdmin",
          "type": "address"
        }
      ],
      "name": "AdminChanged",
      "type": "event"
    },
    {
      "anonymous": false,
      "inputs": [
        {
          "indexed": true,
          "internalType": "address",
          "name": "owner",
          "type": "address"
        },
        {
          "indexed": true,
          "internalType": "address",
          "name": "approved",
          "type": "address"
        },
        {
          "indexed": true,
          "internalType": "uint256",
          "name": "tokenId",
          "type": "uint256"
        }
      ],
      "name": "Approval",
      "type": "event"
    },
    {
      "anonymous": false,
      "inputs": [
        {
          "indexed": true,
          "internalType": "address",
          "name": "owner",
          "type": "address"
        },
        {
          "indexed": true,
          "internalType": "address",
          "name": "operator",
          "type": "address"
        },
        {
          "indexed": false,
          "internalType": "bool",
          "name": "approved",
          "type": "bool"
        }
      ],
      "name": "ApprovalForAll",
      "type": "event"
    },
    {
      "anonymous": false,
      "inputs": [
        {
          "indexed": false,
          "internalType": "uint256",
          "name": "_fromTokenId",
          "type": "uint256"
        },
        {
          "indexed": false,
          "internalType": "uint256",
          "name": "_toTokenId",
          "type": "uint256"
        }
      ],
      "name": "BatchMetadataUpdate",
      "type": "event"
    },
    {
      "anonymous": false,
      "inputs": [
        {
          "indexed": true,
          "internalType": "uint256",
          "name": "tokenId",
          "type": "uint256"
        },
        {
          "indexed": true,
          "internalType": "address",
          "name": "owner",
          "type": "address"
        },
        {
          "indexed": false,
          "internalType": "string",
          "name": "manufacturerId",
          "type": "string"
        },
        {
          "indexed": false,
          "internalType": "string",
          "name": "ipfsHash",
          "type": "string"
        }
      ],
      "name": "MedicineMinted",
      "type": "event"
    },
    {
      "anonymous": false,
      "inputs": [
        {
          "indexed": false,
          "internalType": "uint256",
          "name": "_tokenId",
          "type": "uint256"
        }
      ],
      "name": "MetadataUpdate",
      "type": "event"
    },
    {
      "anonymous": false,
      "inputs": [
        {
          "indexed": true,
          "internalType": "uint256",
          "name": "tokenId",
          "type": "uint256"
        },
        {
          "indexed": false,
          "internalType": "enum MedicineNFT.Status",
          "name": "newStatus",
          "type": "uint8"
        }
      ],
      "name": "StatusUpdated",
      "type": "event"
    },
    {
      "anonymous": false,
      "inputs": [
        {
          "indexed": true,
          "internalType": "address",
          "name": "from",
          "type": "address"
        },
        {
          "indexed": true,
          "internalType": "address",
          "name": "to",
          "type": "address"
        },
        {
          "indexed": true,
          "internalType": "uint256",
          "name": "tokenId",
          "type": "uint256"
        }
      ],
      "name": "Transfer",
      "type": "event"
    },
    {
      "inputs": [],
      "name": "admin",
      "outputs": [
        {
          "internalType": "address",
          "name": "",
          "type": "address"
        }
      ],
      "stateMutability": "view",
      "type": "function"
    },
    {
      "inputs": [
        {
          "internalType": "address",
          "name": "to",
          "type": "address"
        },
        {
          "internalType": "uint256",
          "name": "tokenId",
          "type": "uint256"
        }
      ],
      "name": "approve",
      "outputs": [],
      "stateMutability": "nonpayable",
      "type": "function"
    },
    {
      "inputs": [
        {
          "internalType": "address",
          "name": "owner",
          "type": "address"
        }
      ],
      "name": "balanceOf",
      "outputs": [
        {
          "internalType": "uint256",
          "name": "",
          "type": "uint256"
        }
      ],
      "stateMutability": "view",
      "type": "function"
    },
    {
      "inputs": [
        {
          "internalType": "address",
          "name": "newAdmin",
          "type": "address"
        }
      ],
      "name": "changeAdmin",
      "outputs": [],
      "stateMutability": "nonpayable",
      "type": "function"
    },
    {
      "inputs": [
        {
          "internalType": "uint256",
          "name": "tokenId",
          "type": "uint256"
        }
      ],
      "name": "getApproved",
      "outputs": [
        {
          "internalType": "address",
          "name": "",
          "type": "address"
        }
      ],
      "stateMutability": "view",
      "type": "function"
    },
    {
      "inputs": [],
      "name": "getApprovedMedicines",
      "outputs": [
        {
          "internalType": "uint256[]",
          "name": "",
          "type": "uint256[]"
        }
      ],
      "stateMutability": "view",
      "type": "function"
    },
    {
      "inputs": [
        {
          "internalType": "address",
          "name": "_wallet",
          "type": "address"
        }
      ],
      "name": "getMedicinesByManufacturer",
      "outputs": [
        {
          "internalType": "uint256[]",
          "name": "",
          "type": "uint256[]"
        }
      ],
      "stateMutability": "view",
      "type": "function"
    },
    {
      "inputs": [
        {
          "internalType": "address",
          "name": "_wallet",
          "type": "address"
        },
        {
          "internalType": "enum MedicineNFT.Status",
          "name": "_status",
          "type": "uint8"
        }
      ],
      "name": "getMedicinesByManufacturerAndStatus",
      "outputs": [
        {
          "internalType": "uint256[]",
          "name": "",
          "type": "uint256[]"
        }
      ],
      "stateMutability": "view",
      "type": "function"
    },
    {
      "inputs": [],
      "name": "getPendingMedicines",
      "outputs": [
        {
          "internalType": "uint256[]",
          "name": "",
          "type": "uint256[]"
        }
      ],
      "stateMutability": "view",
      "type": "function"
    },
    {
      "inputs": [],
      "name": "getRejectedMedicines",
      "outputs": [
        {
          "internalType": "uint256[]",
          "name": "",
          "type": "uint256[]"
        }
      ],
      "stateMutability": "view",
      "type": "function"
    },
    {
      "inputs": [
        {
          "internalType": "address",
          "name": "owner",
          "type": "address"
        },
        {
          "internalType": "address",
          "name": "operator",
          "type": "address"
        }
      ],
      "name": "isApprovedForAll",
      "outputs": [
        {
          "internalType": "bool",
          "name": "",
          "type": "bool"
        }
      ],
      "stateMutability": "view",
      "type": "function"
    },
    {
      "inputs": [
        {
          "internalType": "uint256",
          "name": "",
          "type": "uint256"
        }
      ],
      "name": "medicines",
      "outputs": [
        {
          "internalType": "uint256",
          "name": "id",
          "type": "uint256"
        },
        {
          "internalType": "enum MedicineNFT.Status",
          "name": "status",
          "type": "uint8"
        },
        {
          "internalType": "string",
          "name": "manufacturerId",
          "type": "string"
        },
        {
          "internalType": "address",
          "name": "wallet",
          "type": "address"
        },
        {
          "internalType": "string",
          "name": "ipfsHash",
          "type": "string"
        }
      ],
      "stateMutability": "view",
      "type": "function"
    },
    {
      "inputs": [
        {
          "internalType": "string",
          "name": "_manufacturerId",
          "type": "string"
        },
        {
          "internalType": "string",
          "name": "_ipfsHash",
          "type": "string"
        }
      ],
      "name": "mintMedicine",
      "outputs": [
        {
          "internalType": "uint256",
          "name": "",
          "type": "uint256"
        }
      ],
      "stateMutability": "nonpayable",
      "type": "function"
    },
    {
      "inputs": [],
      "name": "name",
      "outputs": [
        {
          "internalType": "string",
          "name": "",
          "type": "string"
        }
      ],
      "stateMutability": "view",
      "type": "function"
    },
    {
      "inputs": [
        {
          "internalType": "uint256",
          "name": "tokenId",
          "type": "uint256"
        }
      ],
      "name": "ownerOf",
      "outputs": [
        {
          "internalType": "address",
          "name": "",
          "type": "address"
        }
      ],
      "stateMutability": "view",
      "type": "function"
    },
    {
      "inputs": [
        {
          "internalType": "address",
          "name": "from",
          "type": "address"
        },
        {
          "internalType": "address",
          "name": "to",
          "type": "address"
        },
        {
          "internalType": "uint256",
          "name": "tokenId",
          "type": "uint256"
        }
      ],
      "name": "safeTransferFrom",
      "outputs": [],
      "stateMutability": "nonpayable",
      "type": "function"
    },
    {
      "inputs": [
        {
          "internalType": "address",
          "name": "from",
          "type": "address"
        },
        {
          "internalType": "address",
          "name": "to",
          "type": "address"
        },
        {
          "internalType": "uint256",
          "name": "tokenId",
          "type": "uint256"
        },
        {
          "internalType": "bytes",
          "name": "data",
          "type": "bytes"
        }
      ],
      "name": "safeTransferFrom",
      "outputs": [],
      "stateMutability": "nonpayable",
      "type": "function"
    },
    {
      "inputs": [
        {
          "internalType": "address",
          "name": "operator",
          "type": "address"
        },
        {
          "internalType": "bool",
          "name": "approved",
          "type": "bool"
        }
      ],
      "name": "setApprovalForAll",
      "outputs": [],
      "stateMutability": "nonpayable",
      "type": "function"
    },
    {
      "inputs": [
        {
          "internalType": "bytes4",
          "name": "interfaceId",
          "type": "bytes4"
        }
      ],
      "name": "supportsInterface",
      "outputs": [
        {
          "internalType": "bool",
          "name": "",
          "type": "bool"
        }
      ],
      "stateMutability": "view",
      "type": "function"
    },
    {
      "inputs": [],
      "name": "symbol",
      "outputs": [
        {
          "internalType": "string",
          "name": "",
          "type": "string"
        }
      ],
      "stateMutability": "view",
      "type": "function"
    },
    {
      "inputs": [
        {
          "internalType": "uint256",
          "name": "_tokenId",
          "type": "uint256"
        }
      ],
      "name": "tokenExists",
      "outputs": [
        {
          "internalType": "bool",
          "name": "",
          "type": "bool"
        }
      ],
      "stateMutability": "view",
      "type": "function"
    },
    {
      "inputs": [
        {
          "internalType": "uint256",
          "name": "tokenId",
          "type": "uint256"
        }
      ],
      "name": "tokenURI",
      "outputs": [
        {
          "internalType": "string",
          "name": "",
          "type": "string"
        }
      ],
      "stateMutability": "view",
      "type": "function"
    },
    {
      "inputs": [
        {
          "internalType": "address",
          "name": "from",
          "type": "address"
        },
        {
          "internalType": "address",
          "name": "to",
          "type": "address"
        },
        {
          "internalType": "uint256",
          "name": "tokenId",
          "type": "uint256"
        }
      ],
      "name": "transferFrom",
      "outputs": [],
      "stateMutability": "nonpayable",
      "type": "function"
    },
    {
      "inputs": [
        {
          "internalType": "uint256",
          "name": "_tokenId",
          "type": "uint256"
        },
        {
          "internalType": "enum MedicineNFT.Status",
          "name": "_newStatus",
          "type": "uint8"
        }
      ],
      "name": "updateStatus",
      "outputs": [],
      "stateMutability": "nonpayable",
      "type": "function"
    }
  ],
  "bytecode": "0x60806040523480156200001157600080fd5b506040518060400160405280600b81526020017f4d65646963696e654e46540000000000000000000000000000000000000000008152506040518060400160405280600681526020017f4d45444e4654000000000000000000000000000000000000000000000000000081525081600090816200008f919062000365565b508060019081620000a1919062000365565b50505033600a60006101000a81548173ffffffffffffffffffffffffffffffffffffffff021916908373ffffffffffffffffffffffffffffffffffffffff1602179055506200044c565b600081519050919050565b7f4e487b7100000000000000000000000000000000000000000000000000000000600052604160045260246000fd5b7f4e487b7100000000000000000000000000000000000000000000000000000000600052602260045260246000fd5b600060028204905060018216806200016d57607f821691505b60208210810362000183576200018262000125565b5b50919050565b60008190508160005260206000209050919050565b60006020601f8301049050919050565b600082821b905092915050565b600060088302620001ed7fffffffffffffffffffffffffffffffffffffffffffffffffffffffffffffffff82620001ae565b620001f98683620001ae565b95508019841693508086168417925050509392505050565b6000819050919050565b6000819050919050565b600062000246620002406200023a8462000211565b6200021b565b62000211565b9050919050565b6000819050919050565b620002628362000225565b6200027a62000271826200024d565b848454620001bb565b825550505050565b600090565b6200029162000282565b6200029e81848462000257565b505050565b5b81811015620002c657620002ba60008262000287565b600181019050620002a4565b5050565b601f8211156200031557620002df8162000189565b620002ea846200019e565b81016020851015620002fa578190505b6200031262000309856200019e565b830182620002a3565b50505b505050565b600082821c905092915050565b60006200033a600019846008026200031a565b1980831691505092915050565b600062000355838362000327565b9150826002028217905092915050565b6200037082620000eb565b67ffffffffffffffff8111156200038c576200038b620000f6565b5b62000398825462000154565b620003a5828285620002ca565b600060209050601f831160018114620003dd5760008415620003c8578287015190505b620003d4858262000347565b86555062000444565b601f198416620003ed8662000189565b60005b828110156200041757848901518255600182019150602085019450602081019050620003f0565b8683101562000437578489015162000433601f89168262000327565b8355505b6001600288020188555050505b505050505050565b613644806200045c6000396000f3fe608060405234801561001057600080fd5b50600436106101575760003560e01c806370a08231116100c3578063a9c584341161007c578063a9c58434146103ea578063b88d4fde1461041a578063c85e766d14610436578063c87b56dd1461046a578063e985e9c51461049a578063f851a440146104ca57610157565b806370a08231146103165780637d4ba4831461034657806388b707fb146103645780638f2839701461039457806395d89b41146103b0578063a22cb465146103ce57610157565b80631b5b085d116101155780631b5b085d1461024457806323b872dd146102745780633a1b3d311461029057806342842e0e146102ac5780635a01fee0146102c85780636352211e146102e657610157565b8062923f9e1461015c57806301ffc9a71461018c57806306fdde03146101bc578063081812fc146101da578063095ea7b31461020a5780630f117e3e14610226575b600080fd5b6101766004803603810190610171919061258e565b6104e8565b60405161018391906125d6565b60405180910390f35b6101a660048036038101906101a19190612649565b6105a4565b6040516101b391906125d6565b60405180910390f35b6101c46105b6565b6040516101d19190612706565b60405180910390f35b6101f460048036038101906101ef919061258e565b610648565b6040516102019190612769565b60405180910390f35b610224600480360381019061021f91906127b0565b610664565b005b61022e61067a565b60405161023b91906128ae565b60405180910390f35b61025e60048036038101906102599190612a05565b61068b565b60405161026b9190612a8c565b60405180910390f35b61028e60048036038101906102899190612aa7565b610894565b005b6102aa60048036038101906102a59190612b1f565b610996565b005b6102c660048036038101906102c19190612aa7565b610ae8565b005b6102d0610b08565b6040516102dd91906128ae565b60405180910390f35b61030060048036038101906102fb919061258e565b610b19565b60405161030d9190612769565b60405180910390f35b610330600480360381019061032b9190612b5f565b610b2b565b60405161033d9190612a8c565b60405180910390f35b61034e610be5565b60405161035b91906128ae565b60405180910390f35b61037e60048036038101906103799190612b8c565b610bf6565b60405161038b91906128ae565b60405180910390f35b6103ae60048036038101906103a99190612b5f565b610e0e565b005b6103b8610fcd565b6040516103c59190612706565b60405180910390f35b6103e860048036038101906103e39190612bf8565b61105f565b005b61040460048036038101906103ff9190612b5f565b611075565b60405161041191906128ae565b60405180910390f35b610434600480360381019061042f9190612cd9565b61110c565b005b610450600480360381019061044b919061258e565b611131565b604051610461959493929190612dd3565b60405180910390f35b610484600480360381019061047f919061258e565b6112a4565b6040516104919190612706565b60405180910390f35b6104b460048036038101906104af9190612e34565b6112b6565b6040516104c191906125d6565b60405180910390f35b6104d261134a565b6040516104df9190612769565b60405180910390f35b60003073ffffffffffffffffffffffffffffffffffffffff16636352211e836040518263ffffffff1660e01b81526004016105239190612a8c565b602060405180830381865afa92505050801561055d57506040513d601f19601f8201168201806040525081019061055a9190612e89565b60015b61056a576000905061059f565b600073ffffffffffffffffffffffffffffffffffffffff168173ffffffffffffffffffffffffffffffffffffffff1614159150505b919050565b60006105af82611370565b9050919050565b6060600080546105c590612ee5565b80601f01602080910402602001604051908101604052809291908181526020018280546105f190612ee5565b801561063e5780601f106106135761010080835404028352916020019161063e565b820191906000526020600020905b81548152906001019060200180831161062157829003601f168201915b5050505050905090565b6000610653826113d1565b5061065d82611459565b9050919050565b6106768282610671611496565b61149e565b5050565b606061068660026114b0565b905090565b6000600760008154809291906106a090612f45565b9190505550600060075490506106b6338261162e565b6106c08184611727565b6040518060a00160405280828152602001600060028111156106e5576106e4612d5c565b5b81526020018581526020013373ffffffffffffffffffffffffffffffffffffffff16815260200184815250600860008381526020019081526020016000206000820151816000015560208201518160010160006101000a81548160ff0219169083600281111561075857610757612d5c565b5b021790555060408201518160020190816107729190613139565b5060608201518160030160006101000a81548173ffffffffffffffffffffffffffffffffffffffff021916908373ffffffffffffffffffffffffffffffffffffffff16021790555060808201518160040190816107cf9190613139565b50905050600960003373ffffffffffffffffffffffffffffffffffffffff1673ffffffffffffffffffffffffffffffffffffffff1681526020019081526020016000208190806001815401808255809150506001900390600052602060002001600090919091909150553373ffffffffffffffffffffffffffffffffffffffff16817f5cc58fcf233a683ca30a98579036fc4bd6de2807a3e0bbaa38a7b9af39498a5a868660405161088292919061320b565b60405180910390a38091505092915050565b600073ffffffffffffffffffffffffffffffffffffffff168273ffffffffffffffffffffffffffffffffffffffff16036109065760006040517f64a0ae920000000000000000000000000000000000000000000000000000000081526004016108fd9190612769565b60405180910390fd5b600061091a8383610915611496565b611783565b90508373ffffffffffffffffffffffffffffffffffffffff168173ffffffffffffffffffffffffffffffffffffffff1614610990578382826040517f64283d7b00000000000000000000000000000000000000000000000000000000815260040161098793929190613242565b60405180910390fd5b50505050565b600a60009054906101000a900473ffffffffffffffffffffffffffffffffffffffff1673ffffffffffffffffffffffffffffffffffffffff163373ffffffffffffffffffffffffffffffffffffffff1614610a26576040517f08c379a0000000000000000000000000000000000000000000000000000000008152600401610a1d906132c5565b60405180910390fd5b610a2f826104e8565b610a6e576040517f08c379a0000000000000000000000000000000000000000000000000000000008152600401610a6590613331565b60405180910390fd5b806008600084815260200190815260200160002060010160006101000a81548160ff02191690836002811115610aa757610aa6612d5c565b5b0217905550817f2da7b23ca63c1eb969eee5fae4acb98186abecf5358b0354a82a5183ebca6b2a82604051610adc9190613351565b60405180910390a25050565b610b038383836040518060200160405280600081525061110c565b505050565b6060610b1460016114b0565b905090565b6000610b24826113d1565b9050919050565b60008073ffffffffffffffffffffffffffffffffffffffff168273ffffffffffffffffffffffffffffffffffffffff1603610b9e5760006040517f89c62b64000000000000000000000000000000000000000000000000000000008152600401610b959190612769565b60405180910390fd5b600360008373ffffffffffffffffffffffffffffffffffffffff1673ffffffffffffffffffffffffffffffffffffffff168152602001908152602001600020549050919050565b6060610bf160006114b0565b905090565b60606000600960008573ffffffffffffffffffffffffffffffffffffffff1673ffffffffffffffffffffffffffffffffffffffff16815260200190815260200160002090506000805b8280549050811015610cd857846002811115610c5e57610c5d612d5c565b5b60086000858481548110610c7557610c7461336c565b5b9060005260206000200154815260200190815260200160002060010160009054906101000a900460ff166002811115610cb157610cb0612d5c565b5b03610cc5578180610cc190612f45565b9250505b8080610cd090612f45565b915050610c3f565b5060008167ffffffffffffffff811115610cf557610cf46128da565b5b604051908082528060200260200182016040528015610d235781602001602082028036833780820191505090505b5090506000805b8480549050811015610e0057866002811115610d4957610d48612d5c565b5b60086000878481548110610d6057610d5f61336c565b5b9060005260206000200154815260200190815260200160002060010160009054906101000a900460ff166002811115610d9c57610d9b612d5c565b5b03610ded57848181548110610db457610db361336c565b5b9060005260206000200154838381518110610dd257610dd161336c565b5b6020026020010181815250508180610de990612f45565b9250505b8080610df890612f45565b915050610d2a565b508194505050505092915050565b600a60009054906101000a900473ffffffffffffffffffffffffffffffffffffffff1673ffffffffffffffffffffffffffffffffffffffff163373ffffffffffffffffffffffffffffffffffffffff1614610e9e576040517f08c379a0000000000000000000000000000000000000000000000000000000008152600401610e95906133e7565b60405180910390fd5b600073ffffffffffffffffffffffffffffffffffffffff168173ffffffffffffffffffffffffffffffffffffffff1603610f0d576040517f08c379a0000000000000000000000000000000000000000000000000000000008152600401610f0490613453565b60405180910390fd5b8073ffffffffffffffffffffffffffffffffffffffff16600a60009054906101000a900473ffffffffffffffffffffffffffffffffffffffff1673ffffffffffffffffffffffffffffffffffffffff167f7e644d79422f17c01e4894b5f4f588d331ebfa28653d42ae832dc59e38c9798f60405160405180910390a380600a60006101000a81548173ffffffffffffffffffffffffffffffffffffffff021916908373ffffffffffffffffffffffffffffffffffffffff16021790555050565b606060018054610fdc90612ee5565b80601f016020809104026020016040519081016040528092919081815260200182805461100890612ee5565b80156110555780601f1061102a57610100808354040283529160200191611055565b820191906000526020600020905b81548152906001019060200180831161103857829003601f168201915b5050505050905090565b61107161106a611496565b838361199d565b5050565b6060600960008373ffffffffffffffffffffffffffffffffffffffff1673ffffffffffffffffffffffffffffffffffffffff16815260200190815260200160002080548060200260200160405190810160405280929190818152602001828054801561110057602002820191906000526020600020905b8154815260200190600101908083116110ec575b50505050509050919050565b611117848484610894565b61112b611122611496565b85858585611b0c565b50505050565b60086020528060005260406000206000915090508060000154908060010160009054906101000a900460ff169080600201805461116d90612ee5565b80601f016020809104026020016040519081016040528092919081815260200182805461119990612ee5565b80156111e65780601f106111bb576101008083540402835291602001916111e6565b820191906000526020600020905b8154815290600101906020018083116111c957829003601f168201915b5050505050908060030160009054906101000a900473ffffffffffffffffffffffffffffffffffffffff169080600401805461122190612ee5565b80601f016020809104026020016040519081016040528092919081815260200182805461124d90612ee5565b801561129a5780601f1061126f5761010080835404028352916020019161129a565b820191906000526020600020905b81548152906001019060200180831161127d57829003601f168201915b5050505050905085565b60606112af82611cbd565b9050919050565b6000600560008473ffffffffffffffffffffffffffffffffffffffff1673ffffffffffffffffffffffffffffffffffffffff16815260200190815260200160002060008373ffffffffffffffffffffffffffffffffffffffff1673ffffffffffffffffffffffffffffffffffffffff16815260200190815260200160002060009054906101000a900460ff16905092915050565b600a60009054906101000a900473ffffffffffffffffffffffffffffffffffffffff1681565b6000634906490660e01b7bffffffffffffffffffffffffffffffffffffffffffffffffffffffff1916827bffffffffffffffffffffffffffffffffffffffffffffffffffffffff191614806113ca57506113c982611dd0565b5b9050919050565b6000806113dd83611eb2565b9050600073ffffffffffffffffffffffffffffffffffffffff168173ffffffffffffffffffffffffffffffffffffffff160361145057826040517f7e2732890000000000000000000000000000000000000000000000000000000081526004016114479190612a8c565b60405180910390fd5b80915050919050565b60006004600083815260200190815260200160002060009054906101000a900473ffffffffffffffffffffffffffffffffffffffff169050919050565b600033905090565b6114ab8383836001611eef565b505050565b6060600080600190505b6007548111611533578360028111156114d6576114d5612d5c565b5b6008600083815260200190815260200160002060010160009054906101000a900460ff16600281111561150c5761150b612d5c565b5b0361152057818061151c90612f45565b9250505b808061152b90612f45565b9150506114ba565b5060008167ffffffffffffffff8111156115505761154f6128da565b5b60405190808252806020026020018201604052801561157e5781602001602082028036833780820191505090505b509050600080600190505b6007548111611622578560028111156115a5576115a4612d5c565b5b6008600083815260200190815260200160002060010160009054906101000a900460ff1660028111156115db576115da612d5c565b5b0361160f57808383815181106115f4576115f361336c565b5b602002602001018181525050818061160b90612f45565b9250505b808061161a90612f45565b915050611589565b50819350505050919050565b600073ffffffffffffffffffffffffffffffffffffffff168273ffffffffffffffffffffffffffffffffffffffff16036116a05760006040517f64a0ae920000000000000000000000000000000000000000000000000000000081526004016116979190612769565b60405180910390fd5b60006116ae83836000611783565b9050600073ffffffffffffffffffffffffffffffffffffffff168173ffffffffffffffffffffffffffffffffffffffff16146117225760006040517f73c6ac6e0000000000000000000000000000000000000000000000000000000081526004016117199190612769565b60405180910390fd5b505050565b806006600084815260200190815260200160002090816117479190613139565b507ff8e1a15aba9398e019f0b49df1a4fde98ee17ae345cb5f6b5e2c27f5033e8ce7826040516117779190612a8c565b60405180910390a15050565b60008061178f84611eb2565b9050600073ffffffffffffffffffffffffffffffffffffffff168373ffffffffffffffffffffffffffffffffffffffff16146117d1576117d08184866120b4565b5b600073ffffffffffffffffffffffffffffffffffffffff168173ffffffffffffffffffffffffffffffffffffffff161461186257611813600085600080611eef565b6001600360008373ffffffffffffffffffffffffffffffffffffffff1673ffffffffffffffffffffffffffffffffffffffff168152602001908152602001600020600082825403925050819055505b600073ffffffffffffffffffffffffffffffffffffffff168573ffffffffffffffffffffffffffffffffffffffff16146118e5576001600360008773ffffffffffffffffffffffffffffffffffffffff1673ffffffffffffffffffffffffffffffffffffffff168152602001908152602001600020600082825401925050819055505b846002600086815260200190815260200160002060006101000a81548173ffffffffffffffffffffffffffffffffffffffff021916908373ffffffffffffffffffffffffffffffffffffffff160217905550838573ffffffffffffffffffffffffffffffffffffffff168273ffffffffffffffffffffffffffffffffffffffff167fddf252ad1be2c89b69c2b068fc378daa952ba7f163c4a11628f55a4df523b3ef60405160405180910390a4809150509392505050565b600073ffffffffffffffffffffffffffffffffffffffff168273ffffffffffffffffffffffffffffffffffffffff1603611a0e57816040517f5b08ba18000000000000000000000000000000000000000000000000000000008152600401611a059190612769565b60405180910390fd5b80600560008573ffffffffffffffffffffffffffffffffffffffff1673ffffffffffffffffffffffffffffffffffffffff16815260200190815260200160002060008473ffffffffffffffffffffffffffffffffffffffff1673ffffffffffffffffffffffffffffffffffffffff16815260200190815260200160002060006101000a81548160ff0219169083151502179055508173ffffffffffffffffffffffffffffffffffffffff168373ffffffffffffffffffffffffffffffffffffffff167f17307eab39ab6107e8899845ad3d59bd9653f200f220920489ca2b5937696c3183604051611aff91906125d6565b60405180910390a3505050565b60008373ffffffffffffffffffffffffffffffffffffffff163b1115611cb6578273ffffffffffffffffffffffffffffffffffffffff1663150b7a02868685856040518563ffffffff1660e01b8152600401611b6b94939291906134c8565b6020604051808303816000875af1925050508015611ba757506040513d601f19601f82011682018060405250810190611ba49190613529565b60015b611c2b573d8060008114611bd7576040519150601f19603f3d011682016040523d82523d6000602084013e611bdc565b606091505b506000815103611c2357836040517f64a0ae92000000000000000000000000000000000000000000000000000000008152600401611c1a9190612769565b60405180910390fd5b805181602001fd5b63150b7a0260e01b7bffffffffffffffffffffffffffffffffffffffffffffffffffffffff1916817bffffffffffffffffffffffffffffffffffffffffffffffffffffffff191614611cb457836040517f64a0ae92000000000000000000000000000000000000000000000000000000008152600401611cab9190612769565b60405180910390fd5b505b5050505050565b6060611cc8826113d1565b506000600660008481526020019081526020016000208054611ce990612ee5565b80601f0160208091040260200160405190810160405280929190818152602001828054611d1590612ee5565b8015611d625780601f10611d3757610100808354040283529160200191611d62565b820191906000526020600020905b815481529060010190602001808311611d4557829003601f168201915b505050505090506000611d73612178565b90506000815103611d88578192505050611dcb565b600082511115611dbd578082604051602001611da5929190613592565b60405160208183030381529060405292505050611dcb565b611dc68461218f565b925050505b919050565b60007f80ac58cd000000000000000000000000000000000000000000000000000000007bffffffffffffffffffffffffffffffffffffffffffffffffffffffff1916827bffffffffffffffffffffffffffffffffffffffffffffffffffffffff19161480611e9b57507f5b5e139f000000000000000000000000000000000000000000000000000000007bffffffffffffffffffffffffffffffffffffffffffffffffffffffff1916827bffffffffffffffffffffffffffffffffffffffffffffffffffffffff1916145b80611eab5750611eaa826121f8565b5b9050919050565b60006002600083815260200190815260200160002060009054906101000a900473ffffffffffffffffffffffffffffffffffffffff169050919050565b8080611f285750600073ffffffffffffffffffffffffffffffffffffffff168273ffffffffffffffffffffffffffffffffffffffff1614155b1561205c576000611f38846113d1565b9050600073ffffffffffffffffffffffffffffffffffffffff168373ffffffffffffffffffffffffffffffffffffffff1614158015611fa357508273ffffffffffffffffffffffffffffffffffffffff168173ffffffffffffffffffffffffffffffffffffffff1614155b8015611fb65750611fb481846112b6565b155b15611ff857826040517fa9fbf51f000000000000000000000000000000000000000000000000000000008152600401611fef9190612769565b60405180910390fd5b811561205a57838573ffffffffffffffffffffffffffffffffffffffff168273ffffffffffffffffffffffffffffffffffffffff167f8c5be1e5ebec7d5bd14f71427d1e84f3dd0314c0f7b2291e5b200ac8c7c3b92560405160405180910390a45b505b836004600085815260200190815260200160002060006101000a81548173ffffffffffffffffffffffffffffffffffffffff021916908373ffffffffffffffffffffffffffffffffffffffff16021790555050505050565b6120bf838383612262565b61217357600073ffffffffffffffffffffffffffffffffffffffff168373ffffffffffffffffffffffffffffffffffffffff160361213457806040517f7e27328900000000000000000000000000000000000000000000000000000000815260040161212b9190612a8c565b60405180910390fd5b81816040517f177e802f00000000000000000000000000000000000000000000000000000000815260040161216a9291906135b6565b60405180910390fd5b505050565b606060405180602001604052806000815250905090565b606061219a826113d1565b5060006121a5612178565b905060008151116121c557604051806020016040528060008152506121f0565b806121cf84612323565b6040516020016121e0929190613592565b6040516020818303038152906040525b915050919050565b60007f01ffc9a7000000000000000000000000000000000000000000000000000000007bffffffffffffffffffffffffffffffffffffffffffffffffffffffff1916827bffffffffffffffffffffffffffffffffffffffffffffffffffffffff1916149050919050565b60008073ffffffffffffffffffffffffffffffffffffffff168373ffffffffffffffffffffffffffffffffffffffff161415801561231a57508273ffffffffffffffffffffffffffffffffffffffff168473ffffffffffffffffffffffffffffffffffffffff1614806122db57506122da84846112b6565b5b8061231957508273ffffffffffffffffffffffffffffffffffffffff1661230183611459565b73ffffffffffffffffffffffffffffffffffffffff16145b5b90509392505050565b606060006001612332846123f1565b01905060008167ffffffffffffffff811115612351576123506128da565b5b6040519080825280601f01601f1916602001820160405280156123835781602001600182028036833780820191505090505b509050600082602001820190505b6001156123e6578080600190039150507f3031323334353637383961626364656600000000000000000000000000000000600a86061a8153600a85816123da576123d96135df565b5b04945060008503612391575b819350505050919050565b600080600090507a184f03e93ff9f4daa797ed6e38ed64bf6a1f010000000000000000831061244f577a184f03e93ff9f4daa797ed6e38ed64bf6a1f0100000000000000008381612445576124446135df565b5b0492506040810190505b6d04ee2d6d415b85acef8100000000831061248c576d04ee2d6d415b85acef81000000008381612482576124816135df565b5b0492506020810190505b662386f26fc1000083106124bb57662386f26fc1000083816124b1576124b06135df565b5b0492506010810190505b6305f5e10083106124e4576305f5e10083816124da576124d96135df565b5b0492506008810190505b61271083106125095761271083816124ff576124fe6135df565b5b0492506004810190505b6064831061252c5760648381612522576125216135df565b5b0492506002810190505b600a831061253b576001810190505b80915050919050565b6000604051905090565b600080fd5b600080fd5b6000819050919050565b61256b81612558565b811461257657600080fd5b50565b60008135905061258881612562565b92915050565b6000602082840312156125a4576125a361254e565b5b60006125b284828501612579565b91505092915050565b60008115159050919050565b6125d0816125bb565b82525050565b60006020820190506125eb60008301846125c7565b92915050565b60007fffffffff0000000000000000000000000000000000000000000000000000000082169050919050565b612626816125f1565b811461263157600080fd5b50565b6000813590506126438161261d565b92915050565b60006020828403121561265f5761265e61254e565b5b600061266d84828501612634565b91505092915050565b600081519050919050565b600082825260208201905092915050565b60005b838110156126b0578082015181840152602081019050612695565b60008484015250505050565b6000601f19601f8301169050919050565b60006126d882612676565b6126e28185612681565b93506126f2818560208601612692565b6126fb816126bc565b840191505092915050565b6000602082019050818103600083015261272081846126cd565b905092915050565b600073ffffffffffffffffffffffffffffffffffffffff82169050919050565b600061275382612728565b9050919050565b61276381612748565b82525050565b600060208201905061277e600083018461275a565b92915050565b61278d81612748565b811461279857600080fd5b50565b6000813590506127aa81612784565b92915050565b600080604083850312156127c7576127c661254e565b5b60006127d58582860161279b565b92505060206127e685828601612579565b9150509250929050565b600081519050919050565b600082825260208201905092915050565b6000819050602082019050919050565b61282581612558565b82525050565b6000612837838361281c565b60208301905092915050565b6000602082019050919050565b600061285b826127f0565b61286581856127fb565b93506128708361280c565b8060005b838110156128a1578151612888888261282b565b975061289383612843565b925050600181019050612874565b5085935050505092915050565b600060208201905081810360008301526128c88184612850565b905092915050565b600080fd5b600080fd5b7f4e487b7100000000000000000000000000000000000000000000000000000000600052604160045260246000fd5b612912826126bc565b810181811067ffffffffffffffff82111715612931576129306128da565b5b80604052505050565b6000612944612544565b90506129508282612909565b919050565b600067ffffffffffffffff8211156129705761296f6128da565b5b612979826126bc565b9050602081019050919050565b82818337600083830152505050565b60006129a86129a384612955565b61293a565b9050828152602081018484840111156129c4576129c36128d5565b5b6129cf848285612986565b509392505050565b600082601f8301126129ec576129eb6128d0565b5b81356129fc848260208601612995565b91505092915050565b60008060408385031215612a1c57612a1b61254e565b5b600083013567ffffffffffffffff811115612a3a57612a39612553565b5b612a46858286016129d7565b925050602083013567ffffffffffffffff811115612a6757612a66612553565b5b612a73858286016129d7565b9150509250929050565b612a8681612558565b82525050565b6000602082019050612aa16000830184612a7d565b92915050565b600080600060608486031215612ac057612abf61254e565b5b6000612ace8682870161279b565b9350506020612adf8682870161279b565b9250506040612af086828701612579565b9150509250925092565b60038110612b0757600080fd5b50565b600081359050612b1981612afa565b92915050565b60008060408385031215612b3657612b3561254e565b5b6000612b4485828601612579565b9250506020612b5585828601612b0a565b9150509250929050565b600060208284031215612b7557612b7461254e565b5b6000612b838482850161279b565b91505092915050565b60008060408385031215612ba357612ba261254e565b5b6000612bb18582860161279b565b9250506020612bc285828601612b0a565b9150509250929050565b612bd5816125bb565b8114612be057600080fd5b50565b600081359050612bf281612bcc565b92915050565b60008060408385031215612c0f57612c0e61254e565b5b6000612c1d8582860161279b565b9250506020612c2e85828601612be3565b9150509250929050565b600067ffffffffffffffff821115612c5357612c526128da565b5b612c5c826126bc565b9050602081019050919050565b6000612c7c612c7784612c38565b61293a565b905082815260208101848484011115612c9857612c976128d5565b5b612ca3848285612986565b509392505050565b600082601f830112612cc057612cbf6128d0565b5b8135612cd0848260208601612c69565b91505092915050565b60008060008060808587031215612cf357612cf261254e565b5b6000612d018782880161279b565b9450506020612d128782880161279b565b9350506040612d2387828801612579565b925050606085013567ffffffffffffffff811115612d4457612d43612553565b5b612d5087828801612cab565b91505092959194509250565b7f4e487b7100000000000000000000000000000000000000000000000000000000600052602160045260246000fd5b60038110612d9c57612d9b612d5c565b5b50565b6000819050612dad82612d8b565b919050565b6000612dbd82612d9f565b9050919050565b612dcd81612db2565b82525050565b600060a082019050612de86000830188612a7d565b612df56020830187612dc4565b8181036040830152612e0781866126cd565b9050612e16606083018561275a565b8181036080830152612e2881846126cd565b90509695505050505050565b60008060408385031215612e4b57612e4a61254e565b5b6000612e598582860161279b565b9250506020612e6a8582860161279b565b9150509250929050565b600081519050612e8381612784565b92915050565b600060208284031215612e9f57612e9e61254e565b5b6000612ead84828501612e74565b91505092915050565b7f4e487b7100000000000000000000000000000000000000000000000000000000600052602260045260246000fd5b60006002820490506001821680612efd57607f821691505b602082108103612f1057612f0f612eb6565b5b50919050565b7f4e487b7100000000000000000000000000000000000000000000000000000000600052601160045260246000fd5b6000612f5082612558565b91507fffffffffffffffffffffffffffffffffffffffffffffffffffffffffffffffff8203612f8257612f81612f16565b5b600182019050919050565b60008190508160005260206000209050919050565b60006020601f8301049050919050565b600082821b905092915050565b600060088302612fef7fffffffffffffffffffffffffffffffffffffffffffffffffffffffffffffffff82612fb2565b612ff98683612fb2565b95508019841693508086168417925050509392505050565b6000819050919050565b600061303661303161302c84612558565b613011565b612558565b9050919050565b6000819050919050565b6130508361301b565b61306461305c8261303d565b848454612fbf565b825550505050565b600090565b61307961306c565b613084818484613047565b505050565b5b818110156130a85761309d600082613071565b60018101905061308a565b5050565b601f8211156130ed576130be81612f8d565b6130c784612fa2565b810160208510156130d6578190505b6130ea6130e285612fa2565b830182613089565b50505b505050565b600082821c905092915050565b6000613110600019846008026130f2565b1980831691505092915050565b600061312983836130ff565b9150826002028217905092915050565b61314282612676565b67ffffffffffffffff81111561315b5761315a6128da565b5b6131658254612ee5565b6131708282856130ac565b600060209050601f8311600181146131a35760008415613191578287015190505b61319b858261311d565b865550613203565b601f1984166131b186612f8d565b60005b828110156131d9578489015182556001820191506020850194506020810190506131b4565b868310156131f657848901516131f2601f8916826130ff565b8355505b6001600288020188555050505b505050505050565b6000604082019050818103600083015261322581856126cd565b9050818103602083015261323981846126cd565b90509392505050565b6000606082019050613257600083018661275a565b6132646020830185612a7d565b613271604083018461275a565b949350505050565b7f4f6e6c792061646d696e2063616e207570646174652073746174757300000000600082015250565b60006132af601c83612681565b91506132ba82613279565b602082019050919050565b600060208201905081810360008301526132de816132a2565b9050919050565b7f546f6b656e20646f6573206e6f74206578697374000000000000000000000000600082015250565b600061331b601483612681565b9150613326826132e5565b602082019050919050565b6000602082019050818103600083015261334a8161330e565b9050919050565b60006020820190506133666000830184612dc4565b92915050565b7f4e487b7100000000000000000000000000000000000000000000000000000000600052603260045260246000fd5b7f4f6e6c792061646d696e2063616e206368616e67652061646d696e0000000000600082015250565b60006133d1601b83612681565b91506133dc8261339b565b602082019050919050565b60006020820190508181036000830152613400816133c4565b9050919050565b7f4e65772061646d696e2063616e6e6f74206265207a65726f2061646472657373600082015250565b600061343d602083612681565b915061344882613407565b602082019050919050565b6000602082019050818103600083015261346c81613430565b9050919050565b600081519050919050565b600082825260208201905092915050565b600061349a82613473565b6134a4818561347e565b93506134b4818560208601612692565b6134bd816126bc565b840191505092915050565b60006080820190506134dd600083018761275a565b6134ea602083018661275a565b6134f76040830185612a7d565b8181036060830152613509818461348f565b905095945050505050565b6000815190506135238161261d565b92915050565b60006020828403121561353f5761353e61254e565b5b600061354d84828501613514565b91505092915050565b600081905092915050565b600061356c82612676565b6135768185613556565b9350613586818560208601612692565b80840191505092915050565b600061359e8285613561565b91506135aa8284613561565b91508190509392505050565b60006040820190506135cb600083018561275a565b6135d86020830184612a7d565b9392505050565b7f4e487b7100000000000000000000000000000000000000000000000000000000600052601260045260246000fdfea26469706673582212205c8da32410d0fe46a0b38cdd97f899cde59a95bef392deb84bb3ac3dae6bbabf64736f6c63430008140033",
  "linkReferences": {},
  "deployedLinkReferences": {}
}