{
  "_format": "hh-sol-artifact-1",
  "contractName": "MedicineNFT",
  "sourceName": "blockchain/contracts/medicine.sol",
  "abi": [
    {
      "inputs": [],
      "stateMutability": "nonpayable",
      "type": "constructor"
    },
    {
      "inputs": [
        {
          "internalType": "address",
          "name": "sender",
          "type": "address"
        },
        {
          "internalType": "uint256",
          "name": "tokenId",
          "type": "uint256"
        },
        {
          "internalType": "address",
          "name": "owner",
          "type": "address"
        }
      ],
      "name": "ERC721IncorrectOwner",
      "type": "error"
    },
    {
      "inputs": [
        {
          "internalType": "address",
          "name": "operator",
          "type": "address"
        },
        {
          "internalType": "uint256",
          "name": "tokenId",
          "type": "uint256"
        }
      ],
      "name": "ERC721InsufficientApproval",
      "type": "error"
    },
    {
      "inputs": [
        {
          "internalType": "address",
          "name": "approver",
          "type": "address"
        }
      ],
      "name": "ERC721InvalidApprover",
      "type": "error"
    },
    {
      "inputs": [
        {
          "internalType": "address",
          "name": "operator",
          "type": "address"
        }
      ],
      "name": "ERC721InvalidOperator",
      "type": "error"
    },
    {
      "inputs": [
        {
          "internalType": "address",
          "name": "owner",
          "type": "address"
        }
      ],
      "name": "ERC721InvalidOwner",
      "type": "error"
    },
    {
      "inputs": [
        {
          "internalType": "address",
          "name": "receiver",
          "type": "address"
        }
      ],
      "name": "ERC721InvalidReceiver",
      "type": "error"
    },
    {
      "inputs": [
        {
          "internalType": "address",
          "name": "sender",
          "type": "address"
        }
      ],
      "name": "ERC721InvalidSender",
      "type": "error"
    },
    {
      "inputs": [
        {
          "internalType": "uint256",
          "name": "tokenId",
          "type": "uint256"
        }
      ],
      "name": "ERC721NonexistentToken",
      "type": "error"
    },
    {
      "anonymous": false,
      "inputs": [
        {
          "indexed": true,
          "internalType": "address",
          "name": "owner",
          "type": "address"
        },
        {
          "indexed": true,
          "internalType": "address",
          "name": "approved",
          "type": "address"
        },
        {
          "indexed": true,
          "internalType": "uint256",
          "name": "tokenId",
          "type": "uint256"
        }
      ],
      "name": "Approval",
      "type": "event"
    },
    {
      "anonymous": false,
      "inputs": [
        {
          "indexed": true,
          "internalType": "address",
          "name": "owner",
          "type": "address"
        },
        {
          "indexed": true,
          "internalType": "address",
          "name": "operator",
          "type": "address"
        },
        {
          "indexed": false,
          "internalType": "bool",
          "name": "approved",
          "type": "bool"
        }
      ],
      "name": "ApprovalForAll",
      "type": "event"
    },
    {
      "anonymous": false,
      "inputs": [
        {
          "indexed": false,
          "internalType": "uint256",
          "name": "_fromTokenId",
          "type": "uint256"
        },
        {
          "indexed": false,
          "internalType": "uint256",
          "name": "_toTokenId",
          "type": "uint256"
        }
      ],
      "name": "BatchMetadataUpdate",
      "type": "event"
    },
    {
      "anonymous": false,
      "inputs": [
        {
          "indexed": true,
          "internalType": "address",
          "name": "wallet",
          "type": "address"
        },
        {
          "indexed": false,
          "internalType": "uint256",
          "name": "tokenId",
          "type": "uint256"
        },
        {
          "indexed": false,
          "internalType": "uint256",
          "name": "length",
          "type": "uint256"
        }
      ],
      "name": "DebugMedicinesByWallet",
      "type": "event"
    },
    {
      "anonymous": false,
      "inputs": [
        {
          "indexed": true,
          "internalType": "uint256",
          "name": "tokenId",
          "type": "uint256"
        },
        {
          "indexed": true,
          "internalType": "address",
          "name": "owner",
          "type": "address"
        },
        {
          "indexed": false,
          "internalType": "string",
          "name": "manufacturerId",
          "type": "string"
        },
        {
          "indexed": false,
          "internalType": "string",
          "name": "ipfsHash",
          "type": "string"
        }
      ],
      "name": "MedicineMinted",
      "type": "event"
    },
    {
      "anonymous": false,
      "inputs": [
        {
          "indexed": false,
          "internalType": "uint256",
          "name": "_tokenId",
          "type": "uint256"
        }
      ],
      "name": "MetadataUpdate",
      "type": "event"
    },
    {
      "anonymous": false,
      "inputs": [
        {
          "indexed": true,
          "internalType": "uint256",
          "name": "tokenId",
          "type": "uint256"
        },
        {
          "indexed": false,
          "internalType": "enum MedicineNFT.Status",
          "name": "newStatus",
          "type": "uint8"
        }
      ],
      "name": "StatusUpdated",
      "type": "event"
    },
    {
      "anonymous": false,
      "inputs": [
        {
          "indexed": true,
          "internalType": "address",
          "name": "from",
          "type": "address"
        },
        {
          "indexed": true,
          "internalType": "address",
          "name": "to",
          "type": "address"
        },
        {
          "indexed": true,
          "internalType": "uint256",
          "name": "tokenId",
          "type": "uint256"
        }
      ],
      "name": "Transfer",
      "type": "event"
    },
    {
      "inputs": [
        {
          "internalType": "address",
          "name": "to",
          "type": "address"
        },
        {
          "internalType": "uint256",
          "name": "tokenId",
          "type": "uint256"
        }
      ],
      "name": "approve",
      "outputs": [],
      "stateMutability": "nonpayable",
      "type": "function"
    },
    {
      "inputs": [
        {
          "internalType": "address",
          "name": "owner",
          "type": "address"
        }
      ],
      "name": "balanceOf",
      "outputs": [
        {
          "internalType": "uint256",
          "name": "",
          "type": "uint256"
        }
      ],
      "stateMutability": "view",
      "type": "function"
    },
    {
      "inputs": [
        {
          "internalType": "address",
          "name": "_wallet",
          "type": "address"
        }
      ],
      "name": "getAllMedicinesByManufacturer",
      "outputs": [
        {
          "internalType": "uint256[]",
          "name": "",
          "type": "uint256[]"
        },
        {
          "internalType": "enum MedicineNFT.Status[]",
          "name": "",
          "type": "uint8[]"
        }
      ],
      "stateMutability": "view",
      "type": "function"
    },
    {
      "inputs": [
        {
          "internalType": "uint256",
          "name": "tokenId",
          "type": "uint256"
        }
      ],
      "name": "getApproved",
      "outputs": [
        {
          "internalType": "address",
          "name": "",
          "type": "address"
        }
      ],
      "stateMutability": "view",
      "type": "function"
    },
    {
      "inputs": [],
      "name": "getApprovedMedicines",
      "outputs": [
        {
          "internalType": "uint256[]",
          "name": "",
          "type": "uint256[]"
        }
      ],
      "stateMutability": "view",
      "type": "function"
    },
    {
      "inputs": [],
      "name": "getPendingMedicines",
      "outputs": [
        {
          "internalType": "uint256[]",
          "name": "",
          "type": "uint256[]"
        }
      ],
      "stateMutability": "view",
      "type": "function"
    },
    {
      "inputs": [],
      "name": "getRejectedMedicines",
      "outputs": [
        {
          "internalType": "uint256[]",
          "name": "",
          "type": "uint256[]"
        }
      ],
      "stateMutability": "view",
      "type": "function"
    },
    {
      "inputs": [
        {
          "internalType": "string",
          "name": "hash",
          "type": "string"
        }
      ],
      "name": "getTokenIdByIPFS",
      "outputs": [
        {
          "internalType": "uint256",
          "name": "",
          "type": "uint256"
        }
      ],
      "stateMutability": "view",
      "type": "function"
    },
    {
      "inputs": [
        {
          "internalType": "address",
          "name": "owner",
          "type": "address"
        },
        {
          "internalType": "address",
          "name": "operator",
          "type": "address"
        }
      ],
      "name": "isApprovedForAll",
      "outputs": [
        {
          "internalType": "bool",
          "name": "",
          "type": "bool"
        }
      ],
      "stateMutability": "view",
      "type": "function"
    },
    {
      "inputs": [
        {
          "internalType": "uint256",
          "name": "",
          "type": "uint256"
        }
      ],
      "name": "medicines",
      "outputs": [
        {
          "internalType": "uint256",
          "name": "id",
          "type": "uint256"
        },
        {
          "internalType": "enum MedicineNFT.Status",
          "name": "status",
          "type": "uint8"
        },
        {
          "internalType": "string",
          "name": "manufacturerId",
          "type": "string"
        },
        {
          "internalType": "address",
          "name": "wallet",
          "type": "address"
        },
        {
          "internalType": "string",
          "name": "ipfsHash",
          "type": "string"
        }
      ],
      "stateMutability": "view",
      "type": "function"
    },
    {
      "inputs": [
        {
          "internalType": "string",
          "name": "_manufacturerId",
          "type": "string"
        },
        {
          "internalType": "string",
          "name": "_ipfsHash",
          "type": "string"
        }
      ],
      "name": "mintMedicine",
      "outputs": [
        {
          "internalType": "uint256",
          "name": "",
          "type": "uint256"
        }
      ],
      "stateMutability": "nonpayable",
      "type": "function"
    },
    {
      "inputs": [],
      "name": "name",
      "outputs": [
        {
          "internalType": "string",
          "name": "",
          "type": "string"
        }
      ],
      "stateMutability": "view",
      "type": "function"
    },
    {
      "inputs": [
        {
          "internalType": "uint256",
          "name": "tokenId",
          "type": "uint256"
        }
      ],
      "name": "ownerOf",
      "outputs": [
        {
          "internalType": "address",
          "name": "",
          "type": "address"
        }
      ],
      "stateMutability": "view",
      "type": "function"
    },
    {
      "inputs": [
        {
          "internalType": "address",
          "name": "from",
          "type": "address"
        },
        {
          "internalType": "address",
          "name": "to",
          "type": "address"
        },
        {
          "internalType": "uint256",
          "name": "tokenId",
          "type": "uint256"
        }
      ],
      "name": "safeTransferFrom",
      "outputs": [],
      "stateMutability": "nonpayable",
      "type": "function"
    },
    {
      "inputs": [
        {
          "internalType": "address",
          "name": "from",
          "type": "address"
        },
        {
          "internalType": "address",
          "name": "to",
          "type": "address"
        },
        {
          "internalType": "uint256",
          "name": "tokenId",
          "type": "uint256"
        },
        {
          "internalType": "bytes",
          "name": "data",
          "type": "bytes"
        }
      ],
      "name": "safeTransferFrom",
      "outputs": [],
      "stateMutability": "nonpayable",
      "type": "function"
    },
    {
      "inputs": [
        {
          "internalType": "address",
          "name": "operator",
          "type": "address"
        },
        {
          "internalType": "bool",
          "name": "approved",
          "type": "bool"
        }
      ],
      "name": "setApprovalForAll",
      "outputs": [],
      "stateMutability": "nonpayable",
      "type": "function"
    },
    {
      "inputs": [
        {
          "internalType": "bytes4",
          "name": "interfaceId",
          "type": "bytes4"
        }
      ],
      "name": "supportsInterface",
      "outputs": [
        {
          "internalType": "bool",
          "name": "",
          "type": "bool"
        }
      ],
      "stateMutability": "view",
      "type": "function"
    },
    {
      "inputs": [],
      "name": "symbol",
      "outputs": [
        {
          "internalType": "string",
          "name": "",
          "type": "string"
        }
      ],
      "stateMutability": "view",
      "type": "function"
    },
    {
      "inputs": [
        {
          "internalType": "uint256",
          "name": "_tokenId",
          "type": "uint256"
        }
      ],
      "name": "tokenExists",
      "outputs": [
        {
          "internalType": "bool",
          "name": "",
          "type": "bool"
        }
      ],
      "stateMutability": "view",
      "type": "function"
    },
    {
      "inputs": [
        {
          "internalType": "uint256",
          "name": "tokenId",
          "type": "uint256"
        }
      ],
      "name": "tokenURI",
      "outputs": [
        {
          "internalType": "string",
          "name": "",
          "type": "string"
        }
      ],
      "stateMutability": "view",
      "type": "function"
    },
    {
      "inputs": [
        {
          "internalType": "address",
          "name": "from",
          "type": "address"
        },
        {
          "internalType": "address",
          "name": "to",
          "type": "address"
        },
        {
          "internalType": "uint256",
          "name": "tokenId",
          "type": "uint256"
        }
      ],
      "name": "transferFrom",
      "outputs": [],
      "stateMutability": "nonpayable",
      "type": "function"
    },
    {
      "inputs": [
        {
          "internalType": "uint256",
          "name": "_tokenId",
          "type": "uint256"
        },
        {
          "internalType": "enum MedicineNFT.Status",
          "name": "_newStatus",
          "type": "uint8"
        }
      ],
      "name": "updateStatus",
      "outputs": [],
      "stateMutability": "nonpayable",
      "type": "function"
    },
    {
      "inputs": [
        {
          "internalType": "string",
          "name": "_ipfsHash",
          "type": "string"
        }
      ],
      "name": "verifyMedicineByQR",
      "outputs": [
        {
          "internalType": "bool",
          "name": "",
          "type": "bool"
        }
      ],
      "stateMutability": "view",
      "type": "function"
    }
  ],
  "bytecode": "0x60806040523480156200001157600080fd5b506040518060400160405280600b81526020017f4d65646963696e654e46540000000000000000000000000000000000000000008152506040518060400160405280600681526020017f4d45444e4654000000000000000000000000000000000000000000000000000081525081600090816200008f919062000324565b508060019081620000a1919062000324565b5050506200040b565b600081519050919050565b7f4e487b7100000000000000000000000000000000000000000000000000000000600052604160045260246000fd5b7f4e487b7100000000000000000000000000000000000000000000000000000000600052602260045260246000fd5b600060028204905060018216806200012c57607f821691505b602082108103620001425762000141620000e4565b5b50919050565b60008190508160005260206000209050919050565b60006020601f8301049050919050565b600082821b905092915050565b600060088302620001ac7fffffffffffffffffffffffffffffffffffffffffffffffffffffffffffffffff826200016d565b620001b886836200016d565b95508019841693508086168417925050509392505050565b6000819050919050565b6000819050919050565b600062000205620001ff620001f984620001d0565b620001da565b620001d0565b9050919050565b6000819050919050565b6200022183620001e4565b6200023962000230826200020c565b8484546200017a565b825550505050565b600090565b6200025062000241565b6200025d81848462000216565b505050565b5b8181101562000285576200027960008262000246565b60018101905062000263565b5050565b601f821115620002d4576200029e8162000148565b620002a9846200015d565b81016020851015620002b9578190505b620002d1620002c8856200015d565b83018262000262565b50505b505050565b600082821c905092915050565b6000620002f960001984600802620002d9565b1980831691505092915050565b6000620003148383620002e6565b9150826002028217905092915050565b6200032f82620000aa565b67ffffffffffffffff8111156200034b576200034a620000b5565b5b62000357825462000113565b6200036482828562000289565b600060209050601f8311600181146200039c576000841562000387578287015190505b62000393858262000306565b86555062000403565b601f198416620003ac8662000148565b60005b82811015620003d657848901518255600182019150602085019450602081019050620003af565b86831015620003f65784890151620003f2601f891682620002e6565b8355505b6001600288020188555050505b505050505050565b61347d806200041b6000396000f3fe608060405234801561001057600080fd5b506004361061014c5760003560e01c80636352211e116100c3578063a22cb4651161007c578063a22cb465146103d8578063b04458ca146103f4578063b88d4fde14610424578063c85e766d14610440578063c87b56dd14610474578063e985e9c5146104a45761014c565b80636352211e146102db57806369294bd11461030b57806370a082311461033b5780637d4ba4831461036b57806395d89b411461038957806396e33732146103a75761014c565b80630f117e3e116101155780630f117e3e1461021b5780631b5b085d1461023957806323b872dd146102695780633a1b3d311461028557806342842e0e146102a15780635a01fee0146102bd5761014c565b8062923f9e1461015157806301ffc9a71461018157806306fdde03146101b1578063081812fc146101cf578063095ea7b3146101ff575b600080fd5b61016b600480360381019061016691906123cd565b6104d4565b6040516101789190612415565b60405180910390f35b61019b60048036038101906101969190612488565b610590565b6040516101a89190612415565b60405180910390f35b6101b96105f1565b6040516101c69190612545565b60405180910390f35b6101e960048036038101906101e491906123cd565b610683565b6040516101f691906125a8565b60405180910390f35b610219600480360381019061021491906125ef565b61069f565b005b6102236106b5565b60405161023091906126ed565b60405180910390f35b610253600480360381019061024e9190612844565b6106c6565b60405161026091906128cb565b60405180910390f35b610283600480360381019061027e91906128e6565b61098a565b005b61029f600480360381019061029a919061295e565b610a8c565b005b6102bb60048036038101906102b691906128e6565b610b4e565b005b6102c5610b6e565b6040516102d291906126ed565b60405180910390f35b6102f560048036038101906102f091906123cd565b610b7f565b60405161030291906125a8565b60405180910390f35b6103256004803603810190610320919061299e565b610b91565b6040516103329190612415565b60405180910390f35b610355600480360381019061035091906129e7565b610c4e565b60405161036291906128cb565b60405180910390f35b610373610d08565b60405161038091906126ed565b60405180910390f35b610391610d19565b60405161039e9190612545565b60405180910390f35b6103c160048036038101906103bc91906129e7565b610dab565b6040516103cf929190612b3a565b60405180910390f35b6103f260048036038101906103ed9190612b9d565b610fa6565b005b61040e6004803603810190610409919061299e565b610fbc565b60405161041b91906128cb565b60405180910390f35b61043e60048036038101906104399190612c7e565b610fe4565b005b61045a600480360381019061045591906123cd565b611009565b60405161046b959493929190612d10565b60405180910390f35b61048e600480360381019061048991906123cd565b61117c565b60405161049b9190612545565b60405180910390f35b6104be60048036038101906104b99190612d71565b61128f565b6040516104cb9190612415565b60405180910390f35b60003073ffffffffffffffffffffffffffffffffffffffff16636352211e836040518263ffffffff1660e01b815260040161050f91906128cb565b602060405180830381865afa92505050801561054957506040513d601f19601f820116820180604052508101906105469190612dc6565b60015b610556576000905061058b565b600073ffffffffffffffffffffffffffffffffffffffff168173ffffffffffffffffffffffffffffffffffffffff1614159150505b919050565b6000634906490660e01b7bffffffffffffffffffffffffffffffffffffffffffffffffffffffff1916827bffffffffffffffffffffffffffffffffffffffffffffffffffffffff191614806105ea57506105e982611323565b5b9050919050565b60606000805461060090612e22565b80601f016020809104026020016040519081016040528092919081815260200182805461062c90612e22565b80156106795780601f1061064e57610100808354040283529160200191610679565b820191906000526020600020905b81548152906001019060200180831161065c57829003601f168201915b5050505050905090565b600061068e82611405565b506106988261148d565b9050919050565b6106b182826106ac6114ca565b6114d2565b5050565b60606106c160026114e4565b905090565b6000600760008154809291906106db90612e82565b9190505550600060075490506106f13382611662565b6106fb818461175b565b6040518060a00160405280828152602001600060028111156107205761071f612a40565b5b81526020018581526020013373ffffffffffffffffffffffffffffffffffffffff16815260200184815250600860008381526020019081526020016000206000820151816000015560208201518160010160006101000a81548160ff0219169083600281111561079357610792612a40565b5b021790555060408201518160020190816107ad9190613076565b5060608201518160030160006101000a81548173ffffffffffffffffffffffffffffffffffffffff021916908373ffffffffffffffffffffffffffffffffffffffff160217905550608082015181600401908161080a9190613076565b5090505080600a8460405161081f9190613184565b908152602001604051809103902081905550600960003373ffffffffffffffffffffffffffffffffffffffff1673ffffffffffffffffffffffffffffffffffffffff1681526020019081526020016000208190806001815401808255809150506001900390600052602060002001600090919091909150556000600960003373ffffffffffffffffffffffffffffffffffffffff1673ffffffffffffffffffffffffffffffffffffffff1681526020019081526020016000208054905090503373ffffffffffffffffffffffffffffffffffffffff16827f5cc58fcf233a683ca30a98579036fc4bd6de2807a3e0bbaa38a7b9af39498a5a878760405161092792919061319b565b60405180910390a33373ffffffffffffffffffffffffffffffffffffffff167f8b1f5fba8124858ce7e9f9b326f418b5053e2d109db873b4710af33be7a94e5a83836040516109779291906131d2565b60405180910390a2819250505092915050565b600073ffffffffffffffffffffffffffffffffffffffff168273ffffffffffffffffffffffffffffffffffffffff16036109fc5760006040517f64a0ae920000000000000000000000000000000000000000000000000000000081526004016109f391906125a8565b60405180910390fd5b6000610a108383610a0b6114ca565b6117b7565b90508373ffffffffffffffffffffffffffffffffffffffff168173ffffffffffffffffffffffffffffffffffffffff1614610a86578382826040517f64283d7b000000000000000000000000000000000000000000000000000000008152600401610a7d939291906131fb565b60405180910390fd5b50505050565b610a95826104d4565b610ad4576040517f08c379a0000000000000000000000000000000000000000000000000000000008152600401610acb9061327e565b60405180910390fd5b806008600084815260200190815260200160002060010160006101000a81548160ff02191690836002811115610b0d57610b0c612a40565b5b0217905550817f2da7b23ca63c1eb969eee5fae4acb98186abecf5358b0354a82a5183ebca6b2a82604051610b42919061329e565b60405180910390a25050565b610b6983838360405180602001604052806000815250610fe4565b505050565b6060610b7a60016114e4565b905090565b6000610b8a82611405565b9050919050565b600080825103610ba45760009050610c49565b6000600a83604051610bb69190613184565b90815260200160405180910390205490506000811480610bec575080600860008381526020019081526020016000206000015414155b15610bfb576000915050610c49565b600280811115610c0e57610c0d612a40565b5b6008600083815260200190815260200160002060010160009054906101000a900460ff166002811115610c4457610c43612a40565b5b149150505b919050565b60008073ffffffffffffffffffffffffffffffffffffffff168273ffffffffffffffffffffffffffffffffffffffff1603610cc15760006040517f89c62b64000000000000000000000000000000000000000000000000000000008152600401610cb891906125a8565b60405180910390fd5b600360008373ffffffffffffffffffffffffffffffffffffffff1673ffffffffffffffffffffffffffffffffffffffff168152602001908152602001600020549050919050565b6060610d1460006114e4565b905090565b606060018054610d2890612e22565b80601f0160208091040260200160405190810160405280929190818152602001828054610d5490612e22565b8015610da15780601f10610d7657610100808354040283529160200191610da1565b820191906000526020600020905b815481529060010190602001808311610d8457829003601f168201915b5050505050905090565b6060806000600960008573ffffffffffffffffffffffffffffffffffffffff1673ffffffffffffffffffffffffffffffffffffffff16815260200190815260200160002080549050905060008167ffffffffffffffff811115610e1157610e10612719565b5b604051908082528060200260200182016040528015610e3f5781602001602082028036833780820191505090505b50905060008267ffffffffffffffff811115610e5e57610e5d612719565b5b604051908082528060200260200182016040528015610e8c5781602001602082028036833780820191505090505b50905060005b83811015610f97576000600960008973ffffffffffffffffffffffffffffffffffffffff1673ffffffffffffffffffffffffffffffffffffffff1681526020019081526020016000208281548110610eed57610eec6132b9565b5b9060005260206000200154905080848381518110610f0e57610f0d6132b9565b5b6020026020010181815250506008600082815260200190815260200160002060010160009054906101000a900460ff16838381518110610f5157610f506132b9565b5b60200260200101906002811115610f6b57610f6a612a40565b5b90816002811115610f7f57610f7e612a40565b5b81525050508080610f8f90612e82565b915050610e92565b50818194509450505050915091565b610fb8610fb16114ca565b83836119d1565b5050565b6000600a82604051610fce9190613184565b9081526020016040518091039020549050919050565b610fef84848461098a565b611003610ffa6114ca565b85858585611b40565b50505050565b60086020528060005260406000206000915090508060000154908060010160009054906101000a900460ff169080600201805461104590612e22565b80601f016020809104026020016040519081016040528092919081815260200182805461107190612e22565b80156110be5780601f10611093576101008083540402835291602001916110be565b820191906000526020600020905b8154815290600101906020018083116110a157829003601f168201915b5050505050908060030160009054906101000a900473ffffffffffffffffffffffffffffffffffffffff16908060040180546110f990612e22565b80601f016020809104026020016040519081016040528092919081815260200182805461112590612e22565b80156111725780601f1061114757610100808354040283529160200191611172565b820191906000526020600020905b81548152906001019060200180831161115557829003601f168201915b5050505050905085565b606061118782611405565b5060006006600084815260200190815260200160002080546111a890612e22565b80601f01602080910402602001604051908101604052809291908181526020018280546111d490612e22565b80156112215780601f106111f657610100808354040283529160200191611221565b820191906000526020600020905b81548152906001019060200180831161120457829003601f168201915b505050505090506000611232611cf1565b9050600081510361124757819250505061128a565b60008251111561127c5780826040516020016112649291906132e8565b6040516020818303038152906040529250505061128a565b61128584611d08565b925050505b919050565b6000600560008473ffffffffffffffffffffffffffffffffffffffff1673ffffffffffffffffffffffffffffffffffffffff16815260200190815260200160002060008373ffffffffffffffffffffffffffffffffffffffff1673ffffffffffffffffffffffffffffffffffffffff16815260200190815260200160002060009054906101000a900460ff16905092915050565b60007f80ac58cd000000000000000000000000000000000000000000000000000000007bffffffffffffffffffffffffffffffffffffffffffffffffffffffff1916827bffffffffffffffffffffffffffffffffffffffffffffffffffffffff191614806113ee57507f5b5e139f000000000000000000000000000000000000000000000000000000007bffffffffffffffffffffffffffffffffffffffffffffffffffffffff1916827bffffffffffffffffffffffffffffffffffffffffffffffffffffffff1916145b806113fe57506113fd82611d71565b5b9050919050565b60008061141183611ddb565b9050600073ffffffffffffffffffffffffffffffffffffffff168173ffffffffffffffffffffffffffffffffffffffff160361148457826040517f7e27328900000000000000000000000000000000000000000000000000000000815260040161147b91906128cb565b60405180910390fd5b80915050919050565b60006004600083815260200190815260200160002060009054906101000a900473ffffffffffffffffffffffffffffffffffffffff169050919050565b600033905090565b6114df8383836001611e18565b505050565b6060600080600190505b60075481116115675783600281111561150a57611509612a40565b5b6008600083815260200190815260200160002060010160009054906101000a900460ff1660028111156115405761153f612a40565b5b0361155457818061155090612e82565b9250505b808061155f90612e82565b9150506114ee565b5060008167ffffffffffffffff81111561158457611583612719565b5b6040519080825280602002602001820160405280156115b25781602001602082028036833780820191505090505b509050600080600190505b6007548111611656578560028111156115d9576115d8612a40565b5b6008600083815260200190815260200160002060010160009054906101000a900460ff16600281111561160f5761160e612a40565b5b036116435780838381518110611628576116276132b9565b5b602002602001018181525050818061163f90612e82565b9250505b808061164e90612e82565b9150506115bd565b50819350505050919050565b600073ffffffffffffffffffffffffffffffffffffffff168273ffffffffffffffffffffffffffffffffffffffff16036116d45760006040517f64a0ae920000000000000000000000000000000000000000000000000000000081526004016116cb91906125a8565b60405180910390fd5b60006116e2838360006117b7565b9050600073ffffffffffffffffffffffffffffffffffffffff168173ffffffffffffffffffffffffffffffffffffffff16146117565760006040517f73c6ac6e00000000000000000000000000000000000000000000000000000000815260040161174d91906125a8565b60405180910390fd5b505050565b8060066000848152602001908152602001600020908161177b9190613076565b507ff8e1a15aba9398e019f0b49df1a4fde98ee17ae345cb5f6b5e2c27f5033e8ce7826040516117ab91906128cb565b60405180910390a15050565b6000806117c384611ddb565b9050600073ffffffffffffffffffffffffffffffffffffffff168373ffffffffffffffffffffffffffffffffffffffff161461180557611804818486611fdd565b5b600073ffffffffffffffffffffffffffffffffffffffff168173ffffffffffffffffffffffffffffffffffffffff161461189657611847600085600080611e18565b6001600360008373ffffffffffffffffffffffffffffffffffffffff1673ffffffffffffffffffffffffffffffffffffffff168152602001908152602001600020600082825403925050819055505b600073ffffffffffffffffffffffffffffffffffffffff168573ffffffffffffffffffffffffffffffffffffffff1614611919576001600360008773ffffffffffffffffffffffffffffffffffffffff1673ffffffffffffffffffffffffffffffffffffffff168152602001908152602001600020600082825401925050819055505b846002600086815260200190815260200160002060006101000a81548173ffffffffffffffffffffffffffffffffffffffff021916908373ffffffffffffffffffffffffffffffffffffffff160217905550838573ffffffffffffffffffffffffffffffffffffffff168273ffffffffffffffffffffffffffffffffffffffff167fddf252ad1be2c89b69c2b068fc378daa952ba7f163c4a11628f55a4df523b3ef60405160405180910390a4809150509392505050565b600073ffffffffffffffffffffffffffffffffffffffff168273ffffffffffffffffffffffffffffffffffffffff1603611a4257816040517f5b08ba18000000000000000000000000000000000000000000000000000000008152600401611a3991906125a8565b60405180910390fd5b80600560008573ffffffffffffffffffffffffffffffffffffffff1673ffffffffffffffffffffffffffffffffffffffff16815260200190815260200160002060008473ffffffffffffffffffffffffffffffffffffffff1673ffffffffffffffffffffffffffffffffffffffff16815260200190815260200160002060006101000a81548160ff0219169083151502179055508173ffffffffffffffffffffffffffffffffffffffff168373ffffffffffffffffffffffffffffffffffffffff167f17307eab39ab6107e8899845ad3d59bd9653f200f220920489ca2b5937696c3183604051611b339190612415565b60405180910390a3505050565b60008373ffffffffffffffffffffffffffffffffffffffff163b1115611cea578273ffffffffffffffffffffffffffffffffffffffff1663150b7a02868685856040518563ffffffff1660e01b8152600401611b9f9493929190613361565b6020604051808303816000875af1925050508015611bdb57506040513d601f19601f82011682018060405250810190611bd891906133c2565b60015b611c5f573d8060008114611c0b576040519150601f19603f3d011682016040523d82523d6000602084013e611c10565b606091505b506000815103611c5757836040517f64a0ae92000000000000000000000000000000000000000000000000000000008152600401611c4e91906125a8565b60405180910390fd5b805181602001fd5b63150b7a0260e01b7bffffffffffffffffffffffffffffffffffffffffffffffffffffffff1916817bffffffffffffffffffffffffffffffffffffffffffffffffffffffff191614611ce857836040517f64a0ae92000000000000000000000000000000000000000000000000000000008152600401611cdf91906125a8565b60405180910390fd5b505b5050505050565b606060405180602001604052806000815250905090565b6060611d1382611405565b506000611d1e611cf1565b90506000815111611d3e5760405180602001604052806000815250611d69565b80611d48846120a1565b604051602001611d599291906132e8565b6040516020818303038152906040525b915050919050565b60007f01ffc9a7000000000000000000000000000000000000000000000000000000007bffffffffffffffffffffffffffffffffffffffffffffffffffffffff1916827bffffffffffffffffffffffffffffffffffffffffffffffffffffffff1916149050919050565b60006002600083815260200190815260200160002060009054906101000a900473ffffffffffffffffffffffffffffffffffffffff169050919050565b8080611e515750600073ffffffffffffffffffffffffffffffffffffffff168273ffffffffffffffffffffffffffffffffffffffff1614155b15611f85576000611e6184611405565b9050600073ffffffffffffffffffffffffffffffffffffffff168373ffffffffffffffffffffffffffffffffffffffff1614158015611ecc57508273ffffffffffffffffffffffffffffffffffffffff168173ffffffffffffffffffffffffffffffffffffffff1614155b8015611edf5750611edd818461128f565b155b15611f2157826040517fa9fbf51f000000000000000000000000000000000000000000000000000000008152600401611f1891906125a8565b60405180910390fd5b8115611f8357838573ffffffffffffffffffffffffffffffffffffffff168273ffffffffffffffffffffffffffffffffffffffff167f8c5be1e5ebec7d5bd14f71427d1e84f3dd0314c0f7b2291e5b200ac8c7c3b92560405160405180910390a45b505b836004600085815260200190815260200160002060006101000a81548173ffffffffffffffffffffffffffffffffffffffff021916908373ffffffffffffffffffffffffffffffffffffffff16021790555050505050565b611fe883838361216f565b61209c57600073ffffffffffffffffffffffffffffffffffffffff168373ffffffffffffffffffffffffffffffffffffffff160361205d57806040517f7e27328900000000000000000000000000000000000000000000000000000000815260040161205491906128cb565b60405180910390fd5b81816040517f177e802f0000000000000000000000000000000000000000000000000000000081526004016120939291906133ef565b60405180910390fd5b505050565b6060600060016120b084612230565b01905060008167ffffffffffffffff8111156120cf576120ce612719565b5b6040519080825280601f01601f1916602001820160405280156121015781602001600182028036833780820191505090505b509050600082602001820190505b600115612164578080600190039150507f3031323334353637383961626364656600000000000000000000000000000000600a86061a8153600a858161215857612157613418565b5b0494506000850361210f575b819350505050919050565b60008073ffffffffffffffffffffffffffffffffffffffff168373ffffffffffffffffffffffffffffffffffffffff161415801561222757508273ffffffffffffffffffffffffffffffffffffffff168473ffffffffffffffffffffffffffffffffffffffff1614806121e857506121e7848461128f565b5b8061222657508273ffffffffffffffffffffffffffffffffffffffff1661220e8361148d565b73ffffffffffffffffffffffffffffffffffffffff16145b5b90509392505050565b600080600090507a184f03e93ff9f4daa797ed6e38ed64bf6a1f010000000000000000831061228e577a184f03e93ff9f4daa797ed6e38ed64bf6a1f010000000000000000838161228457612283613418565b5b0492506040810190505b6d04ee2d6d415b85acef810000000083106122cb576d04ee2d6d415b85acef810000000083816122c1576122c0613418565b5b0492506020810190505b662386f26fc1000083106122fa57662386f26fc1000083816122f0576122ef613418565b5b0492506010810190505b6305f5e1008310612323576305f5e100838161231957612318613418565b5b0492506008810190505b612710831061234857612710838161233e5761233d613418565b5b0492506004810190505b6064831061236b576064838161236157612360613418565b5b0492506002810190505b600a831061237a576001810190505b80915050919050565b6000604051905090565b600080fd5b600080fd5b6000819050919050565b6123aa81612397565b81146123b557600080fd5b50565b6000813590506123c7816123a1565b92915050565b6000602082840312156123e3576123e261238d565b5b60006123f1848285016123b8565b91505092915050565b60008115159050919050565b61240f816123fa565b82525050565b600060208201905061242a6000830184612406565b92915050565b60007fffffffff0000000000000000000000000000000000000000000000000000000082169050919050565b61246581612430565b811461247057600080fd5b50565b6000813590506124828161245c565b92915050565b60006020828403121561249e5761249d61238d565b5b60006124ac84828501612473565b91505092915050565b600081519050919050565b600082825260208201905092915050565b60005b838110156124ef5780820151818401526020810190506124d4565b60008484015250505050565b6000601f19601f8301169050919050565b6000612517826124b5565b61252181856124c0565b93506125318185602086016124d1565b61253a816124fb565b840191505092915050565b6000602082019050818103600083015261255f818461250c565b905092915050565b600073ffffffffffffffffffffffffffffffffffffffff82169050919050565b600061259282612567565b9050919050565b6125a281612587565b82525050565b60006020820190506125bd6000830184612599565b92915050565b6125cc81612587565b81146125d757600080fd5b50565b6000813590506125e9816125c3565b92915050565b600080604083850312156126065761260561238d565b5b6000612614858286016125da565b9250506020612625858286016123b8565b9150509250929050565b600081519050919050565b600082825260208201905092915050565b6000819050602082019050919050565b61266481612397565b82525050565b6000612676838361265b565b60208301905092915050565b6000602082019050919050565b600061269a8261262f565b6126a4818561263a565b93506126af8361264b565b8060005b838110156126e05781516126c7888261266a565b97506126d283612682565b9250506001810190506126b3565b5085935050505092915050565b60006020820190508181036000830152612707818461268f565b905092915050565b600080fd5b600080fd5b7f4e487b7100000000000000000000000000000000000000000000000000000000600052604160045260246000fd5b612751826124fb565b810181811067ffffffffffffffff821117156127705761276f612719565b5b80604052505050565b6000612783612383565b905061278f8282612748565b919050565b600067ffffffffffffffff8211156127af576127ae612719565b5b6127b8826124fb565b9050602081019050919050565b82818337600083830152505050565b60006127e76127e284612794565b612779565b90508281526020810184848401111561280357612802612714565b5b61280e8482856127c5565b509392505050565b600082601f83011261282b5761282a61270f565b5b813561283b8482602086016127d4565b91505092915050565b6000806040838503121561285b5761285a61238d565b5b600083013567ffffffffffffffff81111561287957612878612392565b5b61288585828601612816565b925050602083013567ffffffffffffffff8111156128a6576128a5612392565b5b6128b285828601612816565b9150509250929050565b6128c581612397565b82525050565b60006020820190506128e060008301846128bc565b92915050565b6000806000606084860312156128ff576128fe61238d565b5b600061290d868287016125da565b935050602061291e868287016125da565b925050604061292f868287016123b8565b9150509250925092565b6003811061294657600080fd5b50565b60008135905061295881612939565b92915050565b600080604083850312156129755761297461238d565b5b6000612983858286016123b8565b925050602061299485828601612949565b9150509250929050565b6000602082840312156129b4576129b361238d565b5b600082013567ffffffffffffffff8111156129d2576129d1612392565b5b6129de84828501612816565b91505092915050565b6000602082840312156129fd576129fc61238d565b5b6000612a0b848285016125da565b91505092915050565b600081519050919050565b600082825260208201905092915050565b6000819050602082019050919050565b7f4e487b7100000000000000000000000000000000000000000000000000000000600052602160045260246000fd5b60038110612a8057612a7f612a40565b5b50565b6000819050612a9182612a6f565b919050565b6000612aa182612a83565b9050919050565b612ab181612a96565b82525050565b6000612ac38383612aa8565b60208301905092915050565b6000602082019050919050565b6000612ae782612a14565b612af18185612a1f565b9350612afc83612a30565b8060005b83811015612b2d578151612b148882612ab7565b9750612b1f83612acf565b925050600181019050612b00565b5085935050505092915050565b60006040820190508181036000830152612b54818561268f565b90508181036020830152612b688184612adc565b90509392505050565b612b7a816123fa565b8114612b8557600080fd5b50565b600081359050612b9781612b71565b92915050565b60008060408385031215612bb457612bb361238d565b5b6000612bc2858286016125da565b9250506020612bd385828601612b88565b9150509250929050565b600067ffffffffffffffff821115612bf857612bf7612719565b5b612c01826124fb565b9050602081019050919050565b6000612c21612c1c84612bdd565b612779565b905082815260208101848484011115612c3d57612c3c612714565b5b612c488482856127c5565b509392505050565b600082601f830112612c6557612c6461270f565b5b8135612c75848260208601612c0e565b91505092915050565b60008060008060808587031215612c9857612c9761238d565b5b6000612ca6878288016125da565b9450506020612cb7878288016125da565b9350506040612cc8878288016123b8565b925050606085013567ffffffffffffffff811115612ce957612ce8612392565b5b612cf587828801612c50565b91505092959194509250565b612d0a81612a96565b82525050565b600060a082019050612d2560008301886128bc565b612d326020830187612d01565b8181036040830152612d44818661250c565b9050612d536060830185612599565b8181036080830152612d65818461250c565b90509695505050505050565b60008060408385031215612d8857612d8761238d565b5b6000612d96858286016125da565b9250506020612da7858286016125da565b9150509250929050565b600081519050612dc0816125c3565b92915050565b600060208284031215612ddc57612ddb61238d565b5b6000612dea84828501612db1565b91505092915050565b7f4e487b7100000000000000000000000000000000000000000000000000000000600052602260045260246000fd5b60006002820490506001821680612e3a57607f821691505b602082108103612e4d57612e4c612df3565b5b50919050565b7f4e487b7100000000000000000000000000000000000000000000000000000000600052601160045260246000fd5b6000612e8d82612397565b91507fffffffffffffffffffffffffffffffffffffffffffffffffffffffffffffffff8203612ebf57612ebe612e53565b5b600182019050919050565b60008190508160005260206000209050919050565b60006020601f8301049050919050565b600082821b905092915050565b600060088302612f2c7fffffffffffffffffffffffffffffffffffffffffffffffffffffffffffffffff82612eef565b612f368683612eef565b95508019841693508086168417925050509392505050565b6000819050919050565b6000612f73612f6e612f6984612397565b612f4e565b612397565b9050919050565b6000819050919050565b612f8d83612f58565b612fa1612f9982612f7a565b848454612efc565b825550505050565b600090565b612fb6612fa9565b612fc1818484612f84565b505050565b5b81811015612fe557612fda600082612fae565b600181019050612fc7565b5050565b601f82111561302a57612ffb81612eca565b61300484612edf565b81016020851015613013578190505b61302761301f85612edf565b830182612fc6565b50505b505050565b600082821c905092915050565b600061304d6000198460080261302f565b1980831691505092915050565b6000613066838361303c565b9150826002028217905092915050565b61307f826124b5565b67ffffffffffffffff81111561309857613097612719565b5b6130a28254612e22565b6130ad828285612fe9565b600060209050601f8311600181146130e057600084156130ce578287015190505b6130d8858261305a565b865550613140565b601f1984166130ee86612eca565b60005b82811015613116578489015182556001820191506020850194506020810190506130f1565b86831015613133578489015161312f601f89168261303c565b8355505b6001600288020188555050505b505050505050565b600081905092915050565b600061315e826124b5565b6131688185613148565b93506131788185602086016124d1565b80840191505092915050565b60006131908284613153565b915081905092915050565b600060408201905081810360008301526131b5818561250c565b905081810360208301526131c9818461250c565b90509392505050565b60006040820190506131e760008301856128bc565b6131f460208301846128bc565b9392505050565b60006060820190506132106000830186612599565b61321d60208301856128bc565b61322a6040830184612599565b949350505050565b7f546f6b656e20646f6573206e6f74206578697374000000000000000000000000600082015250565b60006132686014836124c0565b915061327382613232565b602082019050919050565b600060208201905081810360008301526132978161325b565b9050919050565b60006020820190506132b36000830184612d01565b92915050565b7f4e487b7100000000000000000000000000000000000000000000000000000000600052603260045260246000fd5b60006132f48285613153565b91506133008284613153565b91508190509392505050565b600081519050919050565b600082825260208201905092915050565b60006133338261330c565b61333d8185613317565b935061334d8185602086016124d1565b613356816124fb565b840191505092915050565b60006080820190506133766000830187612599565b6133836020830186612599565b61339060408301856128bc565b81810360608301526133a28184613328565b905095945050505050565b6000815190506133bc8161245c565b92915050565b6000602082840312156133d8576133d761238d565b5b60006133e6848285016133ad565b91505092915050565b60006040820190506134046000830185612599565b61341160208301846128bc565b9392505050565b7f4e487b7100000000000000000000000000000000000000000000000000000000600052601260045260246000fdfea26469706673582212205e6c47e4648f14a3702f61fdc597563a5f1715eab131fc7324312b4bc71e49bb64736f6c63430008140033",
  "linkReferences": {},
  "deployedLinkReferences": {}
}