{
  "_format": "hh-sol-artifact-1",
  "contractName": "ManufacturerIPFSStorage",
  "sourceName": "blockchain/contracts/manufacturerregistration.sol",
  "abi": [
    {
      "inputs": [],
      "stateMutability": "nonpayable",
      "type": "constructor"
    },
    {
      "anonymous": false,
      "inputs": [
        {
          "indexed": true,
          "internalType": "address",
          "name": "user",
          "type": "address"
        },
        {
          "indexed": false,
          "internalType": "string",
          "name": "ipfsHash",
          "type": "string"
        }
      ],
      "name": "FileApproved",
      "type": "event"
    },
    {
      "anonymous": false,
      "inputs": [
        {
          "indexed": true,
          "internalType": "address",
          "name": "manufacturer",
          "type": "address"
        }
      ],
      "name": "ManufacturerApproved",
      "type": "event"
    },
    {
      "anonymous": false,
      "inputs": [
        {
          "indexed": true,
          "internalType": "address",
          "name": "manufacturer",
          "type": "address"
        }
      ],
      "name": "ManufacturerRemoved",
      "type": "event"
    },
    {
      "inputs": [],
      "name": "admin",
      "outputs": [
        {
          "internalType": "address",
          "name": "",
          "type": "address"
        }
      ],
      "stateMutability": "view",
      "type": "function"
    },
    {
      "inputs": [
        {
          "internalType": "address",
          "name": "_manufacturer",
          "type": "address"
        }
      ],
      "name": "approveManufacturer",
      "outputs": [],
      "stateMutability": "nonpayable",
      "type": "function"
    },
    {
      "inputs": [],
      "name": "getApprovedHashes",
      "outputs": [
        {
          "internalType": "string[]",
          "name": "",
          "type": "string[]"
        }
      ],
      "stateMutability": "view",
      "type": "function"
    },
    {
      "inputs": [
        {
          "internalType": "address",
          "name": "_manufacturer",
          "type": "address"
        }
      ],
      "name": "getHashByAddress",
      "outputs": [
        {
          "internalType": "string",
          "name": "",
          "type": "string"
        }
      ],
      "stateMutability": "view",
      "type": "function"
    },
    {
      "inputs": [],
      "name": "getUserHash",
      "outputs": [
        {
          "internalType": "string",
          "name": "",
          "type": "string"
        }
      ],
      "stateMutability": "view",
      "type": "function"
    },
    {
      "inputs": [
        {
          "internalType": "address",
          "name": "",
          "type": "address"
        }
      ],
      "name": "isApprovedManufacturer",
      "outputs": [
        {
          "internalType": "bool",
          "name": "",
          "type": "bool"
        }
      ],
      "stateMutability": "view",
      "type": "function"
    },
    {
      "inputs": [
        {
          "internalType": "address",
          "name": "_manufacturer",
          "type": "address"
        }
      ],
      "name": "removeManufacturer",
      "outputs": [],
      "stateMutability": "nonpayable",
      "type": "function"
    },
    {
      "inputs": [
        {
          "internalType": "string",
          "name": "_ipfsHash",
          "type": "string"
        }
      ],
      "name": "submitAndApproveHash",
      "outputs": [],
      "stateMutability": "nonpayable",
      "type": "function"
    }
  ],
  "bytecode": "0x608060405234801561001057600080fd5b50336000806101000a81548173ffffffffffffffffffffffffffffffffffffffff021916908373ffffffffffffffffffffffffffffffffffffffff1602179055506118fc806100606000396000f3fe608060405234801561001057600080fd5b50600436106100885760003560e01c80635a6b50631161005b5780635a6b5063146101135780636a75323f146101435780638677b4e21461015f578063f851a4401461017d57610088565b8063056e4c4c1461008d57806319b85dd7146100bd57806321fcd358146100db57806343f34b27146100f7575b600080fd5b6100a760048036038101906100a29190610d8f565b61019b565b6040516100b49190610e4c565b60405180910390f35b6100c561038c565b6040516100d29190610f7a565b60405180910390f35b6100f560048036038101906100f091906110d1565b610465565b005b610111600480360381019061010c9190610d8f565b610716565b005b61012d60048036038101906101289190610d8f565b610932565b60405161013a9190611135565b60405180910390f35b61015d60048036038101906101589190610d8f565b610952565b005b610167610b0a565b6040516101749190610e4c565b60405180910390f35b610185610cf9565b604051610192919061115f565b60405180910390f35b6060600460008373ffffffffffffffffffffffffffffffffffffffff1673ffffffffffffffffffffffffffffffffffffffff16815260200190815260200160002060009054906101000a900460ff16610229576040517f08c379a0000000000000000000000000000000000000000000000000000000008152600401610220906111ec565b60405180910390fd5b6000600160008473ffffffffffffffffffffffffffffffffffffffff1673ffffffffffffffffffffffffffffffffffffffff16815260200190815260200160002060000180546102789061123b565b9050116102ba576040517f08c379a00000000000000000000000000000000000000000000000000000000081526004016102b1906112de565b60405180910390fd5b600160008373ffffffffffffffffffffffffffffffffffffffff1673ffffffffffffffffffffffffffffffffffffffff16815260200190815260200160002060000180546103079061123b565b80601f01602080910402602001604051908101604052809291908181526020018280546103339061123b565b80156103805780601f1061035557610100808354040283529160200191610380565b820191906000526020600020905b81548152906001019060200180831161036357829003601f168201915b50505050509050919050565b60606002805480602002602001604051908101604052809291908181526020016000905b8282101561045c5783829060005260206000200180546103cf9061123b565b80601f01602080910402602001604051908101604052809291908181526020018280546103fb9061123b565b80156104485780601f1061041d57610100808354040283529160200191610448565b820191906000526020600020905b81548152906001019060200180831161042b57829003601f168201915b5050505050815260200190600101906103b0565b50505050905090565b600460003373ffffffffffffffffffffffffffffffffffffffff1673ffffffffffffffffffffffffffffffffffffffff16815260200190815260200160002060009054906101000a900460ff166104f1576040517f08c379a00000000000000000000000000000000000000000000000000000000081526004016104e89061134a565b60405180910390fd5b6000815111610535576040517f08c379a000000000000000000000000000000000000000000000000000000000815260040161052c906113b6565b60405180910390fd5b6000600160003373ffffffffffffffffffffffffffffffffffffffff1673ffffffffffffffffffffffffffffffffffffffff16815260200190815260200160002060000180546105849061123b565b9050146105c6576040517f08c379a00000000000000000000000000000000000000000000000000000000081526004016105bd90611422565b60405180910390fd5b60405180604001604052808281526020013373ffffffffffffffffffffffffffffffffffffffff16815250600160003373ffffffffffffffffffffffffffffffffffffffff1673ffffffffffffffffffffffffffffffffffffffff168152602001908152602001600020600082015181600001908161064591906115f8565b5060208201518160010160006101000a81548173ffffffffffffffffffffffffffffffffffffffff021916908373ffffffffffffffffffffffffffffffffffffffff1602179055509050506002819080600181540180825580915050600190039060005260206000200160009091909190915090816106c491906115f8565b503373ffffffffffffffffffffffffffffffffffffffff167f66cb3da7f49a54119d2d00183578fd3fd12a2c3d5ef0bcda46ef5228c02091048260405161070b9190610e4c565b60405180910390a250565b60008054906101000a900473ffffffffffffffffffffffffffffffffffffffff1673ffffffffffffffffffffffffffffffffffffffff163373ffffffffffffffffffffffffffffffffffffffff16146107a4576040517f08c379a000000000000000000000000000000000000000000000000000000000815260040161079b9061173c565b60405180910390fd5b600460008273ffffffffffffffffffffffffffffffffffffffff1673ffffffffffffffffffffffffffffffffffffffff16815260200190815260200160002060009054906101000a900460ff1615610831576040517f08c379a0000000000000000000000000000000000000000000000000000000008152600401610828906117a8565b60405180910390fd5b6001600460008373ffffffffffffffffffffffffffffffffffffffff1673ffffffffffffffffffffffffffffffffffffffff16815260200190815260200160002060006101000a81548160ff0219169083151502179055506003819080600181540180825580915050600190039060005260206000200160009091909190916101000a81548173ffffffffffffffffffffffffffffffffffffffff021916908373ffffffffffffffffffffffffffffffffffffffff1602179055508073ffffffffffffffffffffffffffffffffffffffff167f5e048240fbceca23ebdfa6f47259584abae5efdc67fd92f82e007d0581b7cd0260405160405180910390a250565b60046020528060005260406000206000915054906101000a900460ff1681565b60008054906101000a900473ffffffffffffffffffffffffffffffffffffffff1673ffffffffffffffffffffffffffffffffffffffff163373ffffffffffffffffffffffffffffffffffffffff16146109e0576040517f08c379a00000000000000000000000000000000000000000000000000000000081526004016109d79061173c565b60405180910390fd5b600460008273ffffffffffffffffffffffffffffffffffffffff1673ffffffffffffffffffffffffffffffffffffffff16815260200190815260200160002060009054906101000a900460ff16610a6c576040517f08c379a0000000000000000000000000000000000000000000000000000000008152600401610a6390611814565b60405180910390fd5b6000600460008373ffffffffffffffffffffffffffffffffffffffff1673ffffffffffffffffffffffffffffffffffffffff16815260200190815260200160002060006101000a81548160ff0219169083151502179055508073ffffffffffffffffffffffffffffffffffffffff167f2fed5abf6a80d6dfe30b4895481b2fc5d7dce5f8f7b931832f4a2947d5040c7f60405160405180910390a250565b6060600460003373ffffffffffffffffffffffffffffffffffffffff1673ffffffffffffffffffffffffffffffffffffffff16815260200190815260200160002060009054906101000a900460ff16610b98576040517f08c379a0000000000000000000000000000000000000000000000000000000008152600401610b8f9061134a565b60405180910390fd5b6000600160003373ffffffffffffffffffffffffffffffffffffffff1673ffffffffffffffffffffffffffffffffffffffff1681526020019081526020016000206000018054610be79061123b565b905011610c29576040517f08c379a0000000000000000000000000000000000000000000000000000000008152600401610c20906118a6565b60405180910390fd5b600160003373ffffffffffffffffffffffffffffffffffffffff1673ffffffffffffffffffffffffffffffffffffffff1681526020019081526020016000206000018054610c769061123b565b80601f0160208091040260200160405190810160405280929190818152602001828054610ca29061123b565b8015610cef5780601f10610cc457610100808354040283529160200191610cef565b820191906000526020600020905b815481529060010190602001808311610cd257829003601f168201915b5050505050905090565b60008054906101000a900473ffffffffffffffffffffffffffffffffffffffff1681565b6000604051905090565b600080fd5b600080fd5b600073ffffffffffffffffffffffffffffffffffffffff82169050919050565b6000610d5c82610d31565b9050919050565b610d6c81610d51565b8114610d7757600080fd5b50565b600081359050610d8981610d63565b92915050565b600060208284031215610da557610da4610d27565b5b6000610db384828501610d7a565b91505092915050565b600081519050919050565b600082825260208201905092915050565b60005b83811015610df6578082015181840152602081019050610ddb565b60008484015250505050565b6000601f19601f8301169050919050565b6000610e1e82610dbc565b610e288185610dc7565b9350610e38818560208601610dd8565b610e4181610e02565b840191505092915050565b60006020820190508181036000830152610e668184610e13565b905092915050565b600081519050919050565b600082825260208201905092915050565b6000819050602082019050919050565b600082825260208201905092915050565b6000610eb682610dbc565b610ec08185610e9a565b9350610ed0818560208601610dd8565b610ed981610e02565b840191505092915050565b6000610ef08383610eab565b905092915050565b6000602082019050919050565b6000610f1082610e6e565b610f1a8185610e79565b935083602082028501610f2c85610e8a565b8060005b85811015610f685784840389528151610f498582610ee4565b9450610f5483610ef8565b925060208a01995050600181019050610f30565b50829750879550505050505092915050565b60006020820190508181036000830152610f948184610f05565b905092915050565b600080fd5b600080fd5b7f4e487b7100000000000000000000000000000000000000000000000000000000600052604160045260246000fd5b610fde82610e02565b810181811067ffffffffffffffff82111715610ffd57610ffc610fa6565b5b80604052505050565b6000611010610d1d565b905061101c8282610fd5565b919050565b600067ffffffffffffffff82111561103c5761103b610fa6565b5b61104582610e02565b9050602081019050919050565b82818337600083830152505050565b600061107461106f84611021565b611006565b9050828152602081018484840111156110905761108f610fa1565b5b61109b848285611052565b509392505050565b600082601f8301126110b8576110b7610f9c565b5b81356110c8848260208601611061565b91505092915050565b6000602082840312156110e7576110e6610d27565b5b600082013567ffffffffffffffff81111561110557611104610d2c565b5b611111848285016110a3565b91505092915050565b60008115159050919050565b61112f8161111a565b82525050565b600060208201905061114a6000830184611126565b92915050565b61115981610d51565b82525050565b60006020820190506111746000830184611150565b92915050565b7f41646472657373206e6f7420612072656769737465726564206d616e7566616360008201527f7475726572000000000000000000000000000000000000000000000000000000602082015250565b60006111d6602583610dc7565b91506111e18261117a565b604082019050919050565b60006020820190508181036000830152611205816111c9565b9050919050565b7f4e487b7100000000000000000000000000000000000000000000000000000000600052602260045260246000fd5b6000600282049050600182168061125357607f821691505b6020821081036112665761126561120c565b5b50919050565b7f4e6f20617070726f7665642049504653206861736820666f756e6420666f722060008201527f7468697320616464726573730000000000000000000000000000000000000000602082015250565b60006112c8602c83610dc7565b91506112d38261126c565b604082019050919050565b600060208201905081810360008301526112f7816112bb565b9050919050565b7f4e6f7420616e20617070726f766564206d616e75666163747572657200000000600082015250565b6000611334601c83610dc7565b915061133f826112fe565b602082019050919050565b6000602082019050818103600083015261136381611327565b9050919050565b7f4950465320686173682063616e6e6f7420626520656d70747900000000000000600082015250565b60006113a0601983610dc7565b91506113ab8261136a565b602082019050919050565b600060208201905081810360008301526113cf81611393565b9050919050565b7f416c7265616479207375626d697474656420616e6420617070726f7665640000600082015250565b600061140c601e83610dc7565b9150611417826113d6565b602082019050919050565b6000602082019050818103600083015261143b816113ff565b9050919050565b60008190508160005260206000209050919050565b60006020601f8301049050919050565b600082821b905092915050565b6000600883026114a47fffffffffffffffffffffffffffffffffffffffffffffffffffffffffffffffff82611467565b6114ae8683611467565b95508019841693508086168417925050509392505050565b6000819050919050565b6000819050919050565b60006114f56114f06114eb846114c6565b6114d0565b6114c6565b9050919050565b6000819050919050565b61150f836114da565b61152361151b826114fc565b848454611474565b825550505050565b600090565b61153861152b565b611543818484611506565b505050565b5b818110156115675761155c600082611530565b600181019050611549565b5050565b601f8211156115ac5761157d81611442565b61158684611457565b81016020851015611595578190505b6115a96115a185611457565b830182611548565b50505b505050565b600082821c905092915050565b60006115cf600019846008026115b1565b1980831691505092915050565b60006115e883836115be565b9150826002028217905092915050565b61160182610dbc565b67ffffffffffffffff81111561161a57611619610fa6565b5b611624825461123b565b61162f82828561156b565b600060209050601f8311600181146116625760008415611650578287015190505b61165a85826115dc565b8655506116c2565b601f19841661167086611442565b60005b8281101561169857848901518255600182019150602085019450602081019050611673565b868310156116b557848901516116b1601f8916826115be565b8355505b6001600288020188555050505b505050505050565b7f4f6e6c792061646d696e2063616e20706572666f726d2074686973206163746960008201527f6f6e000000000000000000000000000000000000000000000000000000000000602082015250565b6000611726602283610dc7565b9150611731826116ca565b604082019050919050565b6000602082019050818103600083015261175581611719565b9050919050565b7f4d616e75666163747572657220616c726561647920617070726f766564000000600082015250565b6000611792601d83610dc7565b915061179d8261175c565b602082019050919050565b600060208201905081810360008301526117c181611785565b9050919050565b7f4d616e756661637475726572206e6f7420666f756e6400000000000000000000600082015250565b60006117fe601683610dc7565b9150611809826117c8565b602082019050919050565b6000602082019050818103600083015261182d816117f1565b9050919050565b7f4e6f20617070726f7665642049504653206861736820666f756e6420666f722060008201527f7468697320757365720000000000000000000000000000000000000000000000602082015250565b6000611890602983610dc7565b915061189b82611834565b604082019050919050565b600060208201905081810360008301526118bf81611883565b905091905056fea2646970667358221220dd617c740fdb9db3cf86fa7776eed7f2fffcd5807c2ed17829402a80ed9080c664736f6c63430008120033",
  "linkReferences": {},
  "deployedLinkReferences": {}
}