{
  "_format": "hh-sol-artifact-1",
  "contractName": "ManufacturerNFTStorage",
  "sourceName": "blockchain/contracts/manufacturerregistration.sol",
  "abi": [
    {
      "inputs": [],
      "stateMutability": "nonpayable",
      "type": "constructor"
    },
    {
      "inputs": [
        {
          "internalType": "address",
          "name": "sender",
          "type": "address"
        },
        {
          "internalType": "uint256",
          "name": "tokenId",
          "type": "uint256"
        },
        {
          "internalType": "address",
          "name": "owner",
          "type": "address"
        }
      ],
      "name": "ERC721IncorrectOwner",
      "type": "error"
    },
    {
      "inputs": [
        {
          "internalType": "address",
          "name": "operator",
          "type": "address"
        },
        {
          "internalType": "uint256",
          "name": "tokenId",
          "type": "uint256"
        }
      ],
      "name": "ERC721InsufficientApproval",
      "type": "error"
    },
    {
      "inputs": [
        {
          "internalType": "address",
          "name": "approver",
          "type": "address"
        }
      ],
      "name": "ERC721InvalidApprover",
      "type": "error"
    },
    {
      "inputs": [
        {
          "internalType": "address",
          "name": "operator",
          "type": "address"
        }
      ],
      "name": "ERC721InvalidOperator",
      "type": "error"
    },
    {
      "inputs": [
        {
          "internalType": "address",
          "name": "owner",
          "type": "address"
        }
      ],
      "name": "ERC721InvalidOwner",
      "type": "error"
    },
    {
      "inputs": [
        {
          "internalType": "address",
          "name": "receiver",
          "type": "address"
        }
      ],
      "name": "ERC721InvalidReceiver",
      "type": "error"
    },
    {
      "inputs": [
        {
          "internalType": "address",
          "name": "sender",
          "type": "address"
        }
      ],
      "name": "ERC721InvalidSender",
      "type": "error"
    },
    {
      "inputs": [
        {
          "internalType": "uint256",
          "name": "tokenId",
          "type": "uint256"
        }
      ],
      "name": "ERC721NonexistentToken",
      "type": "error"
    },
    {
      "anonymous": false,
      "inputs": [
        {
          "indexed": true,
          "internalType": "address",
          "name": "owner",
          "type": "address"
        },
        {
          "indexed": true,
          "internalType": "address",
          "name": "approved",
          "type": "address"
        },
        {
          "indexed": true,
          "internalType": "uint256",
          "name": "tokenId",
          "type": "uint256"
        }
      ],
      "name": "Approval",
      "type": "event"
    },
    {
      "anonymous": false,
      "inputs": [
        {
          "indexed": true,
          "internalType": "address",
          "name": "owner",
          "type": "address"
        },
        {
          "indexed": true,
          "internalType": "address",
          "name": "operator",
          "type": "address"
        },
        {
          "indexed": false,
          "internalType": "bool",
          "name": "approved",
          "type": "bool"
        }
      ],
      "name": "ApprovalForAll",
      "type": "event"
    },
    {
      "anonymous": false,
      "inputs": [
        {
          "indexed": false,
          "internalType": "uint256",
          "name": "_fromTokenId",
          "type": "uint256"
        },
        {
          "indexed": false,
          "internalType": "uint256",
          "name": "_toTokenId",
          "type": "uint256"
        }
      ],
      "name": "BatchMetadataUpdate",
      "type": "event"
    },
    {
      "anonymous": false,
      "inputs": [
        {
          "indexed": true,
          "internalType": "uint256",
          "name": "tokenId",
          "type": "uint256"
        },
        {
          "indexed": false,
          "internalType": "enum ManufacturerNFTStorage.Status",
          "name": "newStatus",
          "type": "uint8"
        }
      ],
      "name": "ManufacturerStatusUpdated",
      "type": "event"
    },
    {
      "anonymous": false,
      "inputs": [
        {
          "indexed": true,
          "internalType": "uint256",
          "name": "tokenId",
          "type": "uint256"
        },
        {
          "indexed": true,
          "internalType": "address",
          "name": "wallet",
          "type": "address"
        },
        {
          "indexed": false,
          "internalType": "string",
          "name": "jsonCID",
          "type": "string"
        },
        {
          "indexed": false,
          "internalType": "string",
          "name": "pdfCID",
          "type": "string"
        },
        {
          "indexed": false,
          "internalType": "enum ManufacturerNFTStorage.Status",
          "name": "status",
          "type": "uint8"
        }
      ],
      "name": "ManufacturerStored",
      "type": "event"
    },
    {
      "anonymous": false,
      "inputs": [
        {
          "indexed": false,
          "internalType": "uint256",
          "name": "_tokenId",
          "type": "uint256"
        }
      ],
      "name": "MetadataUpdate",
      "type": "event"
    },
    {
      "anonymous": false,
      "inputs": [
        {
          "indexed": true,
          "internalType": "address",
          "name": "from",
          "type": "address"
        },
        {
          "indexed": true,
          "internalType": "address",
          "name": "to",
          "type": "address"
        },
        {
          "indexed": true,
          "internalType": "uint256",
          "name": "tokenId",
          "type": "uint256"
        }
      ],
      "name": "Transfer",
      "type": "event"
    },
    {
      "inputs": [
        {
          "internalType": "address",
          "name": "to",
          "type": "address"
        },
        {
          "internalType": "uint256",
          "name": "tokenId",
          "type": "uint256"
        }
      ],
      "name": "approve",
      "outputs": [],
      "stateMutability": "nonpayable",
      "type": "function"
    },
    {
      "inputs": [
        {
          "internalType": "address",
          "name": "owner",
          "type": "address"
        }
      ],
      "name": "balanceOf",
      "outputs": [
        {
          "internalType": "uint256",
          "name": "",
          "type": "uint256"
        }
      ],
      "stateMutability": "view",
      "type": "function"
    },
    {
      "inputs": [
        {
          "internalType": "uint256",
          "name": "tokenId",
          "type": "uint256"
        }
      ],
      "name": "getApproved",
      "outputs": [
        {
          "internalType": "address",
          "name": "",
          "type": "address"
        }
      ],
      "stateMutability": "view",
      "type": "function"
    },
    {
      "inputs": [],
      "name": "getApprovedManufacturers",
      "outputs": [
        {
          "internalType": "address[]",
          "name": "",
          "type": "address[]"
        }
      ],
      "stateMutability": "view",
      "type": "function"
    },
    {
      "inputs": [
        {
          "internalType": "address",
          "name": "_manufacturer",
          "type": "address"
        }
      ],
      "name": "getIndividualManufacturer",
      "outputs": [
        {
          "internalType": "address",
          "name": "wallet",
          "type": "address"
        },
        {
          "internalType": "string",
          "name": "jsonCID",
          "type": "string"
        },
        {
          "internalType": "string",
          "name": "pdfCID",
          "type": "string"
        },
        {
          "internalType": "enum ManufacturerNFTStorage.Status",
          "name": "status",
          "type": "uint8"
        }
      ],
      "stateMutability": "view",
      "type": "function"
    },
    {
      "inputs": [
        {
          "internalType": "address",
          "name": "_manufacturer",
          "type": "address"
        }
      ],
      "name": "getManufacturerDetails",
      "outputs": [
        {
          "internalType": "uint256",
          "name": "tokenId",
          "type": "uint256"
        },
        {
          "internalType": "string",
          "name": "jsonCID",
          "type": "string"
        },
        {
          "internalType": "string",
          "name": "pdfCID",
          "type": "string"
        },
        {
          "internalType": "enum ManufacturerNFTStorage.Status",
          "name": "status",
          "type": "uint8"
        }
      ],
      "stateMutability": "view",
      "type": "function"
    },
    {
      "inputs": [
        {
          "internalType": "address",
          "name": "_manufacturer",
          "type": "address"
        }
      ],
      "name": "getManufacturerStatus",
      "outputs": [
        {
          "internalType": "enum ManufacturerNFTStorage.Status",
          "name": "",
          "type": "uint8"
        }
      ],
      "stateMutability": "view",
      "type": "function"
    },
    {
      "inputs": [],
      "name": "getPendingManufacturers",
      "outputs": [
        {
          "internalType": "address[]",
          "name": "",
          "type": "address[]"
        }
      ],
      "stateMutability": "view",
      "type": "function"
    },
    {
      "inputs": [],
      "name": "getRejectedManufacturers",
      "outputs": [
        {
          "internalType": "address[]",
          "name": "",
          "type": "address[]"
        }
      ],
      "stateMutability": "view",
      "type": "function"
    },
    {
      "inputs": [
        {
          "internalType": "address",
          "name": "owner",
          "type": "address"
        },
        {
          "internalType": "address",
          "name": "operator",
          "type": "address"
        }
      ],
      "name": "isApprovedForAll",
      "outputs": [
        {
          "internalType": "bool",
          "name": "",
          "type": "bool"
        }
      ],
      "stateMutability": "view",
      "type": "function"
    },
    {
      "inputs": [
        {
          "internalType": "address",
          "name": "_manufacturer",
          "type": "address"
        }
      ],
      "name": "login",
      "outputs": [
        {
          "internalType": "bool",
          "name": "",
          "type": "bool"
        }
      ],
      "stateMutability": "view",
      "type": "function"
    },
    {
      "inputs": [
        {
          "internalType": "uint256",
          "name": "",
          "type": "uint256"
        }
      ],
      "name": "manufacturerData",
      "outputs": [
        {
          "internalType": "address",
          "name": "wallet",
          "type": "address"
        },
        {
          "internalType": "string",
          "name": "jsonCID",
          "type": "string"
        },
        {
          "internalType": "string",
          "name": "pdfCID",
          "type": "string"
        },
        {
          "internalType": "enum ManufacturerNFTStorage.Status",
          "name": "status",
          "type": "uint8"
        }
      ],
      "stateMutability": "view",
      "type": "function"
    },
    {
      "inputs": [],
      "name": "name",
      "outputs": [
        {
          "internalType": "string",
          "name": "",
          "type": "string"
        }
      ],
      "stateMutability": "view",
      "type": "function"
    },
    {
      "inputs": [
        {
          "internalType": "uint256",
          "name": "tokenId",
          "type": "uint256"
        }
      ],
      "name": "ownerOf",
      "outputs": [
        {
          "internalType": "address",
          "name": "",
          "type": "address"
        }
      ],
      "stateMutability": "view",
      "type": "function"
    },
    {
      "inputs": [
        {
          "internalType": "address",
          "name": "from",
          "type": "address"
        },
        {
          "internalType": "address",
          "name": "to",
          "type": "address"
        },
        {
          "internalType": "uint256",
          "name": "tokenId",
          "type": "uint256"
        }
      ],
      "name": "safeTransferFrom",
      "outputs": [],
      "stateMutability": "nonpayable",
      "type": "function"
    },
    {
      "inputs": [
        {
          "internalType": "address",
          "name": "from",
          "type": "address"
        },
        {
          "internalType": "address",
          "name": "to",
          "type": "address"
        },
        {
          "internalType": "uint256",
          "name": "tokenId",
          "type": "uint256"
        },
        {
          "internalType": "bytes",
          "name": "data",
          "type": "bytes"
        }
      ],
      "name": "safeTransferFrom",
      "outputs": [],
      "stateMutability": "nonpayable",
      "type": "function"
    },
    {
      "inputs": [
        {
          "internalType": "address",
          "name": "operator",
          "type": "address"
        },
        {
          "internalType": "bool",
          "name": "approved",
          "type": "bool"
        }
      ],
      "name": "setApprovalForAll",
      "outputs": [],
      "stateMutability": "nonpayable",
      "type": "function"
    },
    {
      "inputs": [
        {
          "internalType": "address",
          "name": "_manufacturer",
          "type": "address"
        },
        {
          "internalType": "string",
          "name": "_jsonCID",
          "type": "string"
        },
        {
          "internalType": "string",
          "name": "_pdfCID",
          "type": "string"
        }
      ],
      "name": "storeManufacturer",
      "outputs": [],
      "stateMutability": "nonpayable",
      "type": "function"
    },
    {
      "inputs": [
        {
          "internalType": "bytes4",
          "name": "interfaceId",
          "type": "bytes4"
        }
      ],
      "name": "supportsInterface",
      "outputs": [
        {
          "internalType": "bool",
          "name": "",
          "type": "bool"
        }
      ],
      "stateMutability": "view",
      "type": "function"
    },
    {
      "inputs": [],
      "name": "symbol",
      "outputs": [
        {
          "internalType": "string",
          "name": "",
          "type": "string"
        }
      ],
      "stateMutability": "view",
      "type": "function"
    },
    {
      "inputs": [
        {
          "internalType": "uint256",
          "name": "tokenId",
          "type": "uint256"
        }
      ],
      "name": "tokenURI",
      "outputs": [
        {
          "internalType": "string",
          "name": "",
          "type": "string"
        }
      ],
      "stateMutability": "view",
      "type": "function"
    },
    {
      "inputs": [
        {
          "internalType": "address",
          "name": "from",
          "type": "address"
        },
        {
          "internalType": "address",
          "name": "to",
          "type": "address"
        },
        {
          "internalType": "uint256",
          "name": "tokenId",
          "type": "uint256"
        }
      ],
      "name": "transferFrom",
      "outputs": [],
      "stateMutability": "nonpayable",
      "type": "function"
    },
    {
      "inputs": [
        {
          "internalType": "uint256",
          "name": "_tokenId",
          "type": "uint256"
        },
        {
          "internalType": "enum ManufacturerNFTStorage.Status",
          "name": "_newStatus",
          "type": "uint8"
        }
      ],
      "name": "updateManufacturerStatus",
      "outputs": [],
      "stateMutability": "nonpayable",
      "type": "function"
    },
    {
      "inputs": [
        {
          "internalType": "address",
          "name": "",
          "type": "address"
        }
      ],
      "name": "walletToTokenId",
      "outputs": [
        {
          "internalType": "uint256",
          "name": "",
          "type": "uint256"
        }
      ],
      "stateMutability": "view",
      "type": "function"
    }
  ],
  "bytecode": "0x60806040523480156200001157600080fd5b506040518060400160405280600f81526020017f4d616e7566616374757265724e465400000000000000000000000000000000008152506040518060400160405280600481526020017f4d4e46540000000000000000000000000000000000000000000000000000000081525081600090816200008f919062000324565b508060019081620000a1919062000324565b5050506200040b565b600081519050919050565b7f4e487b7100000000000000000000000000000000000000000000000000000000600052604160045260246000fd5b7f4e487b7100000000000000000000000000000000000000000000000000000000600052602260045260246000fd5b600060028204905060018216806200012c57607f821691505b602082108103620001425762000141620000e4565b5b50919050565b60008190508160005260206000209050919050565b60006020601f8301049050919050565b600082821b905092915050565b600060088302620001ac7fffffffffffffffffffffffffffffffffffffffffffffffffffffffffffffffff826200016d565b620001b886836200016d565b95508019841693508086168417925050509392505050565b6000819050919050565b6000819050919050565b600062000205620001ff620001f984620001d0565b620001da565b620001d0565b9050919050565b6000819050919050565b6200022183620001e4565b6200023962000230826200020c565b8484546200017a565b825550505050565b600090565b6200025062000241565b6200025d81848462000216565b505050565b5b8181101562000285576200027960008262000246565b60018101905062000263565b5050565b601f821115620002d4576200029e8162000148565b620002a9846200015d565b81016020851015620002b9578190505b620002d1620002c8856200015d565b83018262000262565b50505b505050565b600082821c905092915050565b6000620002f960001984600802620002d9565b1980831691505092915050565b6000620003148383620002e6565b9150826002028217905092915050565b6200032f82620000aa565b67ffffffffffffffff8111156200034b576200034a620000b5565b5b62000357825462000113565b6200036482828562000289565b600060209050601f8311600181146200039c576000841562000387578287015190505b62000393858262000306565b86555062000403565b601f198416620003ac8662000148565b60005b82811015620003d657848901518255600182019150602085019450602081019050620003af565b86831015620003f65784890151620003f2601f891682620002e6565b8355505b6001600288020188555050505b505050505050565b613deb806200041b6000396000f3fe608060405234801561001057600080fd5b50600436106101585760003560e01c806395d89b41116100c3578063b88d4fde1161007c578063b88d4fde14610418578063c720169214610434578063c87b56dd14610452578063ced7b07b14610482578063e985e9c5146104b2578063ea09198f146104e257610158565b806395d89b411461032a5780639827b4c1146103485780639c2806c71461037b578063a22cb465146103ab578063a88a2dfa146103c7578063a9f0a71d146103fa57610158565b806335a6861a1161011557806335a6861a1461024657806342842e0e146102765780634767e5c1146102925780636352211e146102ae57806370a08231146102de5780637f35a41f1461030e57610158565b806301ffc9a71461015d57806306fdde031461018d578063081812fc146101ab578063095ea7b3146101db57806322713cc7146101f757806323b872dd1461022a575b600080fd5b61017760048036038101906101729190612c67565b610500565b6040516101849190612caf565b60405180910390f35b610195610561565b6040516101a29190612d5a565b60405180910390f35b6101c560048036038101906101c09190612db2565b6105f3565b6040516101d29190612e20565b60405180910390f35b6101f560048036038101906101f09190612e67565b61060f565b005b610211600480360381019061020c9190612ea7565b610625565b6040516102219493929190612f5a565b60405180910390f35b610244600480360381019061023f9190612fad565b6108e6565b005b610260600480360381019061025b9190612ea7565b6109e8565b60405161026d9190612caf565b60405180910390f35b610290600480360381019061028b9190612fad565b610b02565b005b6102ac60048036038101906102a79190613025565b610b22565b005b6102c860048036038101906102c39190612db2565b610c13565b6040516102d59190612e20565b60405180910390f35b6102f860048036038101906102f39190612ea7565b610c25565b6040516103059190613065565b60405180910390f35b610328600480360381019061032391906131b5565b610cdf565b005b61033261101d565b60405161033f9190612d5a565b60405180910390f35b610362600480360381019061035d9190612ea7565b6110af565b6040516103729493929190613240565b60405180910390f35b61039560048036038101906103909190612ea7565b611377565b6040516103a29190613065565b60405180910390f35b6103c560048036038101906103c091906132bf565b61138f565b005b6103e160048036038101906103dc9190612db2565b6113a5565b6040516103f19493929190613240565b60405180910390f35b610402611512565b60405161040f91906133bd565b60405180910390f35b610432600480360381019061042d9190613480565b6116f4565b005b61043c611719565b60405161044991906133bd565b60405180910390f35b61046c60048036038101906104679190612db2565b6118fb565b6040516104799190612d5a565b60405180910390f35b61049c60048036038101906104979190612ea7565b611a0e565b6040516104a99190613503565b60405180910390f35b6104cc60048036038101906104c7919061351e565b611b01565b6040516104d99190612caf565b60405180910390f35b6104ea611b95565b6040516104f791906133bd565b60405180910390f35b6000634906490660e01b7bffffffffffffffffffffffffffffffffffffffffffffffffffffffff1916827bffffffffffffffffffffffffffffffffffffffffffffffffffffffff1916148061055a575061055982611d75565b5b9050919050565b6060600080546105709061358d565b80601f016020809104026020016040519081016040528092919081815260200182805461059c9061358d565b80156105e95780601f106105be576101008083540402835291602001916105e9565b820191906000526020600020905b8154815290600101906020018083116105cc57829003601f168201915b5050505050905090565b60006105fe82611e57565b5061060882611edf565b9050919050565b610621828261061c611f1c565b611f24565b5050565b6000606080600080600860008773ffffffffffffffffffffffffffffffffffffffff1673ffffffffffffffffffffffffffffffffffffffff16815260200190815260200160002054036106ad576040517f08c379a00000000000000000000000000000000000000000000000000000000081526004016106a49061360a565b60405180910390fd5b600860008673ffffffffffffffffffffffffffffffffffffffff1673ffffffffffffffffffffffffffffffffffffffff1681526020019081526020016000205493506000600760008681526020019081526020016000206040518060800160405290816000820160009054906101000a900473ffffffffffffffffffffffffffffffffffffffff1673ffffffffffffffffffffffffffffffffffffffff1673ffffffffffffffffffffffffffffffffffffffff1681526020016001820180546107759061358d565b80601f01602080910402602001604051908101604052809291908181526020018280546107a19061358d565b80156107ee5780601f106107c3576101008083540402835291602001916107ee565b820191906000526020600020905b8154815290600101906020018083116107d157829003601f168201915b505050505081526020016002820180546108079061358d565b80601f01602080910402602001604051908101604052809291908181526020018280546108339061358d565b80156108805780601f1061085557610100808354040283529160200191610880565b820191906000526020600020905b81548152906001019060200180831161086357829003601f168201915b505050505081526020016003820160009054906101000a900460ff1660028111156108ae576108ad612ee3565b5b60028111156108c0576108bf612ee3565b5b815250509050848160200151826040015183606001519450945094509450509193509193565b600073ffffffffffffffffffffffffffffffffffffffff168273ffffffffffffffffffffffffffffffffffffffff16036109585760006040517f64a0ae9200000000000000000000000000000000000000000000000000000000815260040161094f9190612e20565b60405180910390fd5b600061096c8383610967611f1c565b611f36565b90508373ffffffffffffffffffffffffffffffffffffffff168173ffffffffffffffffffffffffffffffffffffffff16146109e2578382826040517f64283d7b0000000000000000000000000000000000000000000000000000000081526004016109d99392919061362a565b60405180910390fd5b50505050565b600080600860008473ffffffffffffffffffffffffffffffffffffffff1673ffffffffffffffffffffffffffffffffffffffff1681526020019081526020016000205403610a6b576040517f08c379a0000000000000000000000000000000000000000000000000000000008152600401610a629061360a565b60405180910390fd5b6000600860008473ffffffffffffffffffffffffffffffffffffffff1673ffffffffffffffffffffffffffffffffffffffff16815260200190815260200160002054905060016002811115610ac357610ac2612ee3565b5b6007600083815260200190815260200160002060030160009054906101000a900460ff166002811115610af957610af8612ee3565b5b14915050919050565b610b1d838383604051806020016040528060008152506116f4565b505050565b600073ffffffffffffffffffffffffffffffffffffffff16610b4383610c13565b73ffffffffffffffffffffffffffffffffffffffff1603610b99576040517f08c379a0000000000000000000000000000000000000000000000000000000008152600401610b90906136ad565b60405180910390fd5b806007600084815260200190815260200160002060030160006101000a81548160ff02191690836002811115610bd257610bd1612ee3565b5b0217905550817fa86f01eb0bd1f4336cd5cb1c32d89f5128e21d6e243cb3e1ae3e2fcd2d64e6b182604051610c079190613503565b60405180910390a25050565b6000610c1e82611e57565b9050919050565b60008073ffffffffffffffffffffffffffffffffffffffff168273ffffffffffffffffffffffffffffffffffffffff1603610c985760006040517f89c62b64000000000000000000000000000000000000000000000000000000008152600401610c8f9190612e20565b60405180910390fd5b600360008373ffffffffffffffffffffffffffffffffffffffff1673ffffffffffffffffffffffffffffffffffffffff168152602001908152602001600020549050919050565b600073ffffffffffffffffffffffffffffffffffffffff168373ffffffffffffffffffffffffffffffffffffffff1603610d4e576040517f08c379a0000000000000000000000000000000000000000000000000000000008152600401610d4590613719565b60405180910390fd5b6000825111610d92576040517f08c379a0000000000000000000000000000000000000000000000000000000008152600401610d8990613785565b60405180910390fd5b6000815111610dd6576040517f08c379a0000000000000000000000000000000000000000000000000000000008152600401610dcd906137f1565b60405180910390fd5b6000600860008573ffffffffffffffffffffffffffffffffffffffff1673ffffffffffffffffffffffffffffffffffffffff1681526020019081526020016000205414610e58576040517f08c379a0000000000000000000000000000000000000000000000000000000008152600401610e4f9061385d565b60405180910390fd5b60006001600954610e6991906138ac565b905080600981905550610e7c8482612150565b60405180608001604052808573ffffffffffffffffffffffffffffffffffffffff16815260200184815260200183815260200160006002811115610ec357610ec2612ee3565b5b8152506007600083815260200190815260200160002060008201518160000160006101000a81548173ffffffffffffffffffffffffffffffffffffffff021916908373ffffffffffffffffffffffffffffffffffffffff1602179055506020820151816001019081610f359190613a8c565b506040820151816002019081610f4b9190613a8c565b5060608201518160030160006101000a81548160ff02191690836002811115610f7757610f76612ee3565b5b021790555090505080600860008673ffffffffffffffffffffffffffffffffffffffff1673ffffffffffffffffffffffffffffffffffffffff168152602001908152602001600020819055508373ffffffffffffffffffffffffffffffffffffffff16817f0972f0acd4e9379b0cbfee1eb3c8865943ddd945da0dce361ca6f097d66a73d28585600060405161100f93929190613b5e565b60405180910390a350505050565b60606001805461102c9061358d565b80601f01602080910402602001604051908101604052809291908181526020018280546110589061358d565b80156110a55780601f1061107a576101008083540402835291602001916110a5565b820191906000526020600020905b81548152906001019060200180831161108857829003601f168201915b5050505050905090565b6000606080600080600860008773ffffffffffffffffffffffffffffffffffffffff1673ffffffffffffffffffffffffffffffffffffffff1681526020019081526020016000205403611137576040517f08c379a000000000000000000000000000000000000000000000000000000000815260040161112e9061360a565b60405180910390fd5b6000600860008773ffffffffffffffffffffffffffffffffffffffff1673ffffffffffffffffffffffffffffffffffffffff1681526020019081526020016000205490506000600760008381526020019081526020016000206040518060800160405290816000820160009054906101000a900473ffffffffffffffffffffffffffffffffffffffff1673ffffffffffffffffffffffffffffffffffffffff1673ffffffffffffffffffffffffffffffffffffffff1681526020016001820180546112019061358d565b80601f016020809104026020016040519081016040528092919081815260200182805461122d9061358d565b801561127a5780601f1061124f5761010080835404028352916020019161127a565b820191906000526020600020905b81548152906001019060200180831161125d57829003601f168201915b505050505081526020016002820180546112939061358d565b80601f01602080910402602001604051908101604052809291908181526020018280546112bf9061358d565b801561130c5780601f106112e15761010080835404028352916020019161130c565b820191906000526020600020905b8154815290600101906020018083116112ef57829003601f168201915b505050505081526020016003820160009054906101000a900460ff16600281111561133a57611339612ee3565b5b600281111561134c5761134b612ee3565b5b8152505090508060000151816020015182604001518360600151955095509550955050509193509193565b60086020528060005260406000206000915090505481565b6113a161139a611f1c565b8383612249565b5050565b60076020528060005260406000206000915090508060000160009054906101000a900473ffffffffffffffffffffffffffffffffffffffff16908060010180546113ee9061358d565b80601f016020809104026020016040519081016040528092919081815260200182805461141a9061358d565b80156114675780601f1061143c57610100808354040283529160200191611467565b820191906000526020600020905b81548152906001019060200180831161144a57829003601f168201915b50505050509080600201805461147c9061358d565b80601f01602080910402602001604051908101604052809291908181526020018280546114a89061358d565b80156114f55780601f106114ca576101008083540402835291602001916114f5565b820191906000526020600020905b8154815290600101906020018083116114d857829003601f168201915b5050505050908060030160009054906101000a900460ff16905084565b6060600080600190505b6009548111611596576000600281111561153957611538612ee3565b5b6007600083815260200190815260200160002060030160009054906101000a900460ff16600281111561156f5761156e612ee3565b5b0361158357818061157f90613ba3565b9250505b808061158e90613ba3565b91505061151c565b5060008167ffffffffffffffff8111156115b3576115b261308a565b5b6040519080825280602002602001820160405280156115e15781602001602082028036833780820191505090505b509050600080600190505b60095481116116ea576000600281111561160957611608612ee3565b5b6007600083815260200190815260200160002060030160009054906101000a900460ff16600281111561163f5761163e612ee3565b5b036116d7576007600082815260200190815260200160002060000160009054906101000a900473ffffffffffffffffffffffffffffffffffffffff1683838151811061168e5761168d613beb565b5b602002602001019073ffffffffffffffffffffffffffffffffffffffff16908173ffffffffffffffffffffffffffffffffffffffff168152505081806116d390613ba3565b9250505b80806116e290613ba3565b9150506115ec565b5081935050505090565b6116ff8484846108e6565b61171361170a611f1c565b858585856123b8565b50505050565b6060600080600190505b600954811161179d57600160028111156117405761173f612ee3565b5b6007600083815260200190815260200160002060030160009054906101000a900460ff16600281111561177657611775612ee3565b5b0361178a57818061178690613ba3565b9250505b808061179590613ba3565b915050611723565b5060008167ffffffffffffffff8111156117ba576117b961308a565b5b6040519080825280602002602001820160405280156117e85781602001602082028036833780820191505090505b509050600080600190505b60095481116118f157600160028111156118105761180f612ee3565b5b6007600083815260200190815260200160002060030160009054906101000a900460ff16600281111561184657611845612ee3565b5b036118de576007600082815260200190815260200160002060000160009054906101000a900473ffffffffffffffffffffffffffffffffffffffff1683838151811061189557611894613beb565b5b602002602001019073ffffffffffffffffffffffffffffffffffffffff16908173ffffffffffffffffffffffffffffffffffffffff168152505081806118da90613ba3565b9250505b80806118e990613ba3565b9150506117f3565b5081935050505090565b606061190682611e57565b5060006006600084815260200190815260200160002080546119279061358d565b80601f01602080910402602001604051908101604052809291908181526020018280546119539061358d565b80156119a05780601f10611975576101008083540402835291602001916119a0565b820191906000526020600020905b81548152906001019060200180831161198357829003601f168201915b5050505050905060006119b1612569565b905060008151036119c6578192505050611a09565b6000825111156119fb5780826040516020016119e3929190613c56565b60405160208183030381529060405292505050611a09565b611a0484612580565b925050505b919050565b600080600860008473ffffffffffffffffffffffffffffffffffffffff1673ffffffffffffffffffffffffffffffffffffffff1681526020019081526020016000205403611a91576040517f08c379a0000000000000000000000000000000000000000000000000000000008152600401611a889061360a565b60405180910390fd5b6000600860008473ffffffffffffffffffffffffffffffffffffffff1673ffffffffffffffffffffffffffffffffffffffff1681526020019081526020016000205490506007600082815260200190815260200160002060030160009054906101000a900460ff16915050919050565b6000600560008473ffffffffffffffffffffffffffffffffffffffff1673ffffffffffffffffffffffffffffffffffffffff16815260200190815260200160002060008373ffffffffffffffffffffffffffffffffffffffff1673ffffffffffffffffffffffffffffffffffffffff16815260200190815260200160002060009054906101000a900460ff16905092915050565b6060600080600190505b6009548111611c1857600280811115611bbb57611bba612ee3565b5b6007600083815260200190815260200160002060030160009054906101000a900460ff166002811115611bf157611bf0612ee3565b5b03611c05578180611c0190613ba3565b9250505b8080611c1090613ba3565b915050611b9f565b5060008167ffffffffffffffff811115611c3557611c3461308a565b5b604051908082528060200260200182016040528015611c635781602001602082028036833780820191505090505b509050600080600190505b6009548111611d6b57600280811115611c8a57611c89612ee3565b5b6007600083815260200190815260200160002060030160009054906101000a900460ff166002811115611cc057611cbf612ee3565b5b03611d58576007600082815260200190815260200160002060000160009054906101000a900473ffffffffffffffffffffffffffffffffffffffff16838381518110611d0f57611d0e613beb565b5b602002602001019073ffffffffffffffffffffffffffffffffffffffff16908173ffffffffffffffffffffffffffffffffffffffff16815250508180611d5490613ba3565b9250505b8080611d6390613ba3565b915050611c6e565b5081935050505090565b60007f80ac58cd000000000000000000000000000000000000000000000000000000007bffffffffffffffffffffffffffffffffffffffffffffffffffffffff1916827bffffffffffffffffffffffffffffffffffffffffffffffffffffffff19161480611e4057507f5b5e139f000000000000000000000000000000000000000000000000000000007bffffffffffffffffffffffffffffffffffffffffffffffffffffffff1916827bffffffffffffffffffffffffffffffffffffffffffffffffffffffff1916145b80611e505750611e4f826125e9565b5b9050919050565b600080611e6383612653565b9050600073ffffffffffffffffffffffffffffffffffffffff168173ffffffffffffffffffffffffffffffffffffffff1603611ed657826040517f7e273289000000000000000000000000000000000000000000000000000000008152600401611ecd9190613065565b60405180910390fd5b80915050919050565b60006004600083815260200190815260200160002060009054906101000a900473ffffffffffffffffffffffffffffffffffffffff169050919050565b600033905090565b611f318383836001612690565b505050565b600080611f4284612653565b9050600073ffffffffffffffffffffffffffffffffffffffff168373ffffffffffffffffffffffffffffffffffffffff1614611f8457611f83818486612855565b5b600073ffffffffffffffffffffffffffffffffffffffff168173ffffffffffffffffffffffffffffffffffffffff161461201557611fc6600085600080612690565b6001600360008373ffffffffffffffffffffffffffffffffffffffff1673ffffffffffffffffffffffffffffffffffffffff168152602001908152602001600020600082825403925050819055505b600073ffffffffffffffffffffffffffffffffffffffff168573ffffffffffffffffffffffffffffffffffffffff1614612098576001600360008773ffffffffffffffffffffffffffffffffffffffff1673ffffffffffffffffffffffffffffffffffffffff168152602001908152602001600020600082825401925050819055505b846002600086815260200190815260200160002060006101000a81548173ffffffffffffffffffffffffffffffffffffffff021916908373ffffffffffffffffffffffffffffffffffffffff160217905550838573ffffffffffffffffffffffffffffffffffffffff168273ffffffffffffffffffffffffffffffffffffffff167fddf252ad1be2c89b69c2b068fc378daa952ba7f163c4a11628f55a4df523b3ef60405160405180910390a4809150509392505050565b600073ffffffffffffffffffffffffffffffffffffffff168273ffffffffffffffffffffffffffffffffffffffff16036121c25760006040517f64a0ae920000000000000000000000000000000000000000000000000000000081526004016121b99190612e20565b60405180910390fd5b60006121d083836000611f36565b9050600073ffffffffffffffffffffffffffffffffffffffff168173ffffffffffffffffffffffffffffffffffffffff16146122445760006040517f73c6ac6e00000000000000000000000000000000000000000000000000000000815260040161223b9190612e20565b60405180910390fd5b505050565b600073ffffffffffffffffffffffffffffffffffffffff168273ffffffffffffffffffffffffffffffffffffffff16036122ba57816040517f5b08ba180000000000000000000000000000000000000000000000000000000081526004016122b19190612e20565b60405180910390fd5b80600560008573ffffffffffffffffffffffffffffffffffffffff1673ffffffffffffffffffffffffffffffffffffffff16815260200190815260200160002060008473ffffffffffffffffffffffffffffffffffffffff1673ffffffffffffffffffffffffffffffffffffffff16815260200190815260200160002060006101000a81548160ff0219169083151502179055508173ffffffffffffffffffffffffffffffffffffffff168373ffffffffffffffffffffffffffffffffffffffff167f17307eab39ab6107e8899845ad3d59bd9653f200f220920489ca2b5937696c31836040516123ab9190612caf565b60405180910390a3505050565b60008373ffffffffffffffffffffffffffffffffffffffff163b1115612562578273ffffffffffffffffffffffffffffffffffffffff1663150b7a02868685856040518563ffffffff1660e01b81526004016124179493929190613ccf565b6020604051808303816000875af192505050801561245357506040513d601f19601f820116820180604052508101906124509190613d30565b60015b6124d7573d8060008114612483576040519150601f19603f3d011682016040523d82523d6000602084013e612488565b606091505b5060008151036124cf57836040517f64a0ae920000000000000000000000000000000000000000000000000000000081526004016124c69190612e20565b60405180910390fd5b805181602001fd5b63150b7a0260e01b7bffffffffffffffffffffffffffffffffffffffffffffffffffffffff1916817bffffffffffffffffffffffffffffffffffffffffffffffffffffffff19161461256057836040517f64a0ae920000000000000000000000000000000000000000000000000000000081526004016125579190612e20565b60405180910390fd5b505b5050505050565b606060405180602001604052806000815250905090565b606061258b82611e57565b506000612596612569565b905060008151116125b657604051806020016040528060008152506125e1565b806125c084612919565b6040516020016125d1929190613c56565b6040516020818303038152906040525b915050919050565b60007f01ffc9a7000000000000000000000000000000000000000000000000000000007bffffffffffffffffffffffffffffffffffffffffffffffffffffffff1916827bffffffffffffffffffffffffffffffffffffffffffffffffffffffff1916149050919050565b60006002600083815260200190815260200160002060009054906101000a900473ffffffffffffffffffffffffffffffffffffffff169050919050565b80806126c95750600073ffffffffffffffffffffffffffffffffffffffff168273ffffffffffffffffffffffffffffffffffffffff1614155b156127fd5760006126d984611e57565b9050600073ffffffffffffffffffffffffffffffffffffffff168373ffffffffffffffffffffffffffffffffffffffff161415801561274457508273ffffffffffffffffffffffffffffffffffffffff168173ffffffffffffffffffffffffffffffffffffffff1614155b801561275757506127558184611b01565b155b1561279957826040517fa9fbf51f0000000000000000000000000000000000000000000000000000000081526004016127909190612e20565b60405180910390fd5b81156127fb57838573ffffffffffffffffffffffffffffffffffffffff168273ffffffffffffffffffffffffffffffffffffffff167f8c5be1e5ebec7d5bd14f71427d1e84f3dd0314c0f7b2291e5b200ac8c7c3b92560405160405180910390a45b505b836004600085815260200190815260200160002060006101000a81548173ffffffffffffffffffffffffffffffffffffffff021916908373ffffffffffffffffffffffffffffffffffffffff16021790555050505050565b6128608383836129e7565b61291457600073ffffffffffffffffffffffffffffffffffffffff168373ffffffffffffffffffffffffffffffffffffffff16036128d557806040517f7e2732890000000000000000000000000000000000000000000000000000000081526004016128cc9190613065565b60405180910390fd5b81816040517f177e802f00000000000000000000000000000000000000000000000000000000815260040161290b929190613d5d565b60405180910390fd5b505050565b60606000600161292884612aa8565b01905060008167ffffffffffffffff8111156129475761294661308a565b5b6040519080825280601f01601f1916602001820160405280156129795781602001600182028036833780820191505090505b509050600082602001820190505b6001156129dc578080600190039150507f3031323334353637383961626364656600000000000000000000000000000000600a86061a8153600a85816129d0576129cf613d86565b5b04945060008503612987575b819350505050919050565b60008073ffffffffffffffffffffffffffffffffffffffff168373ffffffffffffffffffffffffffffffffffffffff1614158015612a9f57508273ffffffffffffffffffffffffffffffffffffffff168473ffffffffffffffffffffffffffffffffffffffff161480612a605750612a5f8484611b01565b5b80612a9e57508273ffffffffffffffffffffffffffffffffffffffff16612a8683611edf565b73ffffffffffffffffffffffffffffffffffffffff16145b5b90509392505050565b600080600090507a184f03e93ff9f4daa797ed6e38ed64bf6a1f0100000000000000008310612b06577a184f03e93ff9f4daa797ed6e38ed64bf6a1f0100000000000000008381612afc57612afb613d86565b5b0492506040810190505b6d04ee2d6d415b85acef81000000008310612b43576d04ee2d6d415b85acef81000000008381612b3957612b38613d86565b5b0492506020810190505b662386f26fc100008310612b7257662386f26fc100008381612b6857612b67613d86565b5b0492506010810190505b6305f5e1008310612b9b576305f5e1008381612b9157612b90613d86565b5b0492506008810190505b6127108310612bc0576127108381612bb657612bb5613d86565b5b0492506004810190505b60648310612be35760648381612bd957612bd8613d86565b5b0492506002810190505b600a8310612bf2576001810190505b80915050919050565b6000604051905090565b600080fd5b600080fd5b60007fffffffff0000000000000000000000000000000000000000000000000000000082169050919050565b612c4481612c0f565b8114612c4f57600080fd5b50565b600081359050612c6181612c3b565b92915050565b600060208284031215612c7d57612c7c612c05565b5b6000612c8b84828501612c52565b91505092915050565b60008115159050919050565b612ca981612c94565b82525050565b6000602082019050612cc46000830184612ca0565b92915050565b600081519050919050565b600082825260208201905092915050565b60005b83811015612d04578082015181840152602081019050612ce9565b60008484015250505050565b6000601f19601f8301169050919050565b6000612d2c82612cca565b612d368185612cd5565b9350612d46818560208601612ce6565b612d4f81612d10565b840191505092915050565b60006020820190508181036000830152612d748184612d21565b905092915050565b6000819050919050565b612d8f81612d7c565b8114612d9a57600080fd5b50565b600081359050612dac81612d86565b92915050565b600060208284031215612dc857612dc7612c05565b5b6000612dd684828501612d9d565b91505092915050565b600073ffffffffffffffffffffffffffffffffffffffff82169050919050565b6000612e0a82612ddf565b9050919050565b612e1a81612dff565b82525050565b6000602082019050612e356000830184612e11565b92915050565b612e4481612dff565b8114612e4f57600080fd5b50565b600081359050612e6181612e3b565b92915050565b60008060408385031215612e7e57612e7d612c05565b5b6000612e8c85828601612e52565b9250506020612e9d85828601612d9d565b9150509250929050565b600060208284031215612ebd57612ebc612c05565b5b6000612ecb84828501612e52565b91505092915050565b612edd81612d7c565b82525050565b7f4e487b7100000000000000000000000000000000000000000000000000000000600052602160045260246000fd5b60038110612f2357612f22612ee3565b5b50565b6000819050612f3482612f12565b919050565b6000612f4482612f26565b9050919050565b612f5481612f39565b82525050565b6000608082019050612f6f6000830187612ed4565b8181036020830152612f818186612d21565b90508181036040830152612f958185612d21565b9050612fa46060830184612f4b565b95945050505050565b600080600060608486031215612fc657612fc5612c05565b5b6000612fd486828701612e52565b9350506020612fe586828701612e52565b9250506040612ff686828701612d9d565b9150509250925092565b6003811061300d57600080fd5b50565b60008135905061301f81613000565b92915050565b6000806040838503121561303c5761303b612c05565b5b600061304a85828601612d9d565b925050602061305b85828601613010565b9150509250929050565b600060208201905061307a6000830184612ed4565b92915050565b600080fd5b600080fd5b7f4e487b7100000000000000000000000000000000000000000000000000000000600052604160045260246000fd5b6130c282612d10565b810181811067ffffffffffffffff821117156130e1576130e061308a565b5b80604052505050565b60006130f4612bfb565b905061310082826130b9565b919050565b600067ffffffffffffffff8211156131205761311f61308a565b5b61312982612d10565b9050602081019050919050565b82818337600083830152505050565b600061315861315384613105565b6130ea565b90508281526020810184848401111561317457613173613085565b5b61317f848285613136565b509392505050565b600082601f83011261319c5761319b613080565b5b81356131ac848260208601613145565b91505092915050565b6000806000606084860312156131ce576131cd612c05565b5b60006131dc86828701612e52565b935050602084013567ffffffffffffffff8111156131fd576131fc612c0a565b5b61320986828701613187565b925050604084013567ffffffffffffffff81111561322a57613229612c0a565b5b61323686828701613187565b9150509250925092565b60006080820190506132556000830187612e11565b81810360208301526132678186612d21565b9050818103604083015261327b8185612d21565b905061328a6060830184612f4b565b95945050505050565b61329c81612c94565b81146132a757600080fd5b50565b6000813590506132b981613293565b92915050565b600080604083850312156132d6576132d5612c05565b5b60006132e485828601612e52565b92505060206132f5858286016132aa565b9150509250929050565b600081519050919050565b600082825260208201905092915050565b6000819050602082019050919050565b61333481612dff565b82525050565b6000613346838361332b565b60208301905092915050565b6000602082019050919050565b600061336a826132ff565b613374818561330a565b935061337f8361331b565b8060005b838110156133b0578151613397888261333a565b97506133a283613352565b925050600181019050613383565b5085935050505092915050565b600060208201905081810360008301526133d7818461335f565b905092915050565b600067ffffffffffffffff8211156133fa576133f961308a565b5b61340382612d10565b9050602081019050919050565b600061342361341e846133df565b6130ea565b90508281526020810184848401111561343f5761343e613085565b5b61344a848285613136565b509392505050565b600082601f83011261346757613466613080565b5b8135613477848260208601613410565b91505092915050565b6000806000806080858703121561349a57613499612c05565b5b60006134a887828801612e52565b94505060206134b987828801612e52565b93505060406134ca87828801612d9d565b925050606085013567ffffffffffffffff8111156134eb576134ea612c0a565b5b6134f787828801613452565b91505092959194509250565b60006020820190506135186000830184612f4b565b92915050565b6000806040838503121561353557613534612c05565b5b600061354385828601612e52565b925050602061355485828601612e52565b9150509250929050565b7f4e487b7100000000000000000000000000000000000000000000000000000000600052602260045260246000fd5b600060028204905060018216806135a557607f821691505b6020821081036135b8576135b761355e565b5b50919050565b7f4d616e756661637475726572206e6f7420666f756e6400000000000000000000600082015250565b60006135f4601683612cd5565b91506135ff826135be565b602082019050919050565b60006020820190508181036000830152613623816135e7565b9050919050565b600060608201905061363f6000830186612e11565b61364c6020830185612ed4565b6136596040830184612e11565b949350505050565b7f546f6b656e20646f6573206e6f74206578697374000000000000000000000000600082015250565b6000613697601483612cd5565b91506136a282613661565b602082019050919050565b600060208201905081810360008301526136c68161368a565b9050919050565b7f496e76616c6964206d616e756661637475726572206164647265737300000000600082015250565b6000613703601c83612cd5565b915061370e826136cd565b602082019050919050565b60006020820190508181036000830152613732816136f6565b9050919050565b7f4a534f4e204349442063616e6e6f7420626520656d7074790000000000000000600082015250565b600061376f601883612cd5565b915061377a82613739565b602082019050919050565b6000602082019050818103600083015261379e81613762565b9050919050565b7f504446204349442063616e6e6f7420626520656d707479000000000000000000600082015250565b60006137db601783612cd5565b91506137e6826137a5565b602082019050919050565b6000602082019050818103600083015261380a816137ce565b9050919050565b7f4d616e75666163747572657220616c72656164792073746f7265640000000000600082015250565b6000613847601b83612cd5565b915061385282613811565b602082019050919050565b600060208201905081810360008301526138768161383a565b9050919050565b7f4e487b7100000000000000000000000000000000000000000000000000000000600052601160045260246000fd5b60006138b782612d7c565b91506138c283612d7c565b92508282019050808211156138da576138d961387d565b5b92915050565b60008190508160005260206000209050919050565b60006020601f8301049050919050565b600082821b905092915050565b6000600883026139427fffffffffffffffffffffffffffffffffffffffffffffffffffffffffffffffff82613905565b61394c8683613905565b95508019841693508086168417925050509392505050565b6000819050919050565b600061398961398461397f84612d7c565b613964565b612d7c565b9050919050565b6000819050919050565b6139a38361396e565b6139b76139af82613990565b848454613912565b825550505050565b600090565b6139cc6139bf565b6139d781848461399a565b505050565b5b818110156139fb576139f06000826139c4565b6001810190506139dd565b5050565b601f821115613a4057613a11816138e0565b613a1a846138f5565b81016020851015613a29578190505b613a3d613a35856138f5565b8301826139dc565b50505b505050565b600082821c905092915050565b6000613a6360001984600802613a45565b1980831691505092915050565b6000613a7c8383613a52565b9150826002028217905092915050565b613a9582612cca565b67ffffffffffffffff811115613aae57613aad61308a565b5b613ab8825461358d565b613ac38282856139ff565b600060209050601f831160018114613af65760008415613ae4578287015190505b613aee8582613a70565b865550613b56565b601f198416613b04866138e0565b60005b82811015613b2c57848901518255600182019150602085019450602081019050613b07565b86831015613b495784890151613b45601f891682613a52565b8355505b6001600288020188555050505b505050505050565b60006060820190508181036000830152613b788186612d21565b90508181036020830152613b8c8185612d21565b9050613b9b6040830184612f4b565b949350505050565b6000613bae82612d7c565b91507fffffffffffffffffffffffffffffffffffffffffffffffffffffffffffffffff8203613be057613bdf61387d565b5b600182019050919050565b7f4e487b7100000000000000000000000000000000000000000000000000000000600052603260045260246000fd5b600081905092915050565b6000613c3082612cca565b613c3a8185613c1a565b9350613c4a818560208601612ce6565b80840191505092915050565b6000613c628285613c25565b9150613c6e8284613c25565b91508190509392505050565b600081519050919050565b600082825260208201905092915050565b6000613ca182613c7a565b613cab8185613c85565b9350613cbb818560208601612ce6565b613cc481612d10565b840191505092915050565b6000608082019050613ce46000830187612e11565b613cf16020830186612e11565b613cfe6040830185612ed4565b8181036060830152613d108184613c96565b905095945050505050565b600081519050613d2a81612c3b565b92915050565b600060208284031215613d4657613d45612c05565b5b6000613d5484828501613d1b565b91505092915050565b6000604082019050613d726000830185612e11565b613d7f6020830184612ed4565b9392505050565b7f4e487b7100000000000000000000000000000000000000000000000000000000600052601260045260246000fdfea2646970667358221220bdc91944d1cbe3eb80947a99aff6f6a18d5935dba4143880b3ffcf8e85436b9364736f6c63430008140033",
  "linkReferences": {},
  "deployedLinkReferences": {}
}