{
  "_format": "hh-sol-artifact-1",
  "contractName": "ManufacturerIPFSStorage",
  "sourceName": "blockchain/contracts/manufacturerregistration.sol",
  "abi": [
    {
      "inputs": [],
      "stateMutability": "nonpayable",
      "type": "constructor"
    },
    {
      "anonymous": false,
      "inputs": [
        {
          "indexed": true,
          "internalType": "address",
          "name": "user",
          "type": "address"
        },
        {
          "indexed": false,
          "internalType": "string",
          "name": "ipfsHash",
          "type": "string"
        }
      ],
      "name": "FileApproved",
      "type": "event"
    },
    {
      "anonymous": false,
      "inputs": [
        {
          "indexed": true,
          "internalType": "address",
          "name": "user",
          "type": "address"
        },
        {
          "indexed": false,
          "internalType": "string",
          "name": "ipfsHash",
          "type": "string"
        }
      ],
      "name": "FileRejected",
      "type": "event"
    },
    {
      "anonymous": false,
      "inputs": [
        {
          "indexed": true,
          "internalType": "address",
          "name": "user",
          "type": "address"
        },
        {
          "indexed": false,
          "internalType": "string",
          "name": "ipfsHash",
          "type": "string"
        }
      ],
      "name": "FileSubmitted",
      "type": "event"
    },
    {
      "inputs": [],
      "name": "admin",
      "outputs": [
        {
          "internalType": "address",
          "name": "",
          "type": "address"
        }
      ],
      "stateMutability": "view",
      "type": "function"
    },
    {
      "inputs": [
        {
          "internalType": "address",
          "name": "_manufacturer",
          "type": "address"
        }
      ],
      "name": "approveHash",
      "outputs": [],
      "stateMutability": "nonpayable",
      "type": "function"
    },
    {
      "inputs": [],
      "name": "getAllHashesWithStatus",
      "outputs": [
        {
          "internalType": "address[]",
          "name": "",
          "type": "address[]"
        },
        {
          "internalType": "string[]",
          "name": "",
          "type": "string[]"
        },
        {
          "internalType": "enum ManufacturerIPFSStorage.Status[]",
          "name": "",
          "type": "uint8[]"
        }
      ],
      "stateMutability": "view",
      "type": "function"
    },
    {
      "inputs": [],
      "name": "getApprovedHashes",
      "outputs": [
        {
          "internalType": "string[]",
          "name": "",
          "type": "string[]"
        }
      ],
      "stateMutability": "view",
      "type": "function"
    },
    {
      "inputs": [
        {
          "internalType": "address",
          "name": "_manufacturer",
          "type": "address"
        }
      ],
      "name": "getHashByAddress",
      "outputs": [
        {
          "internalType": "string",
          "name": "",
          "type": "string"
        },
        {
          "internalType": "enum ManufacturerIPFSStorage.Status",
          "name": "",
          "type": "uint8"
        }
      ],
      "stateMutability": "view",
      "type": "function"
    },
    {
      "inputs": [],
      "name": "getUserHashStatus",
      "outputs": [
        {
          "internalType": "string",
          "name": "",
          "type": "string"
        },
        {
          "internalType": "enum ManufacturerIPFSStorage.Status",
          "name": "",
          "type": "uint8"
        }
      ],
      "stateMutability": "view",
      "type": "function"
    },
    {
      "inputs": [
        {
          "internalType": "address",
          "name": "_manufacturer",
          "type": "address"
        }
      ],
      "name": "rejectHash",
      "outputs": [],
      "stateMutability": "nonpayable",
      "type": "function"
    },
    {
      "inputs": [
        {
          "internalType": "address",
          "name": "_walletAddress",
          "type": "address"
        },
        {
          "internalType": "string",
          "name": "_ipfsHash",
          "type": "string"
        }
      ],
      "name": "submitHash",
      "outputs": [],
      "stateMutability": "nonpayable",
      "type": "function"
    }
  ],
  "bytecode": "0x608060405234801561001057600080fd5b50336000806101000a81548173ffffffffffffffffffffffffffffffffffffffff021916908373ffffffffffffffffffffffffffffffffffffffff16021790555061211b806100606000396000f3fe608060405234801561001057600080fd5b50600436106100885760003560e01c806361868c391161005b57806361868c3914610114578063a1a58ec814610133578063c8a477f61461014f578063f851a4401461016f57610088565b8063056e4c4c1461008d57806319b85dd7146100be5780632e60fb0a146100dc5780635f759c3e146100f8575b600080fd5b6100a760048036038101906100a291906113a6565b61018d565b6040516100b59291906114da565b60405180910390f35b6100c6610348565b6040516100d39190611616565b60405180910390f35b6100f660048036038101906100f191906113a6565b6106a6565b005b610112600480360381019061010d919061176d565b6108e6565b005b61011c610c5a565b60405161012a9291906114da565b60405180910390f35b61014d600480360381019061014891906113a6565b610e14565b005b610157611055565b60405161016693929190611945565b60405180910390f35b610177611310565b60405161018491906119a0565b60405180910390f35b6060600080600160008573ffffffffffffffffffffffffffffffffffffffff1673ffffffffffffffffffffffffffffffffffffffff16815260200190815260200160002060000180546101df906119ea565b905011610221576040517f08c379a000000000000000000000000000000000000000000000000000000000815260040161021890611a8d565b60405180910390fd5b600160008473ffffffffffffffffffffffffffffffffffffffff1673ffffffffffffffffffffffffffffffffffffffff168152602001908152602001600020600001600160008573ffffffffffffffffffffffffffffffffffffffff1673ffffffffffffffffffffffffffffffffffffffff16815260200190815260200160002060010160149054906101000a900460ff168180546102bf906119ea565b80601f01602080910402602001604051908101604052809291908181526020018280546102eb906119ea565b80156103385780601f1061030d57610100808354040283529160200191610338565b820191906000526020600020905b81548152906001019060200180831161031b57829003601f168201915b5050505050915091509150915091565b60606000805b600380549050811015610436576001600281111561036f5761036e611463565b5b600160006003848154811061038757610386611aad565b5b9060005260206000200160009054906101000a900473ffffffffffffffffffffffffffffffffffffffff1673ffffffffffffffffffffffffffffffffffffffff1673ffffffffffffffffffffffffffffffffffffffff16815260200190815260200160002060010160149054906101000a900460ff16600281111561040f5761040e611463565b5b0361042357818061041f90611b15565b9250505b808061042e90611b15565b91505061034e565b5060008167ffffffffffffffff81111561045357610452611642565b5b60405190808252806020026020018201604052801561048657816020015b60608152602001906001900390816104715790505b5090506000805b60038054905081101561069c57600160028111156104ae576104ad611463565b5b60016000600384815481106104c6576104c5611aad565b5b9060005260206000200160009054906101000a900473ffffffffffffffffffffffffffffffffffffffff1673ffffffffffffffffffffffffffffffffffffffff1673ffffffffffffffffffffffffffffffffffffffff16815260200190815260200160002060010160149054906101000a900460ff16600281111561054e5761054d611463565b5b0361068957600160006003838154811061056b5761056a611aad565b5b9060005260206000200160009054906101000a900473ffffffffffffffffffffffffffffffffffffffff1673ffffffffffffffffffffffffffffffffffffffff1673ffffffffffffffffffffffffffffffffffffffff16815260200190815260200160002060000180546105de906119ea565b80601f016020809104026020016040519081016040528092919081815260200182805461060a906119ea565b80156106575780601f1061062c57610100808354040283529160200191610657565b820191906000526020600020905b81548152906001019060200180831161063a57829003601f168201915b505050505083838151811061066f5761066e611aad565b5b6020026020010181905250818061068590611b15565b9250505b808061069490611b15565b91505061048d565b5081935050505090565b60008054906101000a900473ffffffffffffffffffffffffffffffffffffffff1673ffffffffffffffffffffffffffffffffffffffff163373ffffffffffffffffffffffffffffffffffffffff1614610734576040517f08c379a000000000000000000000000000000000000000000000000000000000815260040161072b90611bcf565b60405180910390fd5b6000600281111561074857610747611463565b5b600160008373ffffffffffffffffffffffffffffffffffffffff1673ffffffffffffffffffffffffffffffffffffffff16815260200190815260200160002060010160149054906101000a900460ff1660028111156107aa576107a9611463565b5b146107ea576040517f08c379a00000000000000000000000000000000000000000000000000000000081526004016107e190611c3b565b60405180910390fd5b60018060008373ffffffffffffffffffffffffffffffffffffffff1673ffffffffffffffffffffffffffffffffffffffff16815260200190815260200160002060010160146101000a81548160ff0219169083600281111561084f5761084e611463565b5b02179055508073ffffffffffffffffffffffffffffffffffffffff167f66cb3da7f49a54119d2d00183578fd3fd12a2c3d5ef0bcda46ef5228c0209104600160008473ffffffffffffffffffffffffffffffffffffffff1673ffffffffffffffffffffffffffffffffffffffff1681526020019081526020016000206000016040516108db9190611cf4565b60405180910390a250565b600081511161092a576040517f08c379a000000000000000000000000000000000000000000000000000000000815260040161092190611d62565b60405180910390fd5b6000600281111561093e5761093d611463565b5b600160008473ffffffffffffffffffffffffffffffffffffffff1673ffffffffffffffffffffffffffffffffffffffff16815260200190815260200160002060010160149054906101000a900460ff1660028111156109a05761099f611463565b5b1480610a1e57506002808111156109ba576109b9611463565b5b600160008473ffffffffffffffffffffffffffffffffffffffff1673ffffffffffffffffffffffffffffffffffffffff16815260200190815260200160002060010160149054906101000a900460ff166002811115610a1c57610a1b611463565b5b145b610a5d576040517f08c379a0000000000000000000000000000000000000000000000000000000008152600401610a5490611dce565b60405180910390fd5b60405180606001604052808281526020018373ffffffffffffffffffffffffffffffffffffffff16815260200160006002811115610a9e57610a9d611463565b5b815250600160008473ffffffffffffffffffffffffffffffffffffffff1673ffffffffffffffffffffffffffffffffffffffff1681526020019081526020016000206000820151816000019081610af59190611f85565b5060208201518160010160006101000a81548173ffffffffffffffffffffffffffffffffffffffff021916908373ffffffffffffffffffffffffffffffffffffffff16021790555060408201518160010160146101000a81548160ff02191690836002811115610b6857610b67611463565b5b0217905550905050600281908060018154018082558091505060019003906000526020600020016000909190919091509081610ba49190611f85565b506003829080600181540180825580915050600190039060005260206000200160009091909190916101000a81548173ffffffffffffffffffffffffffffffffffffffff021916908373ffffffffffffffffffffffffffffffffffffffff1602179055508173ffffffffffffffffffffffffffffffffffffffff167f752ff30002b562ba5eedf930f4acf59b084d764805edcd5fb9b3d26a2aa56f9982604051610c4e9190612057565b60405180910390a25050565b6060600080600160003373ffffffffffffffffffffffffffffffffffffffff1673ffffffffffffffffffffffffffffffffffffffff1681526020019081526020016000206000018054610cac906119ea565b905011610cee576040517f08c379a0000000000000000000000000000000000000000000000000000000008152600401610ce5906120c5565b60405180910390fd5b600160003373ffffffffffffffffffffffffffffffffffffffff1673ffffffffffffffffffffffffffffffffffffffff168152602001908152602001600020600001600160003373ffffffffffffffffffffffffffffffffffffffff1673ffffffffffffffffffffffffffffffffffffffff16815260200190815260200160002060010160149054906101000a900460ff16818054610d8c906119ea565b80601f0160208091040260200160405190810160405280929190818152602001828054610db8906119ea565b8015610e055780601f10610dda57610100808354040283529160200191610e05565b820191906000526020600020905b815481529060010190602001808311610de857829003601f168201915b50505050509150915091509091565b60008054906101000a900473ffffffffffffffffffffffffffffffffffffffff1673ffffffffffffffffffffffffffffffffffffffff163373ffffffffffffffffffffffffffffffffffffffff1614610ea2576040517f08c379a0000000000000000000000000000000000000000000000000000000008152600401610e9990611bcf565b60405180910390fd5b60006002811115610eb657610eb5611463565b5b600160008373ffffffffffffffffffffffffffffffffffffffff1673ffffffffffffffffffffffffffffffffffffffff16815260200190815260200160002060010160149054906101000a900460ff166002811115610f1857610f17611463565b5b14610f58576040517f08c379a0000000000000000000000000000000000000000000000000000000008152600401610f4f90611c3b565b60405180910390fd5b6002600160008373ffffffffffffffffffffffffffffffffffffffff1673ffffffffffffffffffffffffffffffffffffffff16815260200190815260200160002060010160146101000a81548160ff02191690836002811115610fbe57610fbd611463565b5b02179055508073ffffffffffffffffffffffffffffffffffffffff167fbcdf1bd155aa149c8f95960e91f2f5d62d47c039b651ffb4775b35447a4d8201600160008473ffffffffffffffffffffffffffffffffffffffff1673ffffffffffffffffffffffffffffffffffffffff16815260200190815260200160002060000160405161104a9190611cf4565b60405180910390a250565b60608060606000600380549050905060008167ffffffffffffffff8111156110805761107f611642565b5b6040519080825280602002602001820160405280156110ae5781602001602082028036833780820191505090505b50905060005b828110156111a25760016000600383815481106110d4576110d3611aad565b5b9060005260206000200160009054906101000a900473ffffffffffffffffffffffffffffffffffffffff1673ffffffffffffffffffffffffffffffffffffffff1673ffffffffffffffffffffffffffffffffffffffff16815260200190815260200160002060010160149054906101000a900460ff1682828151811061115d5761115c611aad565b5b6020026020010190600281111561117757611176611463565b5b9081600281111561118b5761118a611463565b5b81525050808061119a90611b15565b9150506110b4565b5060036002828280548060200260200160405190810160405280929190818152602001828054801561122957602002820191906000526020600020905b8160009054906101000a900473ffffffffffffffffffffffffffffffffffffffff1673ffffffffffffffffffffffffffffffffffffffff16815260200190600101908083116111df575b5050505050925081805480602002602001604051908101604052809291908181526020016000905b828210156112fd578382906000526020600020018054611270906119ea565b80601f016020809104026020016040519081016040528092919081815260200182805461129c906119ea565b80156112e95780601f106112be576101008083540402835291602001916112e9565b820191906000526020600020905b8154815290600101906020018083116112cc57829003601f168201915b505050505081526020019060010190611251565b5050505091509450945094505050909192565b60008054906101000a900473ffffffffffffffffffffffffffffffffffffffff1681565b6000604051905090565b600080fd5b600080fd5b600073ffffffffffffffffffffffffffffffffffffffff82169050919050565b600061137382611348565b9050919050565b61138381611368565b811461138e57600080fd5b50565b6000813590506113a08161137a565b92915050565b6000602082840312156113bc576113bb61133e565b5b60006113ca84828501611391565b91505092915050565b600081519050919050565b600082825260208201905092915050565b60005b8381101561140d5780820151818401526020810190506113f2565b60008484015250505050565b6000601f19601f8301169050919050565b6000611435826113d3565b61143f81856113de565b935061144f8185602086016113ef565b61145881611419565b840191505092915050565b7f4e487b7100000000000000000000000000000000000000000000000000000000600052602160045260246000fd5b600381106114a3576114a2611463565b5b50565b60008190506114b482611492565b919050565b60006114c4826114a6565b9050919050565b6114d4816114b9565b82525050565b600060408201905081810360008301526114f4818561142a565b905061150360208301846114cb565b9392505050565b600081519050919050565b600082825260208201905092915050565b6000819050602082019050919050565b600082825260208201905092915050565b6000611552826113d3565b61155c8185611536565b935061156c8185602086016113ef565b61157581611419565b840191505092915050565b600061158c8383611547565b905092915050565b6000602082019050919050565b60006115ac8261150a565b6115b68185611515565b9350836020820285016115c885611526565b8060005b8581101561160457848403895281516115e58582611580565b94506115f083611594565b925060208a019950506001810190506115cc565b50829750879550505050505092915050565b6000602082019050818103600083015261163081846115a1565b905092915050565b600080fd5b600080fd5b7f4e487b7100000000000000000000000000000000000000000000000000000000600052604160045260246000fd5b61167a82611419565b810181811067ffffffffffffffff8211171561169957611698611642565b5b80604052505050565b60006116ac611334565b90506116b88282611671565b919050565b600067ffffffffffffffff8211156116d8576116d7611642565b5b6116e182611419565b9050602081019050919050565b82818337600083830152505050565b600061171061170b846116bd565b6116a2565b90508281526020810184848401111561172c5761172b61163d565b5b6117378482856116ee565b509392505050565b600082601f83011261175457611753611638565b5b81356117648482602086016116fd565b91505092915050565b600080604083850312156117845761178361133e565b5b600061179285828601611391565b925050602083013567ffffffffffffffff8111156117b3576117b2611343565b5b6117bf8582860161173f565b9150509250929050565b600081519050919050565b600082825260208201905092915050565b6000819050602082019050919050565b6117fe81611368565b82525050565b600061181083836117f5565b60208301905092915050565b6000602082019050919050565b6000611834826117c9565b61183e81856117d4565b9350611849836117e5565b8060005b8381101561187a5781516118618882611804565b975061186c8361181c565b92505060018101905061184d565b5085935050505092915050565b600081519050919050565b600082825260208201905092915050565b6000819050602082019050919050565b6118bc816114b9565b82525050565b60006118ce83836118b3565b60208301905092915050565b6000602082019050919050565b60006118f282611887565b6118fc8185611892565b9350611907836118a3565b8060005b8381101561193857815161191f88826118c2565b975061192a836118da565b92505060018101905061190b565b5085935050505092915050565b6000606082019050818103600083015261195f8186611829565b9050818103602083015261197381856115a1565b9050818103604083015261198781846118e7565b9050949350505050565b61199a81611368565b82525050565b60006020820190506119b56000830184611991565b92915050565b7f4e487b7100000000000000000000000000000000000000000000000000000000600052602260045260246000fd5b60006002820490506001821680611a0257607f821691505b602082108103611a1557611a146119bb565b5b50919050565b7f4e6f2049504653206861736820666f756e6420666f722074686973206164647260008201527f6573730000000000000000000000000000000000000000000000000000000000602082015250565b6000611a776023836113de565b9150611a8282611a1b565b604082019050919050565b60006020820190508181036000830152611aa681611a6a565b9050919050565b7f4e487b7100000000000000000000000000000000000000000000000000000000600052603260045260246000fd5b7f4e487b7100000000000000000000000000000000000000000000000000000000600052601160045260246000fd5b6000819050919050565b6000611b2082611b0b565b91507fffffffffffffffffffffffffffffffffffffffffffffffffffffffffffffffff8203611b5257611b51611adc565b5b600182019050919050565b7f4f6e6c792061646d696e2063616e20706572666f726d2074686973206163746960008201527f6f6e000000000000000000000000000000000000000000000000000000000000602082015250565b6000611bb96022836113de565b9150611bc482611b5d565b604082019050919050565b60006020820190508181036000830152611be881611bac565b9050919050565b7f48617368206973206e6f742070656e64696e6720617070726f76616c00000000600082015250565b6000611c25601c836113de565b9150611c3082611bef565b602082019050919050565b60006020820190508181036000830152611c5481611c18565b9050919050565b60008190508160005260206000209050919050565b60008154611c7d816119ea565b611c8781866113de565b94506001821660008114611ca25760018114611cb857611ceb565b60ff198316865281151560200286019350611ceb565b611cc185611c5b565b60005b83811015611ce357815481890152600182019150602081019050611cc4565b808801955050505b50505092915050565b60006020820190508181036000830152611d0e8184611c70565b905092915050565b7f4950465320686173682063616e6e6f7420626520656d70747900000000000000600082015250565b6000611d4c6019836113de565b9150611d5782611d16565b602082019050919050565b60006020820190508181036000830152611d7b81611d3f565b9050919050565b7f416c7265616479207375626d6974746564000000000000000000000000000000600082015250565b6000611db86011836113de565b9150611dc382611d82565b602082019050919050565b60006020820190508181036000830152611de781611dab565b9050919050565b60006020601f8301049050919050565b600082821b905092915050565b600060088302611e3b7fffffffffffffffffffffffffffffffffffffffffffffffffffffffffffffffff82611dfe565b611e458683611dfe565b95508019841693508086168417925050509392505050565b6000819050919050565b6000611e82611e7d611e7884611b0b565b611e5d565b611b0b565b9050919050565b6000819050919050565b611e9c83611e67565b611eb0611ea882611e89565b848454611e0b565b825550505050565b600090565b611ec5611eb8565b611ed0818484611e93565b505050565b5b81811015611ef457611ee9600082611ebd565b600181019050611ed6565b5050565b601f821115611f3957611f0a81611c5b565b611f1384611dee565b81016020851015611f22578190505b611f36611f2e85611dee565b830182611ed5565b50505b505050565b600082821c905092915050565b6000611f5c60001984600802611f3e565b1980831691505092915050565b6000611f758383611f4b565b9150826002028217905092915050565b611f8e826113d3565b67ffffffffffffffff811115611fa757611fa6611642565b5b611fb182546119ea565b611fbc828285611ef8565b600060209050601f831160018114611fef5760008415611fdd578287015190505b611fe78582611f69565b86555061204f565b601f198416611ffd86611c5b565b60005b8281101561202557848901518255600182019150602085019450602081019050612000565b86831015612042578489015161203e601f891682611f4b565b8355505b6001600288020188555050505b505050505050565b60006020820190508181036000830152612071818461142a565b905092915050565b7f4e6f2049504653206861736820666f756e6420666f7220746869732075736572600082015250565b60006120af6020836113de565b91506120ba82612079565b602082019050919050565b600060208201905081810360008301526120de816120a2565b905091905056fea26469706673582212209db31c11f34f8ae9ca36086a09e4b91be2ee84e5a2dde6e05efc85b98335c56a64736f6c63430008120033",
  "linkReferences": {},
  "deployedLinkReferences": {}
}