{
  "_format": "hh-sol-artifact-1",
  "contractName": "ManufacturerRegistry",
  "sourceName": "blockchain/contracts/manufacturerregistration.sol",
  "abi": [
    {
      "inputs": [
        {
          "internalType": "address",
          "name": "_manufacturer",
          "type": "address"
        }
      ],
      "name": "approveManufacturer",
      "outputs": [],
      "stateMutability": "nonpayable",
      "type": "function"
    },
    {
      "inputs": [
        {
          "internalType": "address",
          "name": "_manufacturer",
          "type": "address"
        }
      ],
      "name": "isManufacturerApproved",
      "outputs": [
        {
          "internalType": "bool",
          "name": "",
          "type": "bool"
        }
      ],
      "stateMutability": "view",
      "type": "function"
    },
    {
      "inputs": [
        {
          "internalType": "address",
          "name": "",
          "type": "address"
        }
      ],
      "name": "manufacturers",
      "outputs": [
        {
          "internalType": "string",
          "name": "name",
          "type": "string"
        },
        {
          "internalType": "string",
          "name": "licenseNumber",
          "type": "string"
        },
        {
          "internalType": "string",
          "name": "physicalAddress",
          "type": "string"
        },
        {
          "internalType": "bool",
          "name": "isApproved",
          "type": "bool"
        }
      ],
      "stateMutability": "view",
      "type": "function"
    },
    {
      "inputs": [
        {
          "internalType": "string",
          "name": "_name",
          "type": "string"
        },
        {
          "internalType": "string",
          "name": "_licenseNumber",
          "type": "string"
        },
        {
          "internalType": "string",
          "name": "_physicalAddress",
          "type": "string"
        }
      ],
      "name": "registerManufacturer",
      "outputs": [],
      "stateMutability": "nonpayable",
      "type": "function"
    }
  ],
  "bytecode": "0x608060405234801561001057600080fd5b50610afb806100206000396000f3fe608060405234801561001057600080fd5b506004361061004c5760003560e01c80631d0fc9db1461005157806343f34b271461006d5780635809b83b146100895780636b5eb09c146100b9575b600080fd5b61006b6004803603810190610066919061059c565b6100ec565b005b610087600480360381019061008291906106a1565b6101b8565b005b6100a3600480360381019061009e91906106a1565b610215565b6040516100b091906106e9565b60405180910390f35b6100d360048036038101906100ce91906106a1565b61026d565b6040516100e39493929190610783565b60405180910390f35b6040518060800160405280848152602001838152602001828152602001600015158152506000803373ffffffffffffffffffffffffffffffffffffffff1673ffffffffffffffffffffffffffffffffffffffff168152602001908152602001600020600082015181600001908161016391906109f3565b50602082015181600101908161017991906109f3565b50604082015181600201908161018f91906109f3565b5060608201518160030160006101000a81548160ff021916908315150217905550905050505050565b60016000808373ffffffffffffffffffffffffffffffffffffffff1673ffffffffffffffffffffffffffffffffffffffff16815260200190815260200160002060030160006101000a81548160ff02191690831515021790555050565b60008060008373ffffffffffffffffffffffffffffffffffffffff1673ffffffffffffffffffffffffffffffffffffffff16815260200190815260200160002060030160009054906101000a900460ff169050919050565b60006020528060005260406000206000915090508060000180546102909061080c565b80601f01602080910402602001604051908101604052809291908181526020018280546102bc9061080c565b80156103095780601f106102de57610100808354040283529160200191610309565b820191906000526020600020905b8154815290600101906020018083116102ec57829003601f168201915b50505050509080600101805461031e9061080c565b80601f016020809104026020016040519081016040528092919081815260200182805461034a9061080c565b80156103975780601f1061036c57610100808354040283529160200191610397565b820191906000526020600020905b81548152906001019060200180831161037a57829003601f168201915b5050505050908060020180546103ac9061080c565b80601f01602080910402602001604051908101604052809291908181526020018280546103d89061080c565b80156104255780601f106103fa57610100808354040283529160200191610425565b820191906000526020600020905b81548152906001019060200180831161040857829003601f168201915b5050505050908060030160009054906101000a900460ff16905084565b6000604051905090565b600080fd5b600080fd5b600080fd5b600080fd5b6000601f19601f8301169050919050565b7f4e487b7100000000000000000000000000000000000000000000000000000000600052604160045260246000fd5b6104a982610460565b810181811067ffffffffffffffff821117156104c8576104c7610471565b5b80604052505050565b60006104db610442565b90506104e782826104a0565b919050565b600067ffffffffffffffff82111561050757610506610471565b5b61051082610460565b9050602081019050919050565b82818337600083830152505050565b600061053f61053a846104ec565b6104d1565b90508281526020810184848401111561055b5761055a61045b565b5b61056684828561051d565b509392505050565b600082601f83011261058357610582610456565b5b813561059384826020860161052c565b91505092915050565b6000806000606084860312156105b5576105b461044c565b5b600084013567ffffffffffffffff8111156105d3576105d2610451565b5b6105df8682870161056e565b935050602084013567ffffffffffffffff811115610600576105ff610451565b5b61060c8682870161056e565b925050604084013567ffffffffffffffff81111561062d5761062c610451565b5b6106398682870161056e565b9150509250925092565b600073ffffffffffffffffffffffffffffffffffffffff82169050919050565b600061066e82610643565b9050919050565b61067e81610663565b811461068957600080fd5b50565b60008135905061069b81610675565b92915050565b6000602082840312156106b7576106b661044c565b5b60006106c58482850161068c565b91505092915050565b60008115159050919050565b6106e3816106ce565b82525050565b60006020820190506106fe60008301846106da565b92915050565b600081519050919050565b600082825260208201905092915050565b60005b8381101561073e578082015181840152602081019050610723565b60008484015250505050565b600061075582610704565b61075f818561070f565b935061076f818560208601610720565b61077881610460565b840191505092915050565b6000608082019050818103600083015261079d818761074a565b905081810360208301526107b1818661074a565b905081810360408301526107c5818561074a565b90506107d460608301846106da565b95945050505050565b7f4e487b7100000000000000000000000000000000000000000000000000000000600052602260045260246000fd5b6000600282049050600182168061082457607f821691505b602082108103610837576108366107dd565b5b50919050565b60008190508160005260206000209050919050565b60006020601f8301049050919050565b600082821b905092915050565b60006008830261089f7fffffffffffffffffffffffffffffffffffffffffffffffffffffffffffffffff82610862565b6108a98683610862565b95508019841693508086168417925050509392505050565b6000819050919050565b6000819050919050565b60006108f06108eb6108e6846108c1565b6108cb565b6108c1565b9050919050565b6000819050919050565b61090a836108d5565b61091e610916826108f7565b84845461086f565b825550505050565b600090565b610933610926565b61093e818484610901565b505050565b5b818110156109625761095760008261092b565b600181019050610944565b5050565b601f8211156109a7576109788161083d565b61098184610852565b81016020851015610990578190505b6109a461099c85610852565b830182610943565b50505b505050565b600082821c905092915050565b60006109ca600019846008026109ac565b1980831691505092915050565b60006109e383836109b9565b9150826002028217905092915050565b6109fc82610704565b67ffffffffffffffff811115610a1557610a14610471565b5b610a1f825461080c565b610a2a828285610966565b600060209050601f831160018114610a5d5760008415610a4b578287015190505b610a5585826109d7565b865550610abd565b601f198416610a6b8661083d565b60005b82811015610a9357848901518255600182019150602085019450602081019050610a6e565b86831015610ab05784890151610aac601f8916826109b9565b8355505b6001600288020188555050505b50505050505056fea2646970667358221220e014c41b2e3bcf2f72cb8216f9d151a6c98d9ca7027ea4e844b397ef5865c37864736f6c63430008120033",
  "linkReferences": {},
  "deployedLinkReferences": {}
}