{
  "_format": "hh-sol-artifact-1",
  "contractName": "ManufacturerNFTStorage",
  "sourceName": "contracts/manufacturerregistration.sol",
  "abi": [
    {
      "inputs": [],
      "stateMutability": "nonpayable",
      "type": "constructor"
    },
    {
      "inputs": [
        {
          "internalType": "address",
          "name": "sender",
          "type": "address"
        },
        {
          "internalType": "uint256",
          "name": "tokenId",
          "type": "uint256"
        },
        {
          "internalType": "address",
          "name": "owner",
          "type": "address"
        }
      ],
      "name": "ERC721IncorrectOwner",
      "type": "error"
    },
    {
      "inputs": [
        {
          "internalType": "address",
          "name": "operator",
          "type": "address"
        },
        {
          "internalType": "uint256",
          "name": "tokenId",
          "type": "uint256"
        }
      ],
      "name": "ERC721InsufficientApproval",
      "type": "error"
    },
    {
      "inputs": [
        {
          "internalType": "address",
          "name": "approver",
          "type": "address"
        }
      ],
      "name": "ERC721InvalidApprover",
      "type": "error"
    },
    {
      "inputs": [
        {
          "internalType": "address",
          "name": "operator",
          "type": "address"
        }
      ],
      "name": "ERC721InvalidOperator",
      "type": "error"
    },
    {
      "inputs": [
        {
          "internalType": "address",
          "name": "owner",
          "type": "address"
        }
      ],
      "name": "ERC721InvalidOwner",
      "type": "error"
    },
    {
      "inputs": [
        {
          "internalType": "address",
          "name": "receiver",
          "type": "address"
        }
      ],
      "name": "ERC721InvalidReceiver",
      "type": "error"
    },
    {
      "inputs": [
        {
          "internalType": "address",
          "name": "sender",
          "type": "address"
        }
      ],
      "name": "ERC721InvalidSender",
      "type": "error"
    },
    {
      "inputs": [
        {
          "internalType": "uint256",
          "name": "tokenId",
          "type": "uint256"
        }
      ],
      "name": "ERC721NonexistentToken",
      "type": "error"
    },
    {
      "anonymous": false,
      "inputs": [
        {
          "indexed": true,
          "internalType": "address",
          "name": "owner",
          "type": "address"
        },
        {
          "indexed": true,
          "internalType": "address",
          "name": "approved",
          "type": "address"
        },
        {
          "indexed": true,
          "internalType": "uint256",
          "name": "tokenId",
          "type": "uint256"
        }
      ],
      "name": "Approval",
      "type": "event"
    },
    {
      "anonymous": false,
      "inputs": [
        {
          "indexed": true,
          "internalType": "address",
          "name": "owner",
          "type": "address"
        },
        {
          "indexed": true,
          "internalType": "address",
          "name": "operator",
          "type": "address"
        },
        {
          "indexed": false,
          "internalType": "bool",
          "name": "approved",
          "type": "bool"
        }
      ],
      "name": "ApprovalForAll",
      "type": "event"
    },
    {
      "anonymous": false,
      "inputs": [
        {
          "indexed": false,
          "internalType": "uint256",
          "name": "_fromTokenId",
          "type": "uint256"
        },
        {
          "indexed": false,
          "internalType": "uint256",
          "name": "_toTokenId",
          "type": "uint256"
        }
      ],
      "name": "BatchMetadataUpdate",
      "type": "event"
    },
    {
      "anonymous": false,
      "inputs": [
        {
          "indexed": true,
          "internalType": "uint256",
          "name": "tokenId",
          "type": "uint256"
        },
        {
          "indexed": false,
          "internalType": "enum ManufacturerNFTStorage.Status",
          "name": "newStatus",
          "type": "uint8"
        }
      ],
      "name": "ManufacturerStatusUpdated",
      "type": "event"
    },
    {
      "anonymous": false,
      "inputs": [
        {
          "indexed": true,
          "internalType": "uint256",
          "name": "tokenId",
          "type": "uint256"
        },
        {
          "indexed": true,
          "internalType": "address",
          "name": "wallet",
          "type": "address"
        },
        {
          "indexed": false,
          "internalType": "string",
          "name": "jsonCID",
          "type": "string"
        },
        {
          "indexed": false,
          "internalType": "string",
          "name": "pdfCID",
          "type": "string"
        },
        {
          "indexed": false,
          "internalType": "enum ManufacturerNFTStorage.Status",
          "name": "status",
          "type": "uint8"
        }
      ],
      "name": "ManufacturerStored",
      "type": "event"
    },
    {
      "anonymous": false,
      "inputs": [
        {
          "indexed": false,
          "internalType": "uint256",
          "name": "_tokenId",
          "type": "uint256"
        }
      ],
      "name": "MetadataUpdate",
      "type": "event"
    },
    {
      "anonymous": false,
      "inputs": [
        {
          "indexed": true,
          "internalType": "address",
          "name": "from",
          "type": "address"
        },
        {
          "indexed": true,
          "internalType": "address",
          "name": "to",
          "type": "address"
        },
        {
          "indexed": true,
          "internalType": "uint256",
          "name": "tokenId",
          "type": "uint256"
        }
      ],
      "name": "Transfer",
      "type": "event"
    },
    {
      "inputs": [
        {
          "internalType": "address",
          "name": "to",
          "type": "address"
        },
        {
          "internalType": "uint256",
          "name": "tokenId",
          "type": "uint256"
        }
      ],
      "name": "approve",
      "outputs": [],
      "stateMutability": "nonpayable",
      "type": "function"
    },
    {
      "inputs": [
        {
          "internalType": "address",
          "name": "owner",
          "type": "address"
        }
      ],
      "name": "balanceOf",
      "outputs": [
        {
          "internalType": "uint256",
          "name": "",
          "type": "uint256"
        }
      ],
      "stateMutability": "view",
      "type": "function"
    },
    {
      "inputs": [
        {
          "internalType": "uint256",
          "name": "tokenId",
          "type": "uint256"
        }
      ],
      "name": "getApproved",
      "outputs": [
        {
          "internalType": "address",
          "name": "",
          "type": "address"
        }
      ],
      "stateMutability": "view",
      "type": "function"
    },
    {
      "inputs": [],
      "name": "getApprovedManufacturers",
      "outputs": [
        {
          "internalType": "uint256[]",
          "name": "",
          "type": "uint256[]"
        },
        {
          "internalType": "string[]",
          "name": "",
          "type": "string[]"
        },
        {
          "internalType": "string[]",
          "name": "",
          "type": "string[]"
        }
      ],
      "stateMutability": "view",
      "type": "function"
    },
    {
      "inputs": [
        {
          "internalType": "address",
          "name": "_manufacturer",
          "type": "address"
        }
      ],
      "name": "getIndividualManufacturer",
      "outputs": [
        {
          "internalType": "string",
          "name": "jsonCID",
          "type": "string"
        },
        {
          "internalType": "string",
          "name": "pdfCID",
          "type": "string"
        },
        {
          "internalType": "enum ManufacturerNFTStorage.Status",
          "name": "status",
          "type": "uint8"
        }
      ],
      "stateMutability": "view",
      "type": "function"
    },
    {
      "inputs": [
        {
          "internalType": "address",
          "name": "_manufacturer",
          "type": "address"
        }
      ],
      "name": "getManufacturerDetails",
      "outputs": [
        {
          "internalType": "uint256",
          "name": "tokenId",
          "type": "uint256"
        },
        {
          "internalType": "string",
          "name": "jsonCID",
          "type": "string"
        },
        {
          "internalType": "string",
          "name": "pdfCID",
          "type": "string"
        },
        {
          "internalType": "enum ManufacturerNFTStorage.Status",
          "name": "status",
          "type": "uint8"
        }
      ],
      "stateMutability": "view",
      "type": "function"
    },
    {
      "inputs": [
        {
          "internalType": "address",
          "name": "_manufacturer",
          "type": "address"
        }
      ],
      "name": "getManufacturerStatus",
      "outputs": [
        {
          "internalType": "enum ManufacturerNFTStorage.Status",
          "name": "",
          "type": "uint8"
        }
      ],
      "stateMutability": "view",
      "type": "function"
    },
    {
      "inputs": [],
      "name": "getPendingManufacturers",
      "outputs": [
        {
          "internalType": "uint256[]",
          "name": "",
          "type": "uint256[]"
        },
        {
          "internalType": "string[]",
          "name": "",
          "type": "string[]"
        },
        {
          "internalType": "string[]",
          "name": "",
          "type": "string[]"
        }
      ],
      "stateMutability": "view",
      "type": "function"
    },
    {
      "inputs": [],
      "name": "getRejectedManufacturers",
      "outputs": [
        {
          "internalType": "uint256[]",
          "name": "",
          "type": "uint256[]"
        },
        {
          "internalType": "string[]",
          "name": "",
          "type": "string[]"
        },
        {
          "internalType": "string[]",
          "name": "",
          "type": "string[]"
        }
      ],
      "stateMutability": "view",
      "type": "function"
    },
    {
      "inputs": [
        {
          "internalType": "address",
          "name": "owner",
          "type": "address"
        },
        {
          "internalType": "address",
          "name": "operator",
          "type": "address"
        }
      ],
      "name": "isApprovedForAll",
      "outputs": [
        {
          "internalType": "bool",
          "name": "",
          "type": "bool"
        }
      ],
      "stateMutability": "view",
      "type": "function"
    },
    {
      "inputs": [
        {
          "internalType": "address",
          "name": "_manufacturer",
          "type": "address"
        }
      ],
      "name": "login",
      "outputs": [
        {
          "internalType": "bool",
          "name": "",
          "type": "bool"
        }
      ],
      "stateMutability": "view",
      "type": "function"
    },
    {
      "inputs": [
        {
          "internalType": "uint256",
          "name": "",
          "type": "uint256"
        }
      ],
      "name": "manufacturerData",
      "outputs": [
        {
          "internalType": "address",
          "name": "wallet",
          "type": "address"
        },
        {
          "internalType": "string",
          "name": "jsonCID",
          "type": "string"
        },
        {
          "internalType": "string",
          "name": "pdfCID",
          "type": "string"
        },
        {
          "internalType": "enum ManufacturerNFTStorage.Status",
          "name": "status",
          "type": "uint8"
        }
      ],
      "stateMutability": "view",
      "type": "function"
    },
    {
      "inputs": [],
      "name": "name",
      "outputs": [
        {
          "internalType": "string",
          "name": "",
          "type": "string"
        }
      ],
      "stateMutability": "view",
      "type": "function"
    },
    {
      "inputs": [
        {
          "internalType": "uint256",
          "name": "tokenId",
          "type": "uint256"
        }
      ],
      "name": "ownerOf",
      "outputs": [
        {
          "internalType": "address",
          "name": "",
          "type": "address"
        }
      ],
      "stateMutability": "view",
      "type": "function"
    },
    {
      "inputs": [
        {
          "internalType": "address",
          "name": "from",
          "type": "address"
        },
        {
          "internalType": "address",
          "name": "to",
          "type": "address"
        },
        {
          "internalType": "uint256",
          "name": "tokenId",
          "type": "uint256"
        }
      ],
      "name": "safeTransferFrom",
      "outputs": [],
      "stateMutability": "nonpayable",
      "type": "function"
    },
    {
      "inputs": [
        {
          "internalType": "address",
          "name": "from",
          "type": "address"
        },
        {
          "internalType": "address",
          "name": "to",
          "type": "address"
        },
        {
          "internalType": "uint256",
          "name": "tokenId",
          "type": "uint256"
        },
        {
          "internalType": "bytes",
          "name": "data",
          "type": "bytes"
        }
      ],
      "name": "safeTransferFrom",
      "outputs": [],
      "stateMutability": "nonpayable",
      "type": "function"
    },
    {
      "inputs": [
        {
          "internalType": "address",
          "name": "operator",
          "type": "address"
        },
        {
          "internalType": "bool",
          "name": "approved",
          "type": "bool"
        }
      ],
      "name": "setApprovalForAll",
      "outputs": [],
      "stateMutability": "nonpayable",
      "type": "function"
    },
    {
      "inputs": [
        {
          "internalType": "address",
          "name": "_manufacturer",
          "type": "address"
        },
        {
          "internalType": "string",
          "name": "_jsonCID",
          "type": "string"
        },
        {
          "internalType": "string",
          "name": "_pdfCID",
          "type": "string"
        }
      ],
      "name": "storeManufacturer",
      "outputs": [],
      "stateMutability": "nonpayable",
      "type": "function"
    },
    {
      "inputs": [
        {
          "internalType": "bytes4",
          "name": "interfaceId",
          "type": "bytes4"
        }
      ],
      "name": "supportsInterface",
      "outputs": [
        {
          "internalType": "bool",
          "name": "",
          "type": "bool"
        }
      ],
      "stateMutability": "view",
      "type": "function"
    },
    {
      "inputs": [],
      "name": "symbol",
      "outputs": [
        {
          "internalType": "string",
          "name": "",
          "type": "string"
        }
      ],
      "stateMutability": "view",
      "type": "function"
    },
    {
      "inputs": [
        {
          "internalType": "uint256",
          "name": "tokenId",
          "type": "uint256"
        }
      ],
      "name": "tokenURI",
      "outputs": [
        {
          "internalType": "string",
          "name": "",
          "type": "string"
        }
      ],
      "stateMutability": "view",
      "type": "function"
    },
    {
      "inputs": [
        {
          "internalType": "address",
          "name": "from",
          "type": "address"
        },
        {
          "internalType": "address",
          "name": "to",
          "type": "address"
        },
        {
          "internalType": "uint256",
          "name": "tokenId",
          "type": "uint256"
        }
      ],
      "name": "transferFrom",
      "outputs": [],
      "stateMutability": "nonpayable",
      "type": "function"
    },
    {
      "inputs": [
        {
          "internalType": "uint256",
          "name": "_tokenId",
          "type": "uint256"
        },
        {
          "internalType": "enum ManufacturerNFTStorage.Status",
          "name": "_newStatus",
          "type": "uint8"
        }
      ],
      "name": "updateManufacturerStatus",
      "outputs": [],
      "stateMutability": "nonpayable",
      "type": "function"
    },
    {
      "inputs": [
        {
          "internalType": "address",
          "name": "",
          "type": "address"
        }
      ],
      "name": "walletToTokenId",
      "outputs": [
        {
          "internalType": "uint256",
          "name": "",
          "type": "uint256"
        }
      ],
      "stateMutability": "view",
      "type": "function"
    }
  ],
  "bytecode": "0x60806040523480156200001157600080fd5b506040518060400160405280600f81526020017f4d616e7566616374757265724e465400000000000000000000000000000000008152506040518060400160405280600481526020017f4d4e46540000000000000000000000000000000000000000000000000000000081525081600090816200008f919062000324565b508060019081620000a1919062000324565b5050506200040b565b600081519050919050565b7f4e487b7100000000000000000000000000000000000000000000000000000000600052604160045260246000fd5b7f4e487b7100000000000000000000000000000000000000000000000000000000600052602260045260246000fd5b600060028204905060018216806200012c57607f821691505b602082108103620001425762000141620000e4565b5b50919050565b60008190508160005260206000209050919050565b60006020601f8301049050919050565b600082821b905092915050565b600060088302620001ac7fffffffffffffffffffffffffffffffffffffffffffffffffffffffffffffffff826200016d565b620001b886836200016d565b95508019841693508086168417925050509392505050565b6000819050919050565b6000819050919050565b600062000205620001ff620001f984620001d0565b620001da565b620001d0565b9050919050565b6000819050919050565b6200022183620001e4565b6200023962000230826200020c565b8484546200017a565b825550505050565b600090565b6200025062000241565b6200025d81848462000216565b505050565b5b8181101562000285576200027960008262000246565b60018101905062000263565b5050565b601f821115620002d4576200029e8162000148565b620002a9846200015d565b81016020851015620002b9578190505b620002d1620002c8856200015d565b83018262000262565b50505b505050565b600082821c905092915050565b6000620002f960001984600802620002d9565b1980831691505092915050565b6000620003148383620002e6565b9150826002028217905092915050565b6200032f82620000aa565b67ffffffffffffffff8111156200034b576200034a620000b5565b5b62000357825462000113565b6200036482828562000289565b600060209050601f8311600181146200039c576000841562000387578287015190505b62000393858262000306565b86555062000403565b601f198416620003ac8662000148565b60005b82811015620003d657848901518255600182019150602085019450602081019050620003af565b86831015620003f65784890151620003f2601f891682620002e6565b8355505b6001600288020188555050505b505050505050565b6145a4806200041b6000396000f3fe608060405234801561001057600080fd5b50600436106101585760003560e01c806395d89b41116100c3578063b88d4fde1161007c578063b88d4fde14610419578063c720169214610435578063c87b56dd14610455578063ced7b07b14610485578063e985e9c5146104b5578063ea09198f146104e557610158565b806395d89b411461032a5780639827b4c1146103485780639c2806c71461037a578063a22cb465146103aa578063a88a2dfa146103c6578063a9f0a71d146103f957610158565b806335a6861a1161011557806335a6861a1461024657806342842e0e146102765780634767e5c1146102925780636352211e146102ae57806370a08231146102de5780637f35a41f1461030e57610158565b806301ffc9a71461015d57806306fdde031461018d578063081812fc146101ab578063095ea7b3146101db57806322713cc7146101f757806323b872dd1461022a575b600080fd5b610177600480360381019061017291906132b2565b610505565b60405161018491906132fa565b60405180910390f35b610195610566565b6040516101a291906133a5565b60405180910390f35b6101c560048036038101906101c091906133fd565b6105f8565b6040516101d2919061346b565b60405180910390f35b6101f560048036038101906101f091906134b2565b610614565b005b610211600480360381019061020c91906134f2565b61062a565b60405161022194939291906135a5565b60405180910390f35b610244600480360381019061023f91906135f8565b6108eb565b005b610260600480360381019061025b91906134f2565b6109ed565b60405161026d91906132fa565b60405180910390f35b610290600480360381019061028b91906135f8565b610b07565b005b6102ac60048036038101906102a79190613670565b610b27565b005b6102c860048036038101906102c391906133fd565b610cad565b6040516102d5919061346b565b60405180910390f35b6102f860048036038101906102f391906134f2565b610cbf565b60405161030591906136b0565b60405180910390f35b61032860048036038101906103239190613800565b610d79565b005b6103326110c0565b60405161033f91906133a5565b60405180910390f35b610362600480360381019061035d91906134f2565b611152565b6040516103719392919061388b565b60405180910390f35b610394600480360381019061038f91906134f2565b611411565b6040516103a191906136b0565b60405180910390f35b6103c460048036038101906103bf91906138fc565b611429565b005b6103e060048036038101906103db91906133fd565b61143f565b6040516103f0949392919061393c565b60405180910390f35b6104016115ac565b60405161041093929190613b59565b60405180910390f35b610433600480360381019061042e9190613c46565b611955565b005b61043d61197a565b60405161044c93929190613b59565b60405180910390f35b61046f600480360381019061046a91906133fd565b611d23565b60405161047c91906133a5565b60405180910390f35b61049f600480360381019061049a91906134f2565b611e36565b6040516104ac9190613cc9565b60405180910390f35b6104cf60048036038101906104ca9190613ce4565b611f29565b6040516104dc91906132fa565b60405180910390f35b6104ed611fbd565b6040516104fc93929190613b59565b60405180910390f35b6000634906490660e01b7bffffffffffffffffffffffffffffffffffffffffffffffffffffffff1916827bffffffffffffffffffffffffffffffffffffffffffffffffffffffff1916148061055f575061055e82612364565b5b9050919050565b60606000805461057590613d53565b80601f01602080910402602001604051908101604052809291908181526020018280546105a190613d53565b80156105ee5780601f106105c3576101008083540402835291602001916105ee565b820191906000526020600020905b8154815290600101906020018083116105d157829003601f168201915b5050505050905090565b600061060382612446565b5061060d826124ce565b9050919050565b610626828261062161250b565b612513565b5050565b6000606080600080600860008773ffffffffffffffffffffffffffffffffffffffff1673ffffffffffffffffffffffffffffffffffffffff16815260200190815260200160002054036106b2576040517f08c379a00000000000000000000000000000000000000000000000000000000081526004016106a990613dd0565b60405180910390fd5b600860008673ffffffffffffffffffffffffffffffffffffffff1673ffffffffffffffffffffffffffffffffffffffff1681526020019081526020016000205493506000600760008681526020019081526020016000206040518060800160405290816000820160009054906101000a900473ffffffffffffffffffffffffffffffffffffffff1673ffffffffffffffffffffffffffffffffffffffff1673ffffffffffffffffffffffffffffffffffffffff16815260200160018201805461077a90613d53565b80601f01602080910402602001604051908101604052809291908181526020018280546107a690613d53565b80156107f35780601f106107c8576101008083540402835291602001916107f3565b820191906000526020600020905b8154815290600101906020018083116107d657829003601f168201915b5050505050815260200160028201805461080c90613d53565b80601f016020809104026020016040519081016040528092919081815260200182805461083890613d53565b80156108855780601f1061085a57610100808354040283529160200191610885565b820191906000526020600020905b81548152906001019060200180831161086857829003601f168201915b505050505081526020016003820160009054906101000a900460ff1660028111156108b3576108b261352e565b5b60028111156108c5576108c461352e565b5b815250509050848160200151826040015183606001519450945094509450509193509193565b600073ffffffffffffffffffffffffffffffffffffffff168273ffffffffffffffffffffffffffffffffffffffff160361095d5760006040517f64a0ae92000000000000000000000000000000000000000000000000000000008152600401610954919061346b565b60405180910390fd5b6000610971838361096c61250b565b612525565b90508373ffffffffffffffffffffffffffffffffffffffff168173ffffffffffffffffffffffffffffffffffffffff16146109e7578382826040517f64283d7b0000000000000000000000000000000000000000000000000000000081526004016109de93929190613df0565b60405180910390fd5b50505050565b600080600860008473ffffffffffffffffffffffffffffffffffffffff1673ffffffffffffffffffffffffffffffffffffffff1681526020019081526020016000205403610a70576040517f08c379a0000000000000000000000000000000000000000000000000000000008152600401610a6790613dd0565b60405180910390fd5b6000600860008473ffffffffffffffffffffffffffffffffffffffff1673ffffffffffffffffffffffffffffffffffffffff16815260200190815260200160002054905060016002811115610ac857610ac761352e565b5b6007600083815260200190815260200160002060030160009054906101000a900460ff166002811115610afe57610afd61352e565b5b14915050919050565b610b2283838360405180602001604052806000815250611955565b505050565b600073ffffffffffffffffffffffffffffffffffffffff16610b4883610cad565b73ffffffffffffffffffffffffffffffffffffffff1603610b9e576040517f08c379a0000000000000000000000000000000000000000000000000000000008152600401610b9590613e73565b60405180910390fd5b60016002811115610bb257610bb161352e565b5b816002811115610bc557610bc461352e565b5b1480610bf45750600280811115610bdf57610bde61352e565b5b816002811115610bf257610bf161352e565b5b145b610c33576040517f08c379a0000000000000000000000000000000000000000000000000000000008152600401610c2a90613edf565b60405180910390fd5b806007600084815260200190815260200160002060030160006101000a81548160ff02191690836002811115610c6c57610c6b61352e565b5b0217905550817fa86f01eb0bd1f4336cd5cb1c32d89f5128e21d6e243cb3e1ae3e2fcd2d64e6b182604051610ca19190613cc9565b60405180910390a25050565b6000610cb882612446565b9050919050565b60008073ffffffffffffffffffffffffffffffffffffffff168273ffffffffffffffffffffffffffffffffffffffff1603610d325760006040517f89c62b64000000000000000000000000000000000000000000000000000000008152600401610d29919061346b565b60405180910390fd5b600360008373ffffffffffffffffffffffffffffffffffffffff1673ffffffffffffffffffffffffffffffffffffffff168152602001908152602001600020549050919050565b600073ffffffffffffffffffffffffffffffffffffffff168373ffffffffffffffffffffffffffffffffffffffff1603610de8576040517f08c379a0000000000000000000000000000000000000000000000000000000008152600401610ddf90613f4b565b60405180910390fd5b6000825111610e2c576040517f08c379a0000000000000000000000000000000000000000000000000000000008152600401610e2390613fb7565b60405180910390fd5b6000815111610e70576040517f08c379a0000000000000000000000000000000000000000000000000000000008152600401610e6790614023565b60405180910390fd5b6000600860008573ffffffffffffffffffffffffffffffffffffffff1673ffffffffffffffffffffffffffffffffffffffff1681526020019081526020016000205414610ef2576040517f08c379a0000000000000000000000000000000000000000000000000000000008152600401610ee99061408f565b60405180910390fd5b6000600960008154610f03906140de565b9190508190559050610f15848261273f565b610f1f8184612838565b60405180608001604052808573ffffffffffffffffffffffffffffffffffffffff16815260200184815260200183815260200160006002811115610f6657610f6561352e565b5b8152506007600083815260200190815260200160002060008201518160000160006101000a81548173ffffffffffffffffffffffffffffffffffffffff021916908373ffffffffffffffffffffffffffffffffffffffff1602179055506020820151816001019081610fd891906142d2565b506040820151816002019081610fee91906142d2565b5060608201518160030160006101000a81548160ff0219169083600281111561101a5761101961352e565b5b021790555090505080600860008673ffffffffffffffffffffffffffffffffffffffff1673ffffffffffffffffffffffffffffffffffffffff168152602001908152602001600020819055508373ffffffffffffffffffffffffffffffffffffffff16817f0972f0acd4e9379b0cbfee1eb3c8865943ddd945da0dce361ca6f097d66a73d2858560006040516110b29392919061388b565b60405180910390a350505050565b6060600180546110cf90613d53565b80601f01602080910402602001604051908101604052809291908181526020018280546110fb90613d53565b80156111485780601f1061111d57610100808354040283529160200191611148565b820191906000526020600020905b81548152906001019060200180831161112b57829003601f168201915b5050505050905090565b606080600080600860008673ffffffffffffffffffffffffffffffffffffffff1673ffffffffffffffffffffffffffffffffffffffff16815260200190815260200160002054036111d8576040517f08c379a00000000000000000000000000000000000000000000000000000000081526004016111cf90613dd0565b60405180910390fd5b6000600860008673ffffffffffffffffffffffffffffffffffffffff1673ffffffffffffffffffffffffffffffffffffffff1681526020019081526020016000205490506000600760008381526020019081526020016000206040518060800160405290816000820160009054906101000a900473ffffffffffffffffffffffffffffffffffffffff1673ffffffffffffffffffffffffffffffffffffffff1673ffffffffffffffffffffffffffffffffffffffff1681526020016001820180546112a290613d53565b80601f01602080910402602001604051908101604052809291908181526020018280546112ce90613d53565b801561131b5780601f106112f05761010080835404028352916020019161131b565b820191906000526020600020905b8154815290600101906020018083116112fe57829003601f168201915b5050505050815260200160028201805461133490613d53565b80601f016020809104026020016040519081016040528092919081815260200182805461136090613d53565b80156113ad5780601f10611382576101008083540402835291602001916113ad565b820191906000526020600020905b81548152906001019060200180831161139057829003601f168201915b505050505081526020016003820160009054906101000a900460ff1660028111156113db576113da61352e565b5b60028111156113ed576113ec61352e565b5b81525050905080602001518160400151826060015194509450945050509193909250565b60086020528060005260406000206000915090505481565b61143b61143461250b565b8383612894565b5050565b60076020528060005260406000206000915090508060000160009054906101000a900473ffffffffffffffffffffffffffffffffffffffff169080600101805461148890613d53565b80601f01602080910402602001604051908101604052809291908181526020018280546114b490613d53565b80156115015780601f106114d657610100808354040283529160200191611501565b820191906000526020600020905b8154815290600101906020018083116114e457829003601f168201915b50505050509080600201805461151690613d53565b80601f016020809104026020016040519081016040528092919081815260200182805461154290613d53565b801561158f5780601f106115645761010080835404028352916020019161158f565b820191906000526020600020905b81548152906001019060200180831161157257829003601f168201915b5050505050908060030160009054906101000a900460ff16905084565b6060806060600080600190505b600954811161163357600060028111156115d6576115d561352e565b5b6007600083815260200190815260200160002060030160009054906101000a900460ff16600281111561160c5761160b61352e565b5b0361162057818061161c906140de565b9250505b808061162b906140de565b9150506115b9565b5060008167ffffffffffffffff8111156116505761164f6136d5565b5b60405190808252806020026020018201604052801561167e5781602001602082028036833780820191505090505b50905060008267ffffffffffffffff81111561169d5761169c6136d5565b5b6040519080825280602002602001820160405280156116d057816020015b60608152602001906001900390816116bb5790505b50905060008367ffffffffffffffff8111156116ef576116ee6136d5565b5b60405190808252806020026020018201604052801561172257816020015b606081526020019060019003908161170d5790505b509050600080600190505b6009548111611941576000600281111561174a5761174961352e565b5b6007600083815260200190815260200160002060030160009054906101000a900460ff1660028111156117805761177f61352e565b5b0361192e5780858381518110611799576117986143a4565b5b6020026020010181815250506007600082815260200190815260200160002060010180546117c690613d53565b80601f01602080910402602001604051908101604052809291908181526020018280546117f290613d53565b801561183f5780601f106118145761010080835404028352916020019161183f565b820191906000526020600020905b81548152906001019060200180831161182257829003601f168201915b5050505050848381518110611857576118566143a4565b5b602002602001018190525060076000828152602001908152602001600020600201805461188390613d53565b80601f01602080910402602001604051908101604052809291908181526020018280546118af90613d53565b80156118fc5780601f106118d1576101008083540402835291602001916118fc565b820191906000526020600020905b8154815290600101906020018083116118df57829003601f168201915b5050505050838381518110611914576119136143a4565b5b6020026020010181905250818061192a906140de565b9250505b8080611939906140de565b91505061172d565b508383839750975097505050505050909192565b6119608484846108eb565b61197461196b61250b565b85858585612a03565b50505050565b6060806060600080600190505b6009548111611a0157600160028111156119a4576119a361352e565b5b6007600083815260200190815260200160002060030160009054906101000a900460ff1660028111156119da576119d961352e565b5b036119ee5781806119ea906140de565b9250505b80806119f9906140de565b915050611987565b5060008167ffffffffffffffff811115611a1e57611a1d6136d5565b5b604051908082528060200260200182016040528015611a4c5781602001602082028036833780820191505090505b50905060008267ffffffffffffffff811115611a6b57611a6a6136d5565b5b604051908082528060200260200182016040528015611a9e57816020015b6060815260200190600190039081611a895790505b50905060008367ffffffffffffffff811115611abd57611abc6136d5565b5b604051908082528060200260200182016040528015611af057816020015b6060815260200190600190039081611adb5790505b509050600080600190505b6009548111611d0f5760016002811115611b1857611b1761352e565b5b6007600083815260200190815260200160002060030160009054906101000a900460ff166002811115611b4e57611b4d61352e565b5b03611cfc5780858381518110611b6757611b666143a4565b5b602002602001018181525050600760008281526020019081526020016000206001018054611b9490613d53565b80601f0160208091040260200160405190810160405280929190818152602001828054611bc090613d53565b8015611c0d5780601f10611be257610100808354040283529160200191611c0d565b820191906000526020600020905b815481529060010190602001808311611bf057829003601f168201915b5050505050848381518110611c2557611c246143a4565b5b6020026020010181905250600760008281526020019081526020016000206002018054611c5190613d53565b80601f0160208091040260200160405190810160405280929190818152602001828054611c7d90613d53565b8015611cca5780601f10611c9f57610100808354040283529160200191611cca565b820191906000526020600020905b815481529060010190602001808311611cad57829003601f168201915b5050505050838381518110611ce257611ce16143a4565b5b60200260200101819052508180611cf8906140de565b9250505b8080611d07906140de565b915050611afb565b508383839750975097505050505050909192565b6060611d2e82612446565b506000600660008481526020019081526020016000208054611d4f90613d53565b80601f0160208091040260200160405190810160405280929190818152602001828054611d7b90613d53565b8015611dc85780601f10611d9d57610100808354040283529160200191611dc8565b820191906000526020600020905b815481529060010190602001808311611dab57829003601f168201915b505050505090506000611dd9612bb4565b90506000815103611dee578192505050611e31565b600082511115611e23578082604051602001611e0b92919061440f565b60405160208183030381529060405292505050611e31565b611e2c84612bcb565b925050505b919050565b600080600860008473ffffffffffffffffffffffffffffffffffffffff1673ffffffffffffffffffffffffffffffffffffffff1681526020019081526020016000205403611eb9576040517f08c379a0000000000000000000000000000000000000000000000000000000008152600401611eb090613dd0565b60405180910390fd5b6000600860008473ffffffffffffffffffffffffffffffffffffffff1673ffffffffffffffffffffffffffffffffffffffff1681526020019081526020016000205490506007600082815260200190815260200160002060030160009054906101000a900460ff16915050919050565b6000600560008473ffffffffffffffffffffffffffffffffffffffff1673ffffffffffffffffffffffffffffffffffffffff16815260200190815260200160002060008373ffffffffffffffffffffffffffffffffffffffff1673ffffffffffffffffffffffffffffffffffffffff16815260200190815260200160002060009054906101000a900460ff16905092915050565b6060806060600080600190505b600954811161204357600280811115611fe657611fe561352e565b5b6007600083815260200190815260200160002060030160009054906101000a900460ff16600281111561201c5761201b61352e565b5b0361203057818061202c906140de565b9250505b808061203b906140de565b915050611fca565b5060008167ffffffffffffffff8111156120605761205f6136d5565b5b60405190808252806020026020018201604052801561208e5781602001602082028036833780820191505090505b50905060008267ffffffffffffffff8111156120ad576120ac6136d5565b5b6040519080825280602002602001820160405280156120e057816020015b60608152602001906001900390816120cb5790505b50905060008367ffffffffffffffff8111156120ff576120fe6136d5565b5b60405190808252806020026020018201604052801561213257816020015b606081526020019060019003908161211d5790505b509050600080600190505b6009548111612350576002808111156121595761215861352e565b5b6007600083815260200190815260200160002060030160009054906101000a900460ff16600281111561218f5761218e61352e565b5b0361233d57808583815181106121a8576121a76143a4565b5b6020026020010181815250506007600082815260200190815260200160002060010180546121d590613d53565b80601f016020809104026020016040519081016040528092919081815260200182805461220190613d53565b801561224e5780601f106122235761010080835404028352916020019161224e565b820191906000526020600020905b81548152906001019060200180831161223157829003601f168201915b5050505050848381518110612266576122656143a4565b5b602002602001018190525060076000828152602001908152602001600020600201805461229290613d53565b80601f01602080910402602001604051908101604052809291908181526020018280546122be90613d53565b801561230b5780601f106122e05761010080835404028352916020019161230b565b820191906000526020600020905b8154815290600101906020018083116122ee57829003601f168201915b5050505050838381518110612323576123226143a4565b5b60200260200101819052508180612339906140de565b9250505b8080612348906140de565b91505061213d565b508383839750975097505050505050909192565b60007f80ac58cd000000000000000000000000000000000000000000000000000000007bffffffffffffffffffffffffffffffffffffffffffffffffffffffff1916827bffffffffffffffffffffffffffffffffffffffffffffffffffffffff1916148061242f57507f5b5e139f000000000000000000000000000000000000000000000000000000007bffffffffffffffffffffffffffffffffffffffffffffffffffffffff1916827bffffffffffffffffffffffffffffffffffffffffffffffffffffffff1916145b8061243f575061243e82612c34565b5b9050919050565b60008061245283612c9e565b9050600073ffffffffffffffffffffffffffffffffffffffff168173ffffffffffffffffffffffffffffffffffffffff16036124c557826040517f7e2732890000000000000000000000000000000000000000000000000000000081526004016124bc91906136b0565b60405180910390fd5b80915050919050565b60006004600083815260200190815260200160002060009054906101000a900473ffffffffffffffffffffffffffffffffffffffff169050919050565b600033905090565b6125208383836001612cdb565b505050565b60008061253184612c9e565b9050600073ffffffffffffffffffffffffffffffffffffffff168373ffffffffffffffffffffffffffffffffffffffff161461257357612572818486612ea0565b5b600073ffffffffffffffffffffffffffffffffffffffff168173ffffffffffffffffffffffffffffffffffffffff1614612604576125b5600085600080612cdb565b6001600360008373ffffffffffffffffffffffffffffffffffffffff1673ffffffffffffffffffffffffffffffffffffffff168152602001908152602001600020600082825403925050819055505b600073ffffffffffffffffffffffffffffffffffffffff168573ffffffffffffffffffffffffffffffffffffffff1614612687576001600360008773ffffffffffffffffffffffffffffffffffffffff1673ffffffffffffffffffffffffffffffffffffffff168152602001908152602001600020600082825401925050819055505b846002600086815260200190815260200160002060006101000a81548173ffffffffffffffffffffffffffffffffffffffff021916908373ffffffffffffffffffffffffffffffffffffffff160217905550838573ffffffffffffffffffffffffffffffffffffffff168273ffffffffffffffffffffffffffffffffffffffff167fddf252ad1be2c89b69c2b068fc378daa952ba7f163c4a11628f55a4df523b3ef60405160405180910390a4809150509392505050565b600073ffffffffffffffffffffffffffffffffffffffff168273ffffffffffffffffffffffffffffffffffffffff16036127b15760006040517f64a0ae920000000000000000000000000000000000000000000000000000000081526004016127a8919061346b565b60405180910390fd5b60006127bf83836000612525565b9050600073ffffffffffffffffffffffffffffffffffffffff168173ffffffffffffffffffffffffffffffffffffffff16146128335760006040517f73c6ac6e00000000000000000000000000000000000000000000000000000000815260040161282a919061346b565b60405180910390fd5b505050565b8060066000848152602001908152602001600020908161285891906142d2565b507ff8e1a15aba9398e019f0b49df1a4fde98ee17ae345cb5f6b5e2c27f5033e8ce78260405161288891906136b0565b60405180910390a15050565b600073ffffffffffffffffffffffffffffffffffffffff168273ffffffffffffffffffffffffffffffffffffffff160361290557816040517f5b08ba180000000000000000000000000000000000000000000000000000000081526004016128fc919061346b565b60405180910390fd5b80600560008573ffffffffffffffffffffffffffffffffffffffff1673ffffffffffffffffffffffffffffffffffffffff16815260200190815260200160002060008473ffffffffffffffffffffffffffffffffffffffff1673ffffffffffffffffffffffffffffffffffffffff16815260200190815260200160002060006101000a81548160ff0219169083151502179055508173ffffffffffffffffffffffffffffffffffffffff168373ffffffffffffffffffffffffffffffffffffffff167f17307eab39ab6107e8899845ad3d59bd9653f200f220920489ca2b5937696c31836040516129f691906132fa565b60405180910390a3505050565b60008373ffffffffffffffffffffffffffffffffffffffff163b1115612bad578273ffffffffffffffffffffffffffffffffffffffff1663150b7a02868685856040518563ffffffff1660e01b8152600401612a629493929190614488565b6020604051808303816000875af1925050508015612a9e57506040513d601f19601f82011682018060405250810190612a9b91906144e9565b60015b612b22573d8060008114612ace576040519150601f19603f3d011682016040523d82523d6000602084013e612ad3565b606091505b506000815103612b1a57836040517f64a0ae92000000000000000000000000000000000000000000000000000000008152600401612b11919061346b565b60405180910390fd5b805181602001fd5b63150b7a0260e01b7bffffffffffffffffffffffffffffffffffffffffffffffffffffffff1916817bffffffffffffffffffffffffffffffffffffffffffffffffffffffff191614612bab57836040517f64a0ae92000000000000000000000000000000000000000000000000000000008152600401612ba2919061346b565b60405180910390fd5b505b5050505050565b606060405180602001604052806000815250905090565b6060612bd682612446565b506000612be1612bb4565b90506000815111612c015760405180602001604052806000815250612c2c565b80612c0b84612f64565b604051602001612c1c92919061440f565b6040516020818303038152906040525b915050919050565b60007f01ffc9a7000000000000000000000000000000000000000000000000000000007bffffffffffffffffffffffffffffffffffffffffffffffffffffffff1916827bffffffffffffffffffffffffffffffffffffffffffffffffffffffff1916149050919050565b60006002600083815260200190815260200160002060009054906101000a900473ffffffffffffffffffffffffffffffffffffffff169050919050565b8080612d145750600073ffffffffffffffffffffffffffffffffffffffff168273ffffffffffffffffffffffffffffffffffffffff1614155b15612e48576000612d2484612446565b9050600073ffffffffffffffffffffffffffffffffffffffff168373ffffffffffffffffffffffffffffffffffffffff1614158015612d8f57508273ffffffffffffffffffffffffffffffffffffffff168173ffffffffffffffffffffffffffffffffffffffff1614155b8015612da25750612da08184611f29565b155b15612de457826040517fa9fbf51f000000000000000000000000000000000000000000000000000000008152600401612ddb919061346b565b60405180910390fd5b8115612e4657838573ffffffffffffffffffffffffffffffffffffffff168273ffffffffffffffffffffffffffffffffffffffff167f8c5be1e5ebec7d5bd14f71427d1e84f3dd0314c0f7b2291e5b200ac8c7c3b92560405160405180910390a45b505b836004600085815260200190815260200160002060006101000a81548173ffffffffffffffffffffffffffffffffffffffff021916908373ffffffffffffffffffffffffffffffffffffffff16021790555050505050565b612eab838383613032565b612f5f57600073ffffffffffffffffffffffffffffffffffffffff168373ffffffffffffffffffffffffffffffffffffffff1603612f2057806040517f7e273289000000000000000000000000000000000000000000000000000000008152600401612f1791906136b0565b60405180910390fd5b81816040517f177e802f000000000000000000000000000000000000000000000000000000008152600401612f56929190614516565b60405180910390fd5b505050565b606060006001612f73846130f3565b01905060008167ffffffffffffffff811115612f9257612f916136d5565b5b6040519080825280601f01601f191660200182016040528015612fc45781602001600182028036833780820191505090505b509050600082602001820190505b600115613027578080600190039150507f3031323334353637383961626364656600000000000000000000000000000000600a86061a8153600a858161301b5761301a61453f565b5b04945060008503612fd2575b819350505050919050565b60008073ffffffffffffffffffffffffffffffffffffffff168373ffffffffffffffffffffffffffffffffffffffff16141580156130ea57508273ffffffffffffffffffffffffffffffffffffffff168473ffffffffffffffffffffffffffffffffffffffff1614806130ab57506130aa8484611f29565b5b806130e957508273ffffffffffffffffffffffffffffffffffffffff166130d1836124ce565b73ffffffffffffffffffffffffffffffffffffffff16145b5b90509392505050565b600080600090507a184f03e93ff9f4daa797ed6e38ed64bf6a1f0100000000000000008310613151577a184f03e93ff9f4daa797ed6e38ed64bf6a1f01000000000000000083816131475761314661453f565b5b0492506040810190505b6d04ee2d6d415b85acef8100000000831061318e576d04ee2d6d415b85acef810000000083816131845761318361453f565b5b0492506020810190505b662386f26fc1000083106131bd57662386f26fc1000083816131b3576131b261453f565b5b0492506010810190505b6305f5e10083106131e6576305f5e10083816131dc576131db61453f565b5b0492506008810190505b612710831061320b5761271083816132015761320061453f565b5b0492506004810190505b6064831061322e57606483816132245761322361453f565b5b0492506002810190505b600a831061323d576001810190505b80915050919050565b6000604051905090565b600080fd5b600080fd5b60007fffffffff0000000000000000000000000000000000000000000000000000000082169050919050565b61328f8161325a565b811461329a57600080fd5b50565b6000813590506132ac81613286565b92915050565b6000602082840312156132c8576132c7613250565b5b60006132d68482850161329d565b91505092915050565b60008115159050919050565b6132f4816132df565b82525050565b600060208201905061330f60008301846132eb565b92915050565b600081519050919050565b600082825260208201905092915050565b60005b8381101561334f578082015181840152602081019050613334565b60008484015250505050565b6000601f19601f8301169050919050565b600061337782613315565b6133818185613320565b9350613391818560208601613331565b61339a8161335b565b840191505092915050565b600060208201905081810360008301526133bf818461336c565b905092915050565b6000819050919050565b6133da816133c7565b81146133e557600080fd5b50565b6000813590506133f7816133d1565b92915050565b60006020828403121561341357613412613250565b5b6000613421848285016133e8565b91505092915050565b600073ffffffffffffffffffffffffffffffffffffffff82169050919050565b60006134558261342a565b9050919050565b6134658161344a565b82525050565b6000602082019050613480600083018461345c565b92915050565b61348f8161344a565b811461349a57600080fd5b50565b6000813590506134ac81613486565b92915050565b600080604083850312156134c9576134c8613250565b5b60006134d78582860161349d565b92505060206134e8858286016133e8565b9150509250929050565b60006020828403121561350857613507613250565b5b60006135168482850161349d565b91505092915050565b613528816133c7565b82525050565b7f4e487b7100000000000000000000000000000000000000000000000000000000600052602160045260246000fd5b6003811061356e5761356d61352e565b5b50565b600081905061357f8261355d565b919050565b600061358f82613571565b9050919050565b61359f81613584565b82525050565b60006080820190506135ba600083018761351f565b81810360208301526135cc818661336c565b905081810360408301526135e0818561336c565b90506135ef6060830184613596565b95945050505050565b60008060006060848603121561361157613610613250565b5b600061361f8682870161349d565b93505060206136308682870161349d565b9250506040613641868287016133e8565b9150509250925092565b6003811061365857600080fd5b50565b60008135905061366a8161364b565b92915050565b6000806040838503121561368757613686613250565b5b6000613695858286016133e8565b92505060206136a68582860161365b565b9150509250929050565b60006020820190506136c5600083018461351f565b92915050565b600080fd5b600080fd5b7f4e487b7100000000000000000000000000000000000000000000000000000000600052604160045260246000fd5b61370d8261335b565b810181811067ffffffffffffffff8211171561372c5761372b6136d5565b5b80604052505050565b600061373f613246565b905061374b8282613704565b919050565b600067ffffffffffffffff82111561376b5761376a6136d5565b5b6137748261335b565b9050602081019050919050565b82818337600083830152505050565b60006137a361379e84613750565b613735565b9050828152602081018484840111156137bf576137be6136d0565b5b6137ca848285613781565b509392505050565b600082601f8301126137e7576137e66136cb565b5b81356137f7848260208601613790565b91505092915050565b60008060006060848603121561381957613818613250565b5b60006138278682870161349d565b935050602084013567ffffffffffffffff81111561384857613847613255565b5b613854868287016137d2565b925050604084013567ffffffffffffffff81111561387557613874613255565b5b613881868287016137d2565b9150509250925092565b600060608201905081810360008301526138a5818661336c565b905081810360208301526138b9818561336c565b90506138c86040830184613596565b949350505050565b6138d9816132df565b81146138e457600080fd5b50565b6000813590506138f6816138d0565b92915050565b6000806040838503121561391357613912613250565b5b60006139218582860161349d565b9250506020613932858286016138e7565b9150509250929050565b6000608082019050613951600083018761345c565b8181036020830152613963818661336c565b90508181036040830152613977818561336c565b90506139866060830184613596565b95945050505050565b600081519050919050565b600082825260208201905092915050565b6000819050602082019050919050565b6139c4816133c7565b82525050565b60006139d683836139bb565b60208301905092915050565b6000602082019050919050565b60006139fa8261398f565b613a04818561399a565b9350613a0f836139ab565b8060005b83811015613a40578151613a2788826139ca565b9750613a32836139e2565b925050600181019050613a13565b5085935050505092915050565b600081519050919050565b600082825260208201905092915050565b6000819050602082019050919050565b600082825260208201905092915050565b6000613a9582613315565b613a9f8185613a79565b9350613aaf818560208601613331565b613ab88161335b565b840191505092915050565b6000613acf8383613a8a565b905092915050565b6000602082019050919050565b6000613aef82613a4d565b613af98185613a58565b935083602082028501613b0b85613a69565b8060005b85811015613b475784840389528151613b288582613ac3565b9450613b3383613ad7565b925060208a01995050600181019050613b0f565b50829750879550505050505092915050565b60006060820190508181036000830152613b7381866139ef565b90508181036020830152613b878185613ae4565b90508181036040830152613b9b8184613ae4565b9050949350505050565b600067ffffffffffffffff821115613bc057613bbf6136d5565b5b613bc98261335b565b9050602081019050919050565b6000613be9613be484613ba5565b613735565b905082815260208101848484011115613c0557613c046136d0565b5b613c10848285613781565b509392505050565b600082601f830112613c2d57613c2c6136cb565b5b8135613c3d848260208601613bd6565b91505092915050565b60008060008060808587031215613c6057613c5f613250565b5b6000613c6e8782880161349d565b9450506020613c7f8782880161349d565b9350506040613c90878288016133e8565b925050606085013567ffffffffffffffff811115613cb157613cb0613255565b5b613cbd87828801613c18565b91505092959194509250565b6000602082019050613cde6000830184613596565b92915050565b60008060408385031215613cfb57613cfa613250565b5b6000613d098582860161349d565b9250506020613d1a8582860161349d565b9150509250929050565b7f4e487b7100000000000000000000000000000000000000000000000000000000600052602260045260246000fd5b60006002820490506001821680613d6b57607f821691505b602082108103613d7e57613d7d613d24565b5b50919050565b7f4d616e756661637475726572206e6f7420666f756e6400000000000000000000600082015250565b6000613dba601683613320565b9150613dc582613d84565b602082019050919050565b60006020820190508181036000830152613de981613dad565b9050919050565b6000606082019050613e05600083018661345c565b613e12602083018561351f565b613e1f604083018461345c565b949350505050565b7f546f6b656e20646f6573206e6f74206578697374000000000000000000000000600082015250565b6000613e5d601483613320565b9150613e6882613e27565b602082019050919050565b60006020820190508181036000830152613e8c81613e50565b9050919050565b7f496e76616c696420537461747573000000000000000000000000000000000000600082015250565b6000613ec9600e83613320565b9150613ed482613e93565b602082019050919050565b60006020820190508181036000830152613ef881613ebc565b9050919050565b7f496e76616c6964206d616e756661637475726572206164647265737300000000600082015250565b6000613f35601c83613320565b9150613f4082613eff565b602082019050919050565b60006020820190508181036000830152613f6481613f28565b9050919050565b7f4a534f4e204349442063616e6e6f7420626520656d7074790000000000000000600082015250565b6000613fa1601883613320565b9150613fac82613f6b565b602082019050919050565b60006020820190508181036000830152613fd081613f94565b9050919050565b7f504446204349442063616e6e6f7420626520656d707479000000000000000000600082015250565b600061400d601783613320565b915061401882613fd7565b602082019050919050565b6000602082019050818103600083015261403c81614000565b9050919050565b7f4d616e75666163747572657220616c72656164792073746f7265640000000000600082015250565b6000614079601b83613320565b915061408482614043565b602082019050919050565b600060208201905081810360008301526140a88161406c565b9050919050565b7f4e487b7100000000000000000000000000000000000000000000000000000000600052601160045260246000fd5b60006140e9826133c7565b91507fffffffffffffffffffffffffffffffffffffffffffffffffffffffffffffffff820361411b5761411a6140af565b5b600182019050919050565b60008190508160005260206000209050919050565b60006020601f8301049050919050565b600082821b905092915050565b6000600883026141887fffffffffffffffffffffffffffffffffffffffffffffffffffffffffffffffff8261414b565b614192868361414b565b95508019841693508086168417925050509392505050565b6000819050919050565b60006141cf6141ca6141c5846133c7565b6141aa565b6133c7565b9050919050565b6000819050919050565b6141e9836141b4565b6141fd6141f5826141d6565b848454614158565b825550505050565b600090565b614212614205565b61421d8184846141e0565b505050565b5b818110156142415761423660008261420a565b600181019050614223565b5050565b601f8211156142865761425781614126565b6142608461413b565b8101602085101561426f578190505b61428361427b8561413b565b830182614222565b50505b505050565b600082821c905092915050565b60006142a96000198460080261428b565b1980831691505092915050565b60006142c28383614298565b9150826002028217905092915050565b6142db82613315565b67ffffffffffffffff8111156142f4576142f36136d5565b5b6142fe8254613d53565b614309828285614245565b600060209050601f83116001811461433c576000841561432a578287015190505b61433485826142b6565b86555061439c565b601f19841661434a86614126565b60005b828110156143725784890151825560018201915060208501945060208101905061434d565b8683101561438f578489015161438b601f891682614298565b8355505b6001600288020188555050505b505050505050565b7f4e487b7100000000000000000000000000000000000000000000000000000000600052603260045260246000fd5b600081905092915050565b60006143e982613315565b6143f381856143d3565b9350614403818560208601613331565b80840191505092915050565b600061441b82856143de565b915061442782846143de565b91508190509392505050565b600081519050919050565b600082825260208201905092915050565b600061445a82614433565b614464818561443e565b9350614474818560208601613331565b61447d8161335b565b840191505092915050565b600060808201905061449d600083018761345c565b6144aa602083018661345c565b6144b7604083018561351f565b81810360608301526144c9818461444f565b905095945050505050565b6000815190506144e381613286565b92915050565b6000602082840312156144ff576144fe613250565b5b600061450d848285016144d4565b91505092915050565b600060408201905061452b600083018561345c565b614538602083018461351f565b9392505050565b7f4e487b7100000000000000000000000000000000000000000000000000000000600052601260045260246000fdfea264697066735822122073ddd255e4a23ad256f69242b9e1d2b1a233946086e2cc82c581fa55c50441a064736f6c63430008140033",
  "linkReferences": {},
  "deployedLinkReferences": {}
}