{
  "_format": "hh-sol-artifact-1",
  "contractName": "ManufacturerStorage",
  "sourceName": "contracts/manufacturerregistration.sol",
  "abi": [
    {
      "anonymous": false,
      "inputs": [
        {
          "indexed": true,
          "internalType": "address",
          "name": "manufacturer",
          "type": "address"
        },
        {
          "indexed": false,
          "internalType": "string",
          "name": "jsonCID",
          "type": "string"
        },
        {
          "indexed": false,
          "internalType": "string",
          "name": "pdfCID",
          "type": "string"
        }
      ],
      "name": "ManufacturerStored",
      "type": "event"
    },
    {
      "inputs": [
        {
          "internalType": "address",
          "name": "_manufacturer",
          "type": "address"
        }
      ],
      "name": "checkManufacturerExists",
      "outputs": [
        {
          "internalType": "bool",
          "name": "",
          "type": "bool"
        }
      ],
      "stateMutability": "view",
      "type": "function"
    },
    {
      "inputs": [],
      "name": "getAllApprovedManufacturers",
      "outputs": [
        {
          "components": [
            {
              "internalType": "string",
              "name": "jsonCID",
              "type": "string"
            },
            {
              "internalType": "string",
              "name": "pdfCID",
              "type": "string"
            },
            {
              "internalType": "address",
              "name": "wallet",
              "type": "address"
            },
            {
              "internalType": "bool",
              "name": "isApproved",
              "type": "bool"
            }
          ],
          "internalType": "struct ManufacturerStorage.Manufacturer[]",
          "name": "",
          "type": "tuple[]"
        }
      ],
      "stateMutability": "view",
      "type": "function"
    },
    {
      "inputs": [
        {
          "internalType": "address",
          "name": "_manufacturer",
          "type": "address"
        }
      ],
      "name": "getManufacturerCIDs",
      "outputs": [
        {
          "internalType": "string",
          "name": "jsonCID",
          "type": "string"
        },
        {
          "internalType": "string",
          "name": "pdfCID",
          "type": "string"
        }
      ],
      "stateMutability": "view",
      "type": "function"
    },
    {
      "inputs": [
        {
          "internalType": "address",
          "name": "_manufacturer",
          "type": "address"
        }
      ],
      "name": "getManufacturerDetails",
      "outputs": [
        {
          "internalType": "string",
          "name": "jsonCID",
          "type": "string"
        },
        {
          "internalType": "string",
          "name": "pdfCID",
          "type": "string"
        },
        {
          "internalType": "address",
          "name": "wallet",
          "type": "address"
        },
        {
          "internalType": "bool",
          "name": "isApproved",
          "type": "bool"
        }
      ],
      "stateMutability": "view",
      "type": "function"
    },
    {
      "inputs": [
        {
          "internalType": "address",
          "name": "_manufacturer",
          "type": "address"
        },
        {
          "internalType": "string",
          "name": "_jsonCID",
          "type": "string"
        },
        {
          "internalType": "string",
          "name": "_pdfCID",
          "type": "string"
        }
      ],
      "name": "storeManufacturer",
      "outputs": [],
      "stateMutability": "nonpayable",
      "type": "function"
    }
  ],
  "bytecode": "0x608060405234801561001057600080fd5b506117c5806100206000396000f3fe608060405234801561001057600080fd5b50600436106100575760003560e01c806322713cc71461005c578063626b38551461008f5780637695f113146100c05780637f35a41f146100de578063a4544190146100fa575b600080fd5b61007660048036038101906100719190610dcf565b61012a565b6040516100869493929190610eb6565b60405180910390f35b6100a960048036038101906100a49190610dcf565b6103c2565b6040516100b7929190610f09565b60405180910390f35b6100c8610604565b6040516100d591906110d4565b60405180910390f35b6100f860048036038101906100f3919061122b565b6107f8565b005b610114600480360381019061010f9190610dcf565b610b1a565b60405161012191906112b6565b60405180910390f35b6060806000806000600160008773ffffffffffffffffffffffffffffffffffffffff1673ffffffffffffffffffffffffffffffffffffffff168152602001908152602001600020600001805461017f90611300565b9050036101ba5760008060405180602001604052806000815250919060405180602001604052806000815250919093509350935093506103bb565b6000600160008773ffffffffffffffffffffffffffffffffffffffff1673ffffffffffffffffffffffffffffffffffffffff16815260200190815260200160002060405180608001604052908160008201805461021690611300565b80601f016020809104026020016040519081016040528092919081815260200182805461024290611300565b801561028f5780601f106102645761010080835404028352916020019161028f565b820191906000526020600020905b81548152906001019060200180831161027257829003601f168201915b505050505081526020016001820180546102a890611300565b80601f01602080910402602001604051908101604052809291908181526020018280546102d490611300565b80156103215780601f106102f657610100808354040283529160200191610321565b820191906000526020600020905b81548152906001019060200180831161030457829003601f168201915b505050505081526020016002820160009054906101000a900473ffffffffffffffffffffffffffffffffffffffff1673ffffffffffffffffffffffffffffffffffffffff1673ffffffffffffffffffffffffffffffffffffffff1681526020016002820160149054906101000a900460ff161515151581525050905080600001518160200151826040015183606001519450945094509450505b9193509193565b6060806000600160008573ffffffffffffffffffffffffffffffffffffffff1673ffffffffffffffffffffffffffffffffffffffff16815260200190815260200160002060405180608001604052908160008201805461042190611300565b80601f016020809104026020016040519081016040528092919081815260200182805461044d90611300565b801561049a5780601f1061046f5761010080835404028352916020019161049a565b820191906000526020600020905b81548152906001019060200180831161047d57829003601f168201915b505050505081526020016001820180546104b390611300565b80601f01602080910402602001604051908101604052809291908181526020018280546104df90611300565b801561052c5780601f106105015761010080835404028352916020019161052c565b820191906000526020600020905b81548152906001019060200180831161050f57829003601f168201915b505050505081526020016002820160009054906101000a900473ffffffffffffffffffffffffffffffffffffffff1673ffffffffffffffffffffffffffffffffffffffff1673ffffffffffffffffffffffffffffffffffffffff1681526020016002820160149054906101000a900460ff16151515158152505090506000816000015151116105f0576040517f08c379a00000000000000000000000000000000000000000000000000000000081526004016105e7906113a3565b60405180910390fd5b806000015181602001519250925050915091565b60606000805480602002602001604051908101604052809291908181526020016000905b828210156107ef578382906000526020600020906003020160405180608001604052908160008201805461065b90611300565b80601f016020809104026020016040519081016040528092919081815260200182805461068790611300565b80156106d45780601f106106a9576101008083540402835291602001916106d4565b820191906000526020600020905b8154815290600101906020018083116106b757829003601f168201915b505050505081526020016001820180546106ed90611300565b80601f016020809104026020016040519081016040528092919081815260200182805461071990611300565b80156107665780601f1061073b57610100808354040283529160200191610766565b820191906000526020600020905b81548152906001019060200180831161074957829003601f168201915b505050505081526020016002820160009054906101000a900473ffffffffffffffffffffffffffffffffffffffff1673ffffffffffffffffffffffffffffffffffffffff1673ffffffffffffffffffffffffffffffffffffffff1681526020016002820160149054906101000a900460ff16151515158152505081526020019060010190610628565b50505050905090565b600073ffffffffffffffffffffffffffffffffffffffff168373ffffffffffffffffffffffffffffffffffffffff1603610867576040517f08c379a000000000000000000000000000000000000000000000000000000000815260040161085e9061140f565b60405180910390fd5b60008251116108ab576040517f08c379a00000000000000000000000000000000000000000000000000000000081526004016108a29061147b565b60405180910390fd5b60008151116108ef576040517f08c379a00000000000000000000000000000000000000000000000000000000081526004016108e6906114e7565b60405180910390fd5b600060405180608001604052808481526020018381526020018573ffffffffffffffffffffffffffffffffffffffff1681526020016001151581525090506000819080600181540180825580915050600190039060005260206000209060030201600090919091909150600082015181600001908161096e91906116bd565b50602082015181600101908161098491906116bd565b5060408201518160020160006101000a81548173ffffffffffffffffffffffffffffffffffffffff021916908373ffffffffffffffffffffffffffffffffffffffff16021790555060608201518160020160146101000a81548160ff021916908315150217905550505080600160008673ffffffffffffffffffffffffffffffffffffffff1673ffffffffffffffffffffffffffffffffffffffff1681526020019081526020016000206000820151816000019081610a4391906116bd565b506020820151816001019081610a5991906116bd565b5060408201518160020160006101000a81548173ffffffffffffffffffffffffffffffffffffffff021916908373ffffffffffffffffffffffffffffffffffffffff16021790555060608201518160020160146101000a81548160ff0219169083151502179055509050508373ffffffffffffffffffffffffffffffffffffffff167f76c2ed89b5f9418b40455e483d2adb8b6c1fbdff955890a0693606725551df7f8484604051610b0c929190610f09565b60405180910390a250505050565b60008073ffffffffffffffffffffffffffffffffffffffff168273ffffffffffffffffffffffffffffffffffffffff1603610b585760009050610d58565b6000600160008473ffffffffffffffffffffffffffffffffffffffff1673ffffffffffffffffffffffffffffffffffffffff168152602001908152602001600020604051806080016040529081600082018054610bb490611300565b80601f0160208091040260200160405190810160405280929190818152602001828054610be090611300565b8015610c2d5780601f10610c0257610100808354040283529160200191610c2d565b820191906000526020600020905b815481529060010190602001808311610c1057829003601f168201915b50505050508152602001600182018054610c4690611300565b80601f0160208091040260200160405190810160405280929190818152602001828054610c7290611300565b8015610cbf5780601f10610c9457610100808354040283529160200191610cbf565b820191906000526020600020905b815481529060010190602001808311610ca257829003601f168201915b505050505081526020016002820160009054906101000a900473ffffffffffffffffffffffffffffffffffffffff1673ffffffffffffffffffffffffffffffffffffffff1673ffffffffffffffffffffffffffffffffffffffff1681526020016002820160149054906101000a900460ff1615151515815250509050600081600001515103610d52576000915050610d58565b60019150505b919050565b6000604051905090565b600080fd5b600080fd5b600073ffffffffffffffffffffffffffffffffffffffff82169050919050565b6000610d9c82610d71565b9050919050565b610dac81610d91565b8114610db757600080fd5b50565b600081359050610dc981610da3565b92915050565b600060208284031215610de557610de4610d67565b5b6000610df384828501610dba565b91505092915050565b600081519050919050565b600082825260208201905092915050565b60005b83811015610e36578082015181840152602081019050610e1b565b60008484015250505050565b6000601f19601f8301169050919050565b6000610e5e82610dfc565b610e688185610e07565b9350610e78818560208601610e18565b610e8181610e42565b840191505092915050565b610e9581610d91565b82525050565b60008115159050919050565b610eb081610e9b565b82525050565b60006080820190508181036000830152610ed08187610e53565b90508181036020830152610ee48186610e53565b9050610ef36040830185610e8c565b610f006060830184610ea7565b95945050505050565b60006040820190508181036000830152610f238185610e53565b90508181036020830152610f378184610e53565b90509392505050565b600081519050919050565b600082825260208201905092915050565b6000819050602082019050919050565b600082825260208201905092915050565b6000610f8882610dfc565b610f928185610f6c565b9350610fa2818560208601610e18565b610fab81610e42565b840191505092915050565b610fbf81610d91565b82525050565b610fce81610e9b565b82525050565b60006080830160008301518482036000860152610ff18282610f7d565b9150506020830151848203602086015261100b8282610f7d565b91505060408301516110206040860182610fb6565b5060608301516110336060860182610fc5565b508091505092915050565b600061104a8383610fd4565b905092915050565b6000602082019050919050565b600061106a82610f40565b6110748185610f4b565b93508360208202850161108685610f5c565b8060005b858110156110c257848403895281516110a3858261103e565b94506110ae83611052565b925060208a0199505060018101905061108a565b50829750879550505050505092915050565b600060208201905081810360008301526110ee818461105f565b905092915050565b600080fd5b600080fd5b7f4e487b7100000000000000000000000000000000000000000000000000000000600052604160045260246000fd5b61113882610e42565b810181811067ffffffffffffffff8211171561115757611156611100565b5b80604052505050565b600061116a610d5d565b9050611176828261112f565b919050565b600067ffffffffffffffff82111561119657611195611100565b5b61119f82610e42565b9050602081019050919050565b82818337600083830152505050565b60006111ce6111c98461117b565b611160565b9050828152602081018484840111156111ea576111e96110fb565b5b6111f58482856111ac565b509392505050565b600082601f830112611212576112116110f6565b5b81356112228482602086016111bb565b91505092915050565b60008060006060848603121561124457611243610d67565b5b600061125286828701610dba565b935050602084013567ffffffffffffffff81111561127357611272610d6c565b5b61127f868287016111fd565b925050604084013567ffffffffffffffff8111156112a05761129f610d6c565b5b6112ac868287016111fd565b9150509250925092565b60006020820190506112cb6000830184610ea7565b92915050565b7f4e487b7100000000000000000000000000000000000000000000000000000000600052602260045260246000fd5b6000600282049050600182168061131857607f821691505b60208210810361132b5761132a6112d1565b5b50919050565b7f4e6f2043494420666f756e6420666f722074686973206d616e7566616374757260008201527f6572000000000000000000000000000000000000000000000000000000000000602082015250565b600061138d602283610e07565b915061139882611331565b604082019050919050565b600060208201905081810360008301526113bc81611380565b9050919050565b7f496e76616c6964206d616e756661637475726572206164647265737300000000600082015250565b60006113f9601c83610e07565b9150611404826113c3565b602082019050919050565b60006020820190508181036000830152611428816113ec565b9050919050565b7f4a534f4e204349442063616e6e6f7420626520656d7074790000000000000000600082015250565b6000611465601883610e07565b91506114708261142f565b602082019050919050565b6000602082019050818103600083015261149481611458565b9050919050565b7f504446204349442063616e6e6f7420626520656d707479000000000000000000600082015250565b60006114d1601783610e07565b91506114dc8261149b565b602082019050919050565b60006020820190508181036000830152611500816114c4565b9050919050565b60008190508160005260206000209050919050565b60006020601f8301049050919050565b600082821b905092915050565b6000600883026115697fffffffffffffffffffffffffffffffffffffffffffffffffffffffffffffffff8261152c565b611573868361152c565b95508019841693508086168417925050509392505050565b6000819050919050565b6000819050919050565b60006115ba6115b56115b08461158b565b611595565b61158b565b9050919050565b6000819050919050565b6115d48361159f565b6115e86115e0826115c1565b848454611539565b825550505050565b600090565b6115fd6115f0565b6116088184846115cb565b505050565b5b8181101561162c576116216000826115f5565b60018101905061160e565b5050565b601f8211156116715761164281611507565b61164b8461151c565b8101602085101561165a578190505b61166e6116668561151c565b83018261160d565b50505b505050565b600082821c905092915050565b600061169460001984600802611676565b1980831691505092915050565b60006116ad8383611683565b9150826002028217905092915050565b6116c682610dfc565b67ffffffffffffffff8111156116df576116de611100565b5b6116e98254611300565b6116f4828285611630565b600060209050601f8311600181146117275760008415611715578287015190505b61171f85826116a1565b865550611787565b601f19841661173586611507565b60005b8281101561175d57848901518255600182019150602085019450602081019050611738565b8683101561177a5784890151611776601f891682611683565b8355505b6001600288020188555050505b50505050505056fea264697066735822122057dd568befdd6f3e9cbd4a6978f695ecb069e71fcd25eef21239a292d26960f164736f6c63430008140033",
  "linkReferences": {},
  "deployedLinkReferences": {}
}